{
  "contractName": "DMed",
  "abi": [
    {
      "anonymous": false,
      "inputs": [
        {
          "indexed": true,
          "internalType": "address",
          "name": "Admin_Address",
          "type": "address"
        }
      ],
      "name": "AdminAdded",
      "type": "event"
    },
    {
      "anonymous": false,
      "inputs": [
        {
          "indexed": true,
          "internalType": "address",
          "name": "Admin_Address",
          "type": "address"
        }
      ],
      "name": "AdminRemoved",
      "type": "event"
    },
    {
      "anonymous": false,
      "inputs": [
        {
          "indexed": true,
          "internalType": "address",
          "name": "_from",
          "type": "address"
        },
        {
          "indexed": true,
          "internalType": "address",
          "name": "_to",
          "type": "address"
        }
      ],
      "name": "OwnerChanged",
      "type": "event"
    },
    {
      "constant": false,
      "inputs": [
        {
          "internalType": "address",
          "name": "_admin",
          "type": "address"
        }
      ],
      "name": "addAdmin",
      "outputs": [
        {
          "internalType": "bool",
          "name": "",
          "type": "bool"
        }
      ],
      "payable": false,
      "stateMutability": "nonpayable",
      "type": "function"
    },
    {
      "constant": false,
      "inputs": [
        {
          "internalType": "address",
          "name": "_newOwner",
          "type": "address"
        }
      ],
      "name": "changeOwner",
      "outputs": [
        {
          "internalType": "bool",
          "name": "",
          "type": "bool"
        }
      ],
      "payable": false,
      "stateMutability": "nonpayable",
      "type": "function"
    },
    {
      "constant": true,
      "inputs": [],
      "name": "hospitalId",
      "outputs": [
        {
          "internalType": "uint256",
          "name": "",
          "type": "uint256"
        }
      ],
      "payable": false,
      "stateMutability": "view",
      "type": "function"
    },
    {
      "constant": true,
      "inputs": [],
      "name": "organizationId",
      "outputs": [
        {
          "internalType": "uint256",
          "name": "",
          "type": "uint256"
        }
      ],
      "payable": false,
      "stateMutability": "view",
      "type": "function"
    },
    {
      "constant": true,
      "inputs": [],
      "name": "recordId",
      "outputs": [
        {
          "internalType": "uint256",
          "name": "",
          "type": "uint256"
        }
      ],
      "payable": false,
      "stateMutability": "view",
      "type": "function"
    },
    {
      "constant": false,
      "inputs": [
        {
          "internalType": "address",
          "name": "_admin",
          "type": "address"
        }
      ],
      "name": "removeAdmin",
      "outputs": [
        {
          "internalType": "bool",
          "name": "",
          "type": "bool"
        }
      ],
      "payable": false,
      "stateMutability": "nonpayable",
      "type": "function"
    },
    {
      "constant": true,
      "inputs": [],
      "name": "getOwner",
      "outputs": [
        {
          "internalType": "address",
          "name": "",
          "type": "address"
        }
      ],
      "payable": false,
      "stateMutability": "view",
      "type": "function"
    },
    {
      "constant": true,
      "inputs": [
        {
          "internalType": "address",
          "name": "_admin",
          "type": "address"
        }
      ],
      "name": "isAdmin",
      "outputs": [
        {
          "internalType": "bool",
          "name": "",
          "type": "bool"
        }
      ],
      "payable": false,
      "stateMutability": "view",
      "type": "function"
    },
    {
      "constant": false,
      "inputs": [
        {
          "internalType": "string",
          "name": "name",
          "type": "string"
        },
        {
          "internalType": "string",
          "name": "physicalAddress",
          "type": "string"
        },
        {
          "internalType": "address",
          "name": "walletAddress",
          "type": "address"
        },
        {
          "internalType": "string",
          "name": "license",
          "type": "string"
        }
      ],
      "name": "addHospital",
      "outputs": [],
      "payable": false,
      "stateMutability": "nonpayable",
      "type": "function"
    },
    {
      "constant": true,
      "inputs": [
        {
          "internalType": "uint256",
          "name": "_id",
          "type": "uint256"
        }
      ],
      "name": "getHospitalById",
      "outputs": [
        {
          "components": [
            {
              "internalType": "uint256",
              "name": "id",
              "type": "uint256"
            },
            {
              "internalType": "string",
              "name": "name",
              "type": "string"
            },
            {
              "internalType": "string",
              "name": "physicalAddress",
              "type": "string"
            },
            {
              "internalType": "address",
              "name": "walletAddress",
              "type": "address"
            },
            {
              "internalType": "string",
              "name": "License",
              "type": "string"
            }
          ],
          "internalType": "struct DMed.Hospital",
          "name": "",
          "type": "tuple"
        }
      ],
      "payable": false,
      "stateMutability": "view",
      "type": "function"
    },
    {
      "constant": true,
      "inputs": [
        {
          "internalType": "address",
          "name": "_address",
          "type": "address"
        }
      ],
      "name": "getHospitalByAddress",
      "outputs": [
        {
          "components": [
            {
              "internalType": "uint256",
              "name": "id",
              "type": "uint256"
            },
            {
              "internalType": "string",
              "name": "name",
              "type": "string"
            },
            {
              "internalType": "string",
              "name": "physicalAddress",
              "type": "string"
            },
            {
              "internalType": "address",
              "name": "walletAddress",
              "type": "address"
            },
            {
              "internalType": "string",
              "name": "License",
              "type": "string"
            }
          ],
          "internalType": "struct DMed.Hospital",
          "name": "",
          "type": "tuple"
        }
      ],
      "payable": false,
      "stateMutability": "view",
      "type": "function"
    },
    {
      "constant": false,
      "inputs": [
        {
          "internalType": "uint256",
          "name": "_hospitalId",
          "type": "uint256"
        },
        {
          "internalType": "uint256",
          "name": "_patientId",
          "type": "uint256"
        },
        {
          "internalType": "string",
          "name": "_condition",
          "type": "string"
        },
        {
          "internalType": "string",
          "name": "_description",
          "type": "string"
        },
        {
          "internalType": "string",
          "name": "_allergies",
          "type": "string"
        },
        {
          "internalType": "string",
          "name": "_document",
          "type": "string"
        }
      ],
      "name": "addNewRecord",
      "outputs": [],
      "payable": false,
      "stateMutability": "nonpayable",
      "type": "function"
    },
    {
      "constant": false,
      "inputs": [
        {
          "internalType": "uint256",
          "name": "_id",
          "type": "uint256"
        },
        {
          "internalType": "string",
          "name": "_name",
          "type": "string"
        },
        {
          "internalType": "string",
          "name": "_gender",
          "type": "string"
        },
        {
          "internalType": "string",
          "name": "_bloodGroup",
          "type": "string"
        },
        {
          "internalType": "string",
          "name": "_dob",
          "type": "string"
        },
        {
          "internalType": "uint256",
          "name": "_phoneNumber",
          "type": "uint256"
        },
        {
          "internalType": "string",
          "name": "_physicalAddress",
          "type": "string"
        },
        {
          "internalType": "string",
          "name": "_profilePicture",
          "type": "string"
        },
        {
          "internalType": "address",
          "name": "_walletAddress",
          "type": "address"
        }
      ],
      "name": "addNewPatient",
      "outputs": [],
      "payable": false,
      "stateMutability": "nonpayable",
      "type": "function"
    },
    {
      "constant": false,
      "inputs": [
        {
          "internalType": "string",
          "name": "_name",
          "type": "string"
        },
        {
          "internalType": "address",
          "name": "_walletAddress",
          "type": "address"
        },
        {
          "internalType": "string",
          "name": "_license",
          "type": "string"
        }
      ],
      "name": "addOrganization",
      "outputs": [],
      "payable": false,
      "stateMutability": "nonpayable",
      "type": "function"
    },
    {
      "constant": true,
      "inputs": [
        {
          "internalType": "uint256",
          "name": "_id",
          "type": "uint256"
        }
      ],
      "name": "getOrganizationById",
      "outputs": [
        {
          "components": [
            {
              "internalType": "uint256",
              "name": "id",
              "type": "uint256"
            },
            {
              "internalType": "string",
              "name": "name",
              "type": "string"
            },
            {
              "internalType": "address",
              "name": "walletAddress",
              "type": "address"
            },
            {
              "internalType": "string",
              "name": "License",
              "type": "string"
            }
          ],
          "internalType": "struct DMed.Organization",
          "name": "",
          "type": "tuple"
        }
      ],
      "payable": false,
      "stateMutability": "view",
      "type": "function"
    },
    {
      "constant": true,
      "inputs": [
        {
          "internalType": "address",
          "name": "_addr",
          "type": "address"
        }
      ],
      "name": "getOrganizationByAddress",
      "outputs": [
        {
          "components": [
            {
              "internalType": "uint256",
              "name": "id",
              "type": "uint256"
            },
            {
              "internalType": "string",
              "name": "name",
              "type": "string"
            },
            {
              "internalType": "address",
              "name": "walletAddress",
              "type": "address"
            },
            {
              "internalType": "string",
              "name": "License",
              "type": "string"
            }
          ],
          "internalType": "struct DMed.Organization",
          "name": "",
          "type": "tuple"
        }
      ],
      "payable": false,
      "stateMutability": "view",
      "type": "function"
    },
    {
      "constant": false,
      "inputs": [
        {
          "internalType": "address",
          "name": "addr",
          "type": "address"
        }
      ],
      "name": "addAuthByAddress",
      "outputs": [],
      "payable": false,
      "stateMutability": "nonpayable",
      "type": "function"
    },
    {
      "constant": false,
      "inputs": [
        {
          "internalType": "uint256",
          "name": "_id",
          "type": "uint256"
        }
      ],
      "name": "addAuthById",
      "outputs": [],
      "payable": false,
      "stateMutability": "nonpayable",
      "type": "function"
    },
    {
      "constant": false,
      "inputs": [
        {
          "internalType": "address",
          "name": "addr",
          "type": "address"
        }
      ],
      "name": "revokeAuthByAddress",
      "outputs": [],
      "payable": false,
      "stateMutability": "nonpayable",
      "type": "function"
    },
    {
      "constant": false,
      "inputs": [
        {
          "internalType": "uint256",
          "name": "_id",
          "type": "uint256"
        }
      ],
      "name": "revokeAuthById",
      "outputs": [],
      "payable": false,
      "stateMutability": "nonpayable",
      "type": "function"
    },
    {
      "constant": true,
      "inputs": [
        {
          "internalType": "uint256",
          "name": "_id",
          "type": "uint256"
        }
      ],
      "name": "getPatientDetails",
      "outputs": [
        {
          "internalType": "uint256",
          "name": "",
          "type": "uint256"
        },
        {
          "internalType": "string",
          "name": "",
          "type": "string"
        },
        {
          "internalType": "string",
          "name": "",
          "type": "string"
        },
        {
          "internalType": "string",
          "name": "",
          "type": "string"
        },
        {
          "internalType": "string",
          "name": "",
          "type": "string"
        },
        {
          "internalType": "uint256",
          "name": "",
          "type": "uint256"
        },
        {
          "internalType": "string",
          "name": "",
          "type": "string"
        },
        {
          "internalType": "string",
          "name": "",
          "type": "string"
        },
        {
          "internalType": "address",
          "name": "",
          "type": "address"
        }
      ],
      "payable": false,
      "stateMutability": "view",
      "type": "function"
    },
    {
      "constant": true,
      "inputs": [
        {
          "internalType": "uint256",
          "name": "_id",
          "type": "uint256"
        }
      ],
      "name": "getPatientRecords",
      "outputs": [
        {
          "internalType": "uint256[]",
          "name": "",
          "type": "uint256[]"
        },
        {
          "internalType": "string[]",
          "name": "",
          "type": "string[]"
        },
        {
          "internalType": "string[]",
          "name": "",
          "type": "string[]"
        },
        {
          "internalType": "string[]",
          "name": "",
          "type": "string[]"
        },
        {
          "internalType": "string[]",
          "name": "",
          "type": "string[]"
        }
      ],
      "payable": false,
      "stateMutability": "view",
      "type": "function"
    }
  ],
  "bytecode": "0x6080604052600160025560016003556001600455336000806101000a81548173ffffffffffffffffffffffffffffffffffffffff021916908373ffffffffffffffffffffffffffffffffffffffff16021790555060018060003373ffffffffffffffffffffffffffffffffffffffff1673ffffffffffffffffffffffffffffffffffffffff16815260200190815260200160002060006101000a81548160ff021916908315150217905550615345806100b96000396000f3fe608060405234801561001057600080fd5b50600436106101425760003560e01c806383ce80e1116100b85780639e861ae01161007c5780639e861ae0146103b3578063a6f9dae1146103cf578063baf1da2d146103ff578063c471dc3a1461041b578063dce7e84314610439578063f7dfe22b1461046d57610142565b806383ce80e114610323578063893d20e81461033f57806397d4a3de1461035d5780639b90d2d5146103795780639d2d428e1461039557610142565b806344125aa61161010a57806344125aa61461022b57806351928b2c1461025b578063635c54551461028b57806370480275146102bb5780637516455c146102eb57806375d884141461030757610142565b80631785f53c1461014757806324d7806c1461017757806324e459c6146101a75780632832163f146101c3578063300c601c146101f3575b600080fd5b610161600480360361015c91908101906141a3565b61048b565b60405161016e9190614da5565b60405180910390f35b610191600480360361018c91908101906141a3565b6106e3565b60405161019e9190614da5565b60405180910390f35b6101c160048036036101bc9190810190614475565b610739565b005b6101dd60048036036101d891908101906141a3565b610986565b6040516101ea9190615042565b60405180910390f35b61020d600480360361020891908101906142f6565b610c03565b6040516102229998979695949392919061507f565b60405180910390f35b610245600480360361024091908101906142f6565b611324565b6040516102529190615020565b60405180910390f35b610275600480360361027091908101906141a3565b6115fd565b6040516102829190615020565b60405180910390f35b6102a560048036036102a091908101906142f6565b61199e565b6040516102b29190615042565b60405180910390f35b6102d560048036036102d091908101906141a3565b611bc9565b6040516102e29190614da5565b60405180910390f35b610305600480360361030091908101906142f6565b611d90565b005b610321600480360361031c91908101906141a3565b6121ae565b005b61033d600480360361033891908101906141a3565b6123af565b005b61034761250c565b6040516103549190614d14565b60405180910390f35b6103776004803603610372919081019061431f565b612535565b005b610393600480360361038e91908101906141cc565b612826565b005b61039d612a74565b6040516103aa9190615064565b60405180910390f35b6103cd60048036036103c8919081019061424b565b612a7a565b005b6103e960048036036103e491908101906141a3565b612cec565b6040516103f69190614da5565b60405180910390f35b610419600480360361041491908101906142f6565b612fc2565b005b610423613338565b6040516104309190615064565b60405180910390f35b610453600480360361044e91908101906142f6565b61333e565b604051610464959493929190614d2f565b60405180910390f35b610475613f04565b6040516104829190615064565b60405180910390f35b60008060009054906101000a900473ffffffffffffffffffffffffffffffffffffffff1673ffffffffffffffffffffffffffffffffffffffff163373ffffffffffffffffffffffffffffffffffffffff161461051c576040517f08c379a000000000000000000000000000000000000000000000000000000000815260040161051390614e00565b60405180910390fd5b60011515600160008473ffffffffffffffffffffffffffffffffffffffff1673ffffffffffffffffffffffffffffffffffffffff16815260200190815260200160002060009054906101000a900460ff161515146105af576040517f08c379a00000000000000000000000000000000000000000000000000000000081526004016105a690614e80565b60405180910390fd5b6000809054906101000a900473ffffffffffffffffffffffffffffffffffffffff1673ffffffffffffffffffffffffffffffffffffffff168273ffffffffffffffffffffffffffffffffffffffff16141561063f576040517f08c379a000000000000000000000000000000000000000000000000000000000815260040161063690614ee0565b60405180910390fd5b6000600160008473ffffffffffffffffffffffffffffffffffffffff1673ffffffffffffffffffffffffffffffffffffffff16815260200190815260200160002060006101000a81548160ff0219169083151502179055508173ffffffffffffffffffffffffffffffffffffffff167fa3b62bc36326052d97ea62d63c3d60308ed4c3ea8ac079dd8499f1e9c4f80c0f60405160405180910390a260019050919050565b6000600160008373ffffffffffffffffffffffffffffffffffffffff1673ffffffffffffffffffffffffffffffffffffffff16815260200190815260200160002060009054906101000a900460ff169050919050565b6000600660003373ffffffffffffffffffffffffffffffffffffffff1673ffffffffffffffffffffffffffffffffffffffff168152602001908152602001600020549050600081141580156107a557506000600560008381526020019081526020016000206000015414155b6107e4576040517f08c379a00000000000000000000000000000000000000000000000000000000081526004016107db90614e40565b60405180910390fd5b60006008600088815260200190815260200160002060000154141561083e576040517f08c379a000000000000000000000000000000000000000000000000000000000815260040161083590614f40565b60405180910390fd5b610846613f0a565b6040518060e0016040528060035481526020018981526020018881526020018781526020018681526020018581526020018481525090508060076000600354815260200190815260200160002060008201518160000155602082015181600101556040820151816002015560608201518160030190805190602001906108cd929190613f47565b5060808201518160040190805190602001906108ea929190613f47565b5060a0820151816005019080519060200190610907929190613f47565b5060c0820151816006019080519060200190610924929190613f47565b509050506008600088815260200190815260200160002060060160035490806001815401808255809150509060018203906000526020600020016000909192909190915055506003600081548092919060010191905055505050505050505050565b61098e613fc7565b6000600b60008473ffffffffffffffffffffffffffffffffffffffff1673ffffffffffffffffffffffffffffffffffffffff168152602001908152602001600020549050600081141580156109fa57506000600a60008381526020019081526020016000206000015414155b610a39576040517f08c379a0000000000000000000000000000000000000000000000000000000008152600401610a3090614fa0565b60405180910390fd5b600a600082815260200190815260200160002060405180608001604052908160008201548152602001600182018054600181600116156101000203166002900480601f016020809104026020016040519081016040528092919081815260200182805460018160011615610100020316600290048015610afa5780601f10610acf57610100808354040283529160200191610afa565b820191906000526020600020905b815481529060010190602001808311610add57829003601f168201915b505050505081526020016002820160009054906101000a900473ffffffffffffffffffffffffffffffffffffffff1673ffffffffffffffffffffffffffffffffffffffff1673ffffffffffffffffffffffffffffffffffffffff168152602001600382018054600181600116156101000203166002900480601f016020809104026020016040519081016040528092919081815260200182805460018160011615610100020316600290048015610bf25780601f10610bc757610100808354040283529160200191610bf2565b820191906000526020600020905b815481529060010190602001808311610bd557829003601f168201915b505050505081525050915050919050565b600060608060608060006060806000896000600660003373ffffffffffffffffffffffffffffffffffffffff1673ffffffffffffffffffffffffffffffffffffffff16815260200190815260200160002054905060011515600c600084815260200190815260200160002060003373ffffffffffffffffffffffffffffffffffffffff1673ffffffffffffffffffffffffffffffffffffffff16815260200190815260200160002060009054906101000a900460ff1615151480610ceb575060008114158015610cea57506000600560008381526020019081526020016000206000015414155b5b80610d64575060008214158015610d6357503373ffffffffffffffffffffffffffffffffffffffff166008600084815260200190815260200160002060090160009054906101000a900473ffffffffffffffffffffffffffffffffffffffff1673ffffffffffffffffffffffffffffffffffffffff16145b5b610da3576040517f08c379a0000000000000000000000000000000000000000000000000000000008152600401610d9a90614dc0565b60405180910390fd5b60008c14158015610dcb57506000600860008e81526020019081526020016000206000015414155b610e0a576040517f08c379a0000000000000000000000000000000000000000000000000000000008152600401610e0190614f20565b60405180910390fd5b610e12614005565b600860008e81526020019081526020016000206040518061014001604052908160008201548152602001600182018054600181600116156101000203166002900480601f016020809104026020016040519081016040528092919081815260200182805460018160011615610100020316600290048015610ed45780601f10610ea957610100808354040283529160200191610ed4565b820191906000526020600020905b815481529060010190602001808311610eb757829003601f168201915b50505050508152602001600282018054600181600116156101000203166002900480601f016020809104026020016040519081016040528092919081815260200182805460018160011615610100020316600290048015610f765780601f10610f4b57610100808354040283529160200191610f76565b820191906000526020600020905b815481529060010190602001808311610f5957829003601f168201915b50505050508152602001600382018054600181600116156101000203166002900480601f0160208091040260200160405190810160405280929190818152602001828054600181600116156101000203166002900480156110185780601f10610fed57610100808354040283529160200191611018565b820191906000526020600020905b815481529060010190602001808311610ffb57829003601f168201915b50505050508152602001600482018054600181600116156101000203166002900480601f0160208091040260200160405190810160405280929190818152602001828054600181600116156101000203166002900480156110ba5780601f1061108f576101008083540402835291602001916110ba565b820191906000526020600020905b81548152906001019060200180831161109d57829003601f168201915b50505050508152602001600582015481526020016006820180548060200260200160405190810160405280929190818152602001828054801561111c57602002820191906000526020600020905b815481526020019060010190808311611108575b50505050508152602001600782018054600181600116156101000203166002900480601f0160208091040260200160405190810160405280929190818152602001828054600181600116156101000203166002900480156111be5780601f10611193576101008083540402835291602001916111be565b820191906000526020600020905b8154815290600101906020018083116111a157829003601f168201915b50505050508152602001600882018054600181600116156101000203166002900480601f0160208091040260200160405190810160405280929190818152602001828054600181600116156101000203166002900480156112605780601f1061123557610100808354040283529160200191611260565b820191906000526020600020905b81548152906001019060200180831161124357829003601f168201915b505050505081526020016009820160009054906101000a900473ffffffffffffffffffffffffffffffffffffffff1673ffffffffffffffffffffffffffffffffffffffff1673ffffffffffffffffffffffffffffffffffffffff16815250509050806000015181602001518260400151836060015184608001518560a001518660e001518761010001518861012001518797508696508595508494508292508191509b509b509b509b509b509b509b509b509b505050509193959799909294969850565b61132c61406e565b600060056000848152602001908152602001600020600001541415611386576040517f08c379a000000000000000000000000000000000000000000000000000000000815260040161137d90614f00565b60405180910390fd5b61138e61406e565b600560008481526020019081526020016000206040518060a001604052908160008201548152602001600182018054600181600116156101000203166002900480601f01602080910402602001604051908101604052809291908181526020018280546001816001161561010002031660029004801561144f5780601f106114245761010080835404028352916020019161144f565b820191906000526020600020905b81548152906001019060200180831161143257829003601f168201915b50505050508152602001600282018054600181600116156101000203166002900480601f0160208091040260200160405190810160405280929190818152602001828054600181600116156101000203166002900480156114f15780601f106114c6576101008083540402835291602001916114f1565b820191906000526020600020905b8154815290600101906020018083116114d457829003601f168201915b505050505081526020016003820160009054906101000a900473ffffffffffffffffffffffffffffffffffffffff1673ffffffffffffffffffffffffffffffffffffffff1673ffffffffffffffffffffffffffffffffffffffff168152602001600482018054600181600116156101000203166002900480601f0160208091040260200160405190810160405280929190818152602001828054600181600116156101000203166002900480156115e95780601f106115be576101008083540402835291602001916115e9565b820191906000526020600020905b8154815290600101906020018083116115cc57829003601f168201915b505050505081525050905080915050919050565b61160561406e565b6000600660008473ffffffffffffffffffffffffffffffffffffffff1673ffffffffffffffffffffffffffffffffffffffff168152602001908152602001600020541415611688576040517f08c379a000000000000000000000000000000000000000000000000000000000815260040161167f90614f00565b60405180910390fd5b6000600660008473ffffffffffffffffffffffffffffffffffffffff1673ffffffffffffffffffffffffffffffffffffffff168152602001908152602001600020549050600060056000838152602001908152602001600020600001541415611726576040517f08c379a000000000000000000000000000000000000000000000000000000000815260040161171d90614f00565b60405180910390fd5b61172e61406e565b600560008381526020019081526020016000206040518060a001604052908160008201548152602001600182018054600181600116156101000203166002900480601f0160208091040260200160405190810160405280929190818152602001828054600181600116156101000203166002900480156117ef5780601f106117c4576101008083540402835291602001916117ef565b820191906000526020600020905b8154815290600101906020018083116117d257829003601f168201915b50505050508152602001600282018054600181600116156101000203166002900480601f0160208091040260200160405190810160405280929190818152602001828054600181600116156101000203166002900480156118915780601f1061186657610100808354040283529160200191611891565b820191906000526020600020905b81548152906001019060200180831161187457829003601f168201915b505050505081526020016003820160009054906101000a900473ffffffffffffffffffffffffffffffffffffffff1673ffffffffffffffffffffffffffffffffffffffff1673ffffffffffffffffffffffffffffffffffffffff168152602001600482018054600181600116156101000203166002900480601f0160208091040260200160405190810160405280929190818152602001828054600181600116156101000203166002900480156119895780601f1061195e57610100808354040283529160200191611989565b820191906000526020600020905b81548152906001019060200180831161196c57829003601f168201915b50505050508152505090508092505050919050565b6119a6613fc7565b6000600a6000848152602001908152602001600020600001541415611a00576040517f08c379a00000000000000000000000000000000000000000000000000000000081526004016119f790614fa0565b60405180910390fd5b600a600083815260200190815260200160002060405180608001604052908160008201548152602001600182018054600181600116156101000203166002900480601f016020809104026020016040519081016040528092919081815260200182805460018160011615610100020316600290048015611ac15780601f10611a9657610100808354040283529160200191611ac1565b820191906000526020600020905b815481529060010190602001808311611aa457829003601f168201915b505050505081526020016002820160009054906101000a900473ffffffffffffffffffffffffffffffffffffffff1673ffffffffffffffffffffffffffffffffffffffff1673ffffffffffffffffffffffffffffffffffffffff168152602001600382018054600181600116156101000203166002900480601f016020809104026020016040519081016040528092919081815260200182805460018160011615610100020316600290048015611bb95780601f10611b8e57610100808354040283529160200191611bb9565b820191906000526020600020905b815481529060010190602001808311611b9c57829003601f168201915b5050505050815250509050919050565b60008060009054906101000a900473ffffffffffffffffffffffffffffffffffffffff1673ffffffffffffffffffffffffffffffffffffffff163373ffffffffffffffffffffffffffffffffffffffff1614611c5a576040517f08c379a0000000000000000000000000000000000000000000000000000000008152600401611c5190614e00565b60405180910390fd5b60001515600160008473ffffffffffffffffffffffffffffffffffffffff1673ffffffffffffffffffffffffffffffffffffffff16815260200190815260200160002060009054906101000a900460ff16151514611ced576040517f08c379a0000000000000000000000000000000000000000000000000000000008152600401611ce490614e20565b60405180910390fd5b60018060008473ffffffffffffffffffffffffffffffffffffffff1673ffffffffffffffffffffffffffffffffffffffff16815260200190815260200160002060006101000a81548160ff0219169083151502179055508173ffffffffffffffffffffffffffffffffffffffff167f44d6d25963f097ad14f29f06854a01f575648a1ef82f30e562ccd3889717e33960405160405180910390a260019050919050565b6000600960003373ffffffffffffffffffffffffffffffffffffffff1673ffffffffffffffffffffffffffffffffffffffff16815260200190815260200160002054905060008114158015611dfc57506000600860008381526020019081526020016000206000015414155b611e3b576040517f08c379a0000000000000000000000000000000000000000000000000000000008152600401611e3290614fc0565b60405180910390fd5b611e43613fc7565b600a600084815260200190815260200160002060405180608001604052908160008201548152602001600182018054600181600116156101000203166002900480601f016020809104026020016040519081016040528092919081815260200182805460018160011615610100020316600290048015611f045780601f10611ed957610100808354040283529160200191611f04565b820191906000526020600020905b815481529060010190602001808311611ee757829003601f168201915b505050505081526020016002820160009054906101000a900473ffffffffffffffffffffffffffffffffffffffff1673ffffffffffffffffffffffffffffffffffffffff1673ffffffffffffffffffffffffffffffffffffffff168152602001600382018054600181600116156101000203166002900480601f016020809104026020016040519081016040528092919081815260200182805460018160011615610100020316600290048015611ffc5780601f10611fd157610100808354040283529160200191611ffc565b820191906000526020600020905b815481529060010190602001808311611fdf57829003601f168201915b505050505081525050905060008160000151141561204f576040517f08c379a000000000000000000000000000000000000000000000000000000000815260040161204690614f60565b60405180910390fd5b6000600960003373ffffffffffffffffffffffffffffffffffffffff1673ffffffffffffffffffffffffffffffffffffffff16815260200190815260200160002054905060011515600c60008381526020019081526020016000206000846040015173ffffffffffffffffffffffffffffffffffffffff1673ffffffffffffffffffffffffffffffffffffffff16815260200190815260200160002060009054906101000a900460ff1615151461213b576040517f08c379a000000000000000000000000000000000000000000000000000000000815260040161213290614ec0565b60405180910390fd5b6000600c60008381526020019081526020016000206000846040015173ffffffffffffffffffffffffffffffffffffffff1673ffffffffffffffffffffffffffffffffffffffff16815260200190815260200160002060006101000a81548160ff02191690831515021790555050505050565b6000600960003373ffffffffffffffffffffffffffffffffffffffff1673ffffffffffffffffffffffffffffffffffffffff1681526020019081526020016000205490506000811415801561221a57506000600860008381526020019081526020016000206000015414155b612259576040517f08c379a000000000000000000000000000000000000000000000000000000000815260040161225090614fc0565b60405180910390fd5b6000600960003373ffffffffffffffffffffffffffffffffffffffff1673ffffffffffffffffffffffffffffffffffffffff16815260200190815260200160002054905060011515600c600083815260200190815260200160002060008573ffffffffffffffffffffffffffffffffffffffff1673ffffffffffffffffffffffffffffffffffffffff16815260200190815260200160002060009054906101000a900460ff16151514612341576040517f08c379a000000000000000000000000000000000000000000000000000000000815260040161233890614ec0565b60405180910390fd5b6000600c600083815260200190815260200160002060008573ffffffffffffffffffffffffffffffffffffffff1673ffffffffffffffffffffffffffffffffffffffff16815260200190815260200160002060006101000a81548160ff021916908315150217905550505050565b6000600960003373ffffffffffffffffffffffffffffffffffffffff1673ffffffffffffffffffffffffffffffffffffffff1681526020019081526020016000205490506000811415801561241b57506000600860008381526020019081526020016000206000015414155b61245a576040517f08c379a000000000000000000000000000000000000000000000000000000000815260040161245190614fc0565b60405180910390fd5b6000600960003373ffffffffffffffffffffffffffffffffffffffff1673ffffffffffffffffffffffffffffffffffffffff1681526020019081526020016000205490506001600c600083815260200190815260200160002060008573ffffffffffffffffffffffffffffffffffffffff1673ffffffffffffffffffffffffffffffffffffffff16815260200190815260200160002060006101000a81548160ff021916908315150217905550505050565b60008060009054906101000a900473ffffffffffffffffffffffffffffffffffffffff16905090565b6000600660003373ffffffffffffffffffffffffffffffffffffffff1673ffffffffffffffffffffffffffffffffffffffff168152602001908152602001600020549050600081141580156125a157506000600560008381526020019081526020016000206000015414155b6125e0576040517f08c379a00000000000000000000000000000000000000000000000000000000081526004016125d790614e40565b60405180910390fd5b6000600860008c81526020019081526020016000206000015414612639576040517f08c379a000000000000000000000000000000000000000000000000000000000815260040161263090614fe0565b60405180910390fd5b60608a600960008573ffffffffffffffffffffffffffffffffffffffff1673ffffffffffffffffffffffffffffffffffffffff168152602001908152602001600020819055506040518061014001604052808c81526020018b81526020018a81526020018981526020018881526020018781526020018281526020018681526020018581526020018473ffffffffffffffffffffffffffffffffffffffff16815250600860008d8152602001908152602001600020600082015181600001556020820151816001019080519060200190612714929190613f47565b506040820151816002019080519060200190612731929190613f47565b50606082015181600301908051906020019061274e929190613f47565b50608082015181600401908051906020019061276b929190613f47565b5060a0820151816005015560c08201518160060190805190602001906127929291906140b3565b5060e08201518160070190805190602001906127af929190613f47565b506101008201518160080190805190602001906127cd929190613f47565b506101208201518160090160006101000a81548173ffffffffffffffffffffffffffffffffffffffff021916908373ffffffffffffffffffffffffffffffffffffffff1602179055509050505050505050505050505050565b60011515600160003373ffffffffffffffffffffffffffffffffffffffff1673ffffffffffffffffffffffffffffffffffffffff16815260200190815260200160002060009054906101000a900460ff161515146128b9576040517f08c379a00000000000000000000000000000000000000000000000000000000081526004016128b090614f80565b60405180910390fd5b6000600b60008473ffffffffffffffffffffffffffffffffffffffff1673ffffffffffffffffffffffffffffffffffffffff168152602001908152602001600020541461293b576040517f08c379a000000000000000000000000000000000000000000000000000000000815260040161293290614ea0565b60405180910390fd5b604051806080016040528060045481526020018481526020018373ffffffffffffffffffffffffffffffffffffffff16815260200182815250600a600060045481526020019081526020016000206000820151816000015560208201518160010190805190602001906129af929190613f47565b5060408201518160020160006101000a81548173ffffffffffffffffffffffffffffffffffffffff021916908373ffffffffffffffffffffffffffffffffffffffff1602179055506060820151816003019080519060200190612a13929190613f47565b50905050600454600b60008473ffffffffffffffffffffffffffffffffffffffff1673ffffffffffffffffffffffffffffffffffffffff16815260200190815260200160002081905550600460008154809291906001019190505550505050565b60025481565b60011515600160003373ffffffffffffffffffffffffffffffffffffffff1673ffffffffffffffffffffffffffffffffffffffff16815260200190815260200160002060009054906101000a900460ff16151514612b0d576040517f08c379a0000000000000000000000000000000000000000000000000000000008152600401612b0490614f80565b60405180910390fd5b6000600660008473ffffffffffffffffffffffffffffffffffffffff1673ffffffffffffffffffffffffffffffffffffffff1681526020019081526020016000205414612b8f576040517f08c379a0000000000000000000000000000000000000000000000000000000008152600401612b8690614de0565b60405180910390fd5b6040518060a0016040528060025481526020018581526020018481526020018373ffffffffffffffffffffffffffffffffffffffff16815260200182815250600560006002548152602001908152602001600020600082015181600001556020820151816001019080519060200190612c09929190613f47565b506040820151816002019080519060200190612c26929190613f47565b5060608201518160030160006101000a81548173ffffffffffffffffffffffffffffffffffffffff021916908373ffffffffffffffffffffffffffffffffffffffff1602179055506080820151816004019080519060200190612c8a929190613f47565b50905050600254600660008473ffffffffffffffffffffffffffffffffffffffff1673ffffffffffffffffffffffffffffffffffffffff1681526020019081526020016000208190555060026000815480929190600101919050555050505050565b60008060009054906101000a900473ffffffffffffffffffffffffffffffffffffffff1673ffffffffffffffffffffffffffffffffffffffff163373ffffffffffffffffffffffffffffffffffffffff1614612d7d576040517f08c379a0000000000000000000000000000000000000000000000000000000008152600401612d7490614e00565b60405180910390fd5b6000809054906101000a900473ffffffffffffffffffffffffffffffffffffffff1673ffffffffffffffffffffffffffffffffffffffff168273ffffffffffffffffffffffffffffffffffffffff161415612e0d576040517f08c379a0000000000000000000000000000000000000000000000000000000008152600401612e0490615000565b60405180910390fd5b6000600160008060009054906101000a900473ffffffffffffffffffffffffffffffffffffffff1673ffffffffffffffffffffffffffffffffffffffff1673ffffffffffffffffffffffffffffffffffffffff16815260200190815260200160002060006101000a81548160ff021916908315150217905550816000806101000a81548173ffffffffffffffffffffffffffffffffffffffff021916908373ffffffffffffffffffffffffffffffffffffffff16021790555060018060008060009054906101000a900473ffffffffffffffffffffffffffffffffffffffff1673ffffffffffffffffffffffffffffffffffffffff1673ffffffffffffffffffffffffffffffffffffffff16815260200190815260200160002060006101000a81548160ff0219169083151502179055506000809054906101000a900473ffffffffffffffffffffffffffffffffffffffff1673ffffffffffffffffffffffffffffffffffffffff163373ffffffffffffffffffffffffffffffffffffffff167fb532073b38c83145e3e5135377a08bf9aab55bc0fd7c1179cd4fb995d2a5159c60405160405180910390a360019050919050565b6000600960003373ffffffffffffffffffffffffffffffffffffffff1673ffffffffffffffffffffffffffffffffffffffff1681526020019081526020016000205490506000811415801561302e57506000600860008381526020019081526020016000206000015414155b61306d576040517f08c379a000000000000000000000000000000000000000000000000000000000815260040161306490614fc0565b60405180910390fd5b613075613fc7565b600a600084815260200190815260200160002060405180608001604052908160008201548152602001600182018054600181600116156101000203166002900480601f0160208091040260200160405190810160405280929190818152602001828054600181600116156101000203166002900480156131365780601f1061310b57610100808354040283529160200191613136565b820191906000526020600020905b81548152906001019060200180831161311957829003601f168201915b505050505081526020016002820160009054906101000a900473ffffffffffffffffffffffffffffffffffffffff1673ffffffffffffffffffffffffffffffffffffffff1673ffffffffffffffffffffffffffffffffffffffff168152602001600382018054600181600116156101000203166002900480601f01602080910402602001604051908101604052809291908181526020018280546001816001161561010002031660029004801561322e5780601f106132035761010080835404028352916020019161322e565b820191906000526020600020905b81548152906001019060200180831161321157829003601f168201915b5050505050815250509050600081600001511415613281576040517f08c379a000000000000000000000000000000000000000000000000000000000815260040161327890614f60565b60405180910390fd5b6000600960003373ffffffffffffffffffffffffffffffffffffffff1673ffffffffffffffffffffffffffffffffffffffff1681526020019081526020016000205490506001600c60008381526020019081526020016000206000846040015173ffffffffffffffffffffffffffffffffffffffff1673ffffffffffffffffffffffffffffffffffffffff16815260200190815260200160002060006101000a81548160ff02191690831515021790555050505050565b60045481565b6060806060806060856000600660003373ffffffffffffffffffffffffffffffffffffffff1673ffffffffffffffffffffffffffffffffffffffff16815260200190815260200160002054905060011515600c600084815260200190815260200160002060003373ffffffffffffffffffffffffffffffffffffffff1673ffffffffffffffffffffffffffffffffffffffff16815260200190815260200160002060009054906101000a900460ff161515148061341f57506000811415801561341e57506000600560008381526020019081526020016000206000015414155b5b8061349857506000821415801561349757503373ffffffffffffffffffffffffffffffffffffffff166008600084815260200190815260200160002060090160009054906101000a900473ffffffffffffffffffffffffffffffffffffffff1673ffffffffffffffffffffffffffffffffffffffff16145b5b6134d7576040517f08c379a00000000000000000000000000000000000000000000000000000000081526004016134ce90614dc0565b60405180910390fd5b6134df614005565b600860008a81526020019081526020016000206040518061014001604052908160008201548152602001600182018054600181600116156101000203166002900480601f0160208091040260200160405190810160405280929190818152602001828054600181600116156101000203166002900480156135a15780601f10613576576101008083540402835291602001916135a1565b820191906000526020600020905b81548152906001019060200180831161358457829003601f168201915b50505050508152602001600282018054600181600116156101000203166002900480601f0160208091040260200160405190810160405280929190818152602001828054600181600116156101000203166002900480156136435780601f1061361857610100808354040283529160200191613643565b820191906000526020600020905b81548152906001019060200180831161362657829003601f168201915b50505050508152602001600382018054600181600116156101000203166002900480601f0160208091040260200160405190810160405280929190818152602001828054600181600116156101000203166002900480156136e55780601f106136ba576101008083540402835291602001916136e5565b820191906000526020600020905b8154815290600101906020018083116136c857829003601f168201915b50505050508152602001600482018054600181600116156101000203166002900480601f0160208091040260200160405190810160405280929190818152602001828054600181600116156101000203166002900480156137875780601f1061375c57610100808354040283529160200191613787565b820191906000526020600020905b81548152906001019060200180831161376a57829003601f168201915b5050505050815260200160058201548152602001600682018054806020026020016040519081016040528092919081815260200182805480156137e957602002820191906000526020600020905b8154815260200190600101908083116137d5575b50505050508152602001600782018054600181600116156101000203166002900480601f01602080910402602001604051908101604052809291908181526020018280546001816001161561010002031660029004801561388b5780601f106138605761010080835404028352916020019161388b565b820191906000526020600020905b81548152906001019060200180831161386e57829003601f168201915b50505050508152602001600882018054600181600116156101000203166002900480601f01602080910402602001604051908101604052809291908181526020018280546001816001161561010002031660029004801561392d5780601f106139025761010080835404028352916020019161392d565b820191906000526020600020905b81548152906001019060200180831161391057829003601f168201915b505050505081526020016009820160009054906101000a900473ffffffffffffffffffffffffffffffffffffffff1673ffffffffffffffffffffffffffffffffffffffff1673ffffffffffffffffffffffffffffffffffffffff16815250509050600089141580156139a457506000816000015114155b6139e3576040517f08c379a00000000000000000000000000000000000000000000000000000000081526004016139da90614f20565b60405180910390fd5b60008160c001515111613a2b576040517f08c379a0000000000000000000000000000000000000000000000000000000008152600401613a2290614e60565b60405180910390fd5b60008160c0015151905060608260c001519050606082604051908082528060200260200182016040528015613a6f5781602001602082028038833980820191505090505b509050606083604051908082528060200260200182016040528015613aa857816020015b6060815260200190600190039081613a935790505b509050606084604051908082528060200260200182016040528015613ae157816020015b6060815260200190600190039081613acc5790505b509050606085604051908082528060200260200182016040528015613b1a57816020015b6060815260200190600190039081613b055790505b509050606086604051908082528060200260200182016040528015613b5357816020015b6060815260200190600190039081613b3e5790505b50905060008090505b8651811015613ee157613b6d613f0a565b60076000898481518110613b7d57fe5b602002602001015181526020019081526020016000206040518060e0016040529081600082015481526020016001820154815260200160028201548152602001600382018054600181600116156101000203166002900480601f016020809104026020016040519081016040528092919081815260200182805460018160011615610100020316600290048015613c555780601f10613c2a57610100808354040283529160200191613c55565b820191906000526020600020905b815481529060010190602001808311613c3857829003601f168201915b50505050508152602001600482018054600181600116156101000203166002900480601f016020809104026020016040519081016040528092919081815260200182805460018160011615610100020316600290048015613cf75780601f10613ccc57610100808354040283529160200191613cf7565b820191906000526020600020905b815481529060010190602001808311613cda57829003601f168201915b50505050508152602001600582018054600181600116156101000203166002900480601f016020809104026020016040519081016040528092919081815260200182805460018160011615610100020316600290048015613d995780601f10613d6e57610100808354040283529160200191613d99565b820191906000526020600020905b815481529060010190602001808311613d7c57829003601f168201915b50505050508152602001600682018054600181600116156101000203166002900480601f016020809104026020016040519081016040528092919081815260200182805460018160011615610100020316600290048015613e3b5780601f10613e1057610100808354040283529160200191613e3b565b820191906000526020600020905b815481529060010190602001808311613e1e57829003601f168201915b50505050508152505090508060200151878381518110613e5757fe5b6020026020010181815250508060600151868381518110613e7457fe5b60200260200101819052508060800151858381518110613e9057fe5b60200260200101819052508060a00151848381518110613eac57fe5b60200260200101819052508060c00151838381518110613ec857fe5b6020026020010181905250508080600101915050613b5c565b5084848484849e509e509e509e509e505050505050505050505091939590929450565b60035481565b6040518060e00160405280600081526020016000815260200160008152602001606081526020016060815260200160608152602001606081525090565b828054600181600116156101000203166002900490600052602060002090601f016020900481019282601f10613f8857805160ff1916838001178555613fb6565b82800160010185558215613fb6579182015b82811115613fb5578251825591602001919060010190613f9a565b5b509050613fc39190614100565b5090565b60405180608001604052806000815260200160608152602001600073ffffffffffffffffffffffffffffffffffffffff168152602001606081525090565b604051806101400160405280600081526020016060815260200160608152602001606081526020016060815260200160008152602001606081526020016060815260200160608152602001600073ffffffffffffffffffffffffffffffffffffffff1681525090565b6040518060a00160405280600081526020016060815260200160608152602001600073ffffffffffffffffffffffffffffffffffffffff168152602001606081525090565b8280548282559060005260206000209081019282156140ef579160200282015b828111156140ee5782518255916020019190600101906140d3565b5b5090506140fc9190614100565b5090565b61412291905b8082111561411e576000816000905550600101614106565b5090565b90565b600081359050614134816152d4565b92915050565b600082601f83011261414b57600080fd5b813561415e61415982615163565b615136565b9150808252602083016020830185838301111561417a57600080fd5b614185838284615281565b50505092915050565b60008135905061419d816152eb565b92915050565b6000602082840312156141b557600080fd5b60006141c384828501614125565b91505092915050565b6000806000606084860312156141e157600080fd5b600084013567ffffffffffffffff8111156141fb57600080fd5b6142078682870161413a565b935050602061421886828701614125565b925050604084013567ffffffffffffffff81111561423557600080fd5b6142418682870161413a565b9150509250925092565b6000806000806080858703121561426157600080fd5b600085013567ffffffffffffffff81111561427b57600080fd5b6142878782880161413a565b945050602085013567ffffffffffffffff8111156142a457600080fd5b6142b08782880161413a565b93505060406142c187828801614125565b925050606085013567ffffffffffffffff8111156142de57600080fd5b6142ea8782880161413a565b91505092959194509250565b60006020828403121561430857600080fd5b60006143168482850161418e565b91505092915050565b60008060008060008060008060006101208a8c03121561433e57600080fd5b600061434c8c828d0161418e565b99505060208a013567ffffffffffffffff81111561436957600080fd5b6143758c828d0161413a565b98505060408a013567ffffffffffffffff81111561439257600080fd5b61439e8c828d0161413a565b97505060608a013567ffffffffffffffff8111156143bb57600080fd5b6143c78c828d0161413a565b96505060808a013567ffffffffffffffff8111156143e457600080fd5b6143f08c828d0161413a565b95505060a06144018c828d0161418e565b94505060c08a013567ffffffffffffffff81111561441e57600080fd5b61442a8c828d0161413a565b93505060e08a013567ffffffffffffffff81111561444757600080fd5b6144538c828d0161413a565b9250506101006144658c828d01614125565b9150509295985092959850929598565b60008060008060008060c0878903121561448e57600080fd5b600061449c89828a0161418e565b96505060206144ad89828a0161418e565b955050604087013567ffffffffffffffff8111156144ca57600080fd5b6144d689828a0161413a565b945050606087013567ffffffffffffffff8111156144f357600080fd5b6144ff89828a0161413a565b935050608087013567ffffffffffffffff81111561451c57600080fd5b61452889828a0161413a565b92505060a087013567ffffffffffffffff81111561454557600080fd5b61455189828a0161413a565b9150509295509295509295565b600061456a83836146c3565b905092915050565b600061457e8383614cf6565b60208301905092915050565b61459381615239565b82525050565b6145a281615239565b82525050565b60006145b3826151af565b6145bd81856151f5565b9350836020820285016145cf8561518f565b8060005b8581101561460b57848403895281516145ec858261455e565b94506145f7836151db565b925060208a019950506001810190506145d3565b50829750879550505050505092915050565b6000614628826151ba565b6146328185615206565b935061463d8361519f565b8060005b8381101561466e5781516146558882614572565b9750614660836151e8565b925050600181019050614641565b5085935050505092915050565b6146848161524b565b82525050565b6000614695826151d0565b61469f8185615228565b93506146af818560208601615290565b6146b8816152c3565b840191505092915050565b60006146ce826151c5565b6146d88185615217565b93506146e8818560208601615290565b6146f1816152c3565b840191505092915050565b6000614709601983615228565b91507f4f6e6c7920617574686f726973656420616464726573736564000000000000006000830152602082019050919050565b6000614749602183615228565b91507f416c7265616479207265676973746572656420617320616e20686f737069746160008301527f6c000000000000000000000000000000000000000000000000000000000000006020830152604082019050919050565b60006147af600a83615228565b91507f4f6e6c79206f776e6572000000000000000000000000000000000000000000006000830152602082019050919050565b60006147ef601883615228565b91507f596f752061726520616c726561647920616e2061646d696e00000000000000006000830152602082019050919050565b600061482f601a83615228565b91507f4f6e6c7920686f73706974616c732061726520616c6c6f7765640000000000006000830152602082019050919050565b600061486f600f83615228565b91507f4e6f207265636f726420666f756e6400000000000000000000000000000000006000830152602082019050919050565b60006148af601983615228565b91507f596f7520617265206e6f742061646d696e20616c7265616479000000000000006000830152602082019050919050565b60006148ef601b83615228565b91507f4f7267616e697a6174696f6e20616c72656164792065786973747300000000006000830152602082019050919050565b600061492f601683615228565b91507f416c7265616479206e6f7420617574686f7269736564000000000000000000006000830152602082019050919050565b600061496f602383615228565b91507f4f776e65722063616e6e6f742062652072656d6f76656420617320616e20616460008301527f6d696e00000000000000000000000000000000000000000000000000000000006020830152604082019050919050565b60006149d5601783615228565b91507f4e6f207375636820686f73706974616c206578697374730000000000000000006000830152602082019050919050565b6000614a15601583615228565b91507f4e6f20737563682070617469656e7420666f756e6400000000000000000000006000830152602082019050919050565b6000614a55601a83615228565b91507f5468652070617469656e7420646f6573206e6f742065786973740000000000006000830152602082019050919050565b6000614a95601a83615228565b91507f4e6f2073756368206f7267616e697a6174696f6e20666f756e640000000000006000830152602082019050919050565b6000614ad5600a83615228565b91507f4f6e6c792041646d696e000000000000000000000000000000000000000000006000830152602082019050919050565b6000614b15601b83615228565b91507f4e6f2073756368206f7267616e697a6174696f6e2065786973747300000000006000830152602082019050919050565b6000614b55601783615228565b91507f4f6e6c792070617469656e7420697320616c6c6f7765640000000000000000006000830152602082019050919050565b6000614b95601683615228565b91507f50617469656e7420616c726561647920657869737473000000000000000000006000830152602082019050919050565b6000614bd5601983615228565b91507f596f752061726520746865206f776e657220616c7265616479000000000000006000830152602082019050919050565b600060a083016000830151614c206000860182614cf6565b5060208301518482036020860152614c3882826146c3565b91505060408301518482036040860152614c5282826146c3565b9150506060830151614c67606086018261458a565b5060808301518482036080860152614c7f82826146c3565b9150508091505092915050565b6000608083016000830151614ca46000860182614cf6565b5060208301518482036020860152614cbc82826146c3565b9150506040830151614cd1604086018261458a565b5060608301518482036060860152614ce982826146c3565b9150508091505092915050565b614cff81615277565b82525050565b614d0e81615277565b82525050565b6000602082019050614d296000830184614599565b92915050565b600060a0820190508181036000830152614d49818861461d565b90508181036020830152614d5d81876145a8565b90508181036040830152614d7181866145a8565b90508181036060830152614d8581856145a8565b90508181036080830152614d9981846145a8565b90509695505050505050565b6000602082019050614dba600083018461467b565b92915050565b60006020820190508181036000830152614dd9816146fc565b9050919050565b60006020820190508181036000830152614df98161473c565b9050919050565b60006020820190508181036000830152614e19816147a2565b9050919050565b60006020820190508181036000830152614e39816147e2565b9050919050565b60006020820190508181036000830152614e5981614822565b9050919050565b60006020820190508181036000830152614e7981614862565b9050919050565b60006020820190508181036000830152614e99816148a2565b9050919050565b60006020820190508181036000830152614eb9816148e2565b9050919050565b60006020820190508181036000830152614ed981614922565b9050919050565b60006020820190508181036000830152614ef981614962565b9050919050565b60006020820190508181036000830152614f19816149c8565b9050919050565b60006020820190508181036000830152614f3981614a08565b9050919050565b60006020820190508181036000830152614f5981614a48565b9050919050565b60006020820190508181036000830152614f7981614a88565b9050919050565b60006020820190508181036000830152614f9981614ac8565b9050919050565b60006020820190508181036000830152614fb981614b08565b9050919050565b60006020820190508181036000830152614fd981614b48565b9050919050565b60006020820190508181036000830152614ff981614b88565b9050919050565b6000602082019050818103600083015261501981614bc8565b9050919050565b6000602082019050818103600083015261503a8184614c08565b905092915050565b6000602082019050818103600083015261505c8184614c8c565b905092915050565b60006020820190506150796000830184614d05565b92915050565b600061012082019050615095600083018c614d05565b81810360208301526150a7818b61468a565b905081810360408301526150bb818a61468a565b905081810360608301526150cf818961468a565b905081810360808301526150e3818861468a565b90506150f260a0830187614d05565b81810360c0830152615104818661468a565b905081810360e0830152615118818561468a565b9050615128610100830184614599565b9a9950505050505050505050565b6000604051905081810181811067ffffffffffffffff8211171561515957600080fd5b8060405250919050565b600067ffffffffffffffff82111561517a57600080fd5b601f19601f8301169050602081019050919050565b6000819050602082019050919050565b6000819050602082019050919050565b600081519050919050565b600081519050919050565b600081519050919050565b600081519050919050565b6000602082019050919050565b6000602082019050919050565b600082825260208201905092915050565b600082825260208201905092915050565b600082825260208201905092915050565b600082825260208201905092915050565b600061524482615257565b9050919050565b60008115159050919050565b600073ffffffffffffffffffffffffffffffffffffffff82169050919050565b6000819050919050565b82818337600083830152505050565b60005b838110156152ae578082015181840152602081019050615293565b838111156152bd576000848401525b50505050565b6000601f19601f8301169050919050565b6152dd81615239565b81146152e857600080fd5b50565b6152f481615277565b81146152ff57600080fd5b5056fea365627a7a723158203ae04ec255e25e637edbc8391a15fa7744e448db1299d324dcd29f3fa7eb2ac86c6578706572696d656e74616cf564736f6c63430005100040",
  "source": "// SPDX-License-Identifier: MIT\npragma solidity >=0.4.22 <0.9.0;\npragma experimental ABIEncoderV2;\n\nimport {Ownable} from \"./Ownable.sol\";\n\ncontract DMed is Ownable {\n    struct Hospital {\n        uint256 id;\n        string name;\n        string physicalAddress;\n        address walletAddress;\n        string License;\n    }\n\n    struct Record {\n        uint256 id;\n        uint256 hospitalId;\n        uint256 patientId;\n        string condition;\n        string description;\n        string allergies;\n        string Document;\n    }\n\n    struct Patient {\n        uint256 id;\n        string name;\n        string gender;\n        string bloodGroup;\n        string DOB;\n        uint256 phoneNumber;\n        uint256[] records;\n        string physicalAddress;\n        string profilePicture;\n        address walletAddress;\n    }\n\n    struct Organization {\n        uint256 id;\n        string name;\n        address walletAddress;\n        string License;\n    }\n\n    uint256 public hospitalId = 1;\n    uint256 public recordId = 1;\n    uint256 public organizationId = 1;\n\n    // to map hospitalId to Hospital Struct\n    mapping(uint256 => Hospital) private hospitals;\n\n    // mapping to check if an address is already a registered hospital or not\n    mapping(address => uint256) private hospitalToId;\n\n    // to map medical record id to Record struct\n    mapping(uint256 => Record) private records;\n\n    // to map paitentId to Patient Struct\n    mapping(uint256 => Patient) private patients;\n\n    // mapping from patient address to patient id\n    mapping(address => uint256) private patientToId;\n\n    // to map government authorities Authorities Struct\n    mapping(uint256 => Organization) private organizations;\n\n    // mapping from organization address to id\n    mapping(address => uint256) private organizationToId;\n\n    // nested mapping of (patientId) => ((address of authority)) => (isAuthorised ?))\n    mapping(uint256 => mapping(address => bool)) private authorised;\n\n    /*\n        - function to get the address of the owner\n        - no restriction in the access\n        - returns the address of the current owner\n    */\n    function getOwner() public view returns (address) {\n        return owner;\n    }\n\n    /*\n        - function to check if the given address is an admin or not\n        - no restriction in the access\n        - returns true or false.\n    */\n    function isAdmin(address _admin) public view returns (bool) {\n        return admin[_admin];\n    }\n\n    /* \n        - function to add new hospitals. \n        - Callable by only admins. \n        - receive name of hospital, address of hosptial, wallet of hospital, and IPFS Hash of document\n        - emits an event for adding new hospital\n    */\n    function addHospital(\n        string memory name,\n        string memory physicalAddress,\n        address walletAddress,\n        string memory license\n    ) public onlyAdmin {\n        require(\n            hospitalToId[walletAddress] == 0,\n            \"Already registered as an hospital\"\n        );\n        hospitals[hospitalId] = Hospital(\n            hospitalId,\n            name,\n            physicalAddress,\n            walletAddress,\n            license\n        );\n        hospitalToId[walletAddress] = hospitalId;\n        hospitalId++;\n    }\n\n    /*\n        - function to get hopital with the given id\n        - check if any hosptial exists with the given Id\n        - If the hosptial exists then we return it \n    */\n    function getHospitalById(uint256 _id)\n        public\n        view\n        returns (Hospital memory)\n    {\n        require(hospitals[_id].id != 0, \"No such hospital exists\");\n        Hospital memory hosp = hospitals[_id];\n        return hosp;\n    }\n\n    /*\n        - function to get hopital having the specified address\n        - firstly checks if the given address exists in the mapping from hospitalAddress to Id\n        - now we check if any hosptial exists with the returned Id\n        - If the hosptial exists then we return it \n    */\n    function getHospitalByAddress(address _address)\n        public\n        view\n        returns (Hospital memory)\n    {\n        require(hospitalToId[_address] != 0, \"No such hospital exists\");\n        uint256 _id = hospitalToId[_address];\n        require(hospitals[_id].id != 0, \"No such hospital exists\");\n        Hospital memory hosp = hospitals[_id];\n        return hosp;\n    }\n\n    /*\n        - function to add new records of an existing patient.\n        - if the patient already exists then we make a new Record variable\n        - map the created record to its recordId\n        - add the recordId to the list of records of the patient\n        - increment the recordId\n    */\n    function addNewRecord(\n        uint256 _hospitalId,\n        uint256 _patientId,\n        string memory _condition,\n        string memory _description,\n        string memory _allergies,\n        string memory _document\n    ) public onlyHospital {\n        require(patients[_patientId].id != 0, \"The patient does not exist\");\n        Record memory rec = Record(\n            recordId,\n            _hospitalId,\n            _patientId,\n            _condition,\n            _description,\n            _allergies,\n            _document\n        );\n        records[recordId] = rec;\n        patients[_patientId].records.push(recordId);\n        recordId++;\n    }\n\n    // /*\n    //     - this is a developer function\n    //     - not meant to be present on the production contract\n    //     - returns the record mapped to its id\n    // */\n    // function getRecordById(uint _id)public view returns(Record memory) {\n    //     require(records[_id].id != 0,\"Record does not exist\");\n    //     return records[_id];\n    // }\n\n    /*\n        - function to add new patients\n        - we check if the given patient id aleady exists\n        - if does not exist then we make a new Patient varible\n        - add the constructed varible to patients mapping\n        - add the patientId to the mapping of patient address to patient Id\n    */\n    function addNewPatient(\n        uint256 _id,\n        string memory _name,\n        string memory _gender,\n        string memory _bloodGroup,\n        string memory _dob,\n        uint256 _phoneNumber,\n        string memory _physicalAddress,\n        string memory _profilePicture,\n        address _walletAddress\n    ) public onlyHospital {\n        require(patients[_id].id == 0, \"Patient already exists\");\n        uint256[] memory _records;\n        patientToId[_walletAddress] = _id;\n        patients[_id] = Patient(\n            _id,\n            _name,\n            _gender,\n            _bloodGroup,\n            _dob,\n            _phoneNumber,\n            _records,\n            _physicalAddress,\n            _profilePicture,\n            _walletAddress\n        );\n    }\n\n    /* \n        - function to add new organizations. \n        - Callable by only admins. \n        - receive name of organiation, _walletAddress of organization, and IPFS Hash of document\n    */\n    function addOrganization(\n        string memory _name,\n        address _walletAddress,\n        string memory _license\n    ) public onlyAdmin {\n        require(\n            organizationToId[_walletAddress] == 0,\n            \"Organization already exists\"\n        );\n        organizations[organizationId] = Organization(\n            organizationId,\n            _name,\n            _walletAddress,\n            _license\n        );\n        organizationToId[_walletAddress] = organizationId;\n\n        organizationId++;\n    }\n\n    /*\n        - function to get organization with the given id\n        - check if any organization exists with the given Id\n        - If the organization exists then we return it \n    */\n    function getOrganizationById(uint256 _id)\n        public\n        view\n        returns (Organization memory)\n    {\n        require(organizations[_id].id != 0, \"No such organization exists\");\n        return organizations[_id];\n    }\n\n    /*\n        - function to get organization having the specified address\n        - firstly checks if the given address exists in the mapping from organizationAddress to Id\n        - now we check if any organization exists with the returned Id\n        - If the organization exists then we return it \n    */\n    function getOrganizationByAddress(address _addr)\n        public\n        view\n        returns (Organization memory)\n    {\n        uint256 _id = organizationToId[_addr];\n        require(\n            _id != 0 && organizations[_id].id != 0,\n            \"No such organization exists\"\n        );\n        return organizations[_id];\n    }\n\n    /*\n        - function to give access authority to addresses\n        - message sender must be the patient\n        - if all condition pass add id of patient and address to authorised mapping\n    */\n    function addAuthByAddress(address addr) public onlyPatient {\n        uint256 _id = patientToId[msg.sender];\n        authorised[_id][addr] = true;\n    }\n\n    /*\n        - function to give access authority to an organization\n        - message sender must be the patient\n        - firstly check if organization with the given id exist or not\n        - if all conditions pass add id of patient and address of the organization to the mapping\n    */\n    function addAuthById(uint256 _id) public onlyPatient {\n        Organization memory org = organizations[_id];\n        require(org.id != 0, \"No such organization found\");\n        uint256 patientId = patientToId[msg.sender];\n        authorised[patientId][org.walletAddress] = true;\n    }\n\n    /*\n        - function to remove access rights from some address\n        - message sender must be the patient\n        - check if the given address has the access authorities\n        - if all conditions check, remove the mapping of id and address\n    */\n    function revokeAuthByAddress(address addr) public onlyPatient {\n        uint256 _id = patientToId[msg.sender];\n        require(authorised[_id][addr] == true, \"Already not authorised\");\n\n        authorised[_id][addr] = false;\n    }\n\n    /*\n        - function to remove access authority from an organization\n        - message sender must be the patient\n        - check if the given organization exists or not\n        - check if the given organization has the access authorities\n        - if all conditions check, remove the mapping of id and address\n    */\n    function revokeAuthById(uint256 _id) public onlyPatient {\n        Organization memory org = organizations[_id];\n        require(org.id != 0, \"No such organization found\");\n        uint256 patientId = patientToId[msg.sender];\n\n        require(\n            authorised[patientId][org.walletAddress] == true,\n            \"Already not authorised\"\n        );\n        authorised[patientId][org.walletAddress] = false;\n    }\n\n    /*\n        - function to get the details of the patient \n        - this function is callable by either a hospital or an authorised address\n        - we check if the given id is a valid patient or not\n        - if all checks pass, we return all the data of the patient except list of its records\n    */\n    function getPatientDetails(uint256 _id)\n        public\n        view\n        onlyAuthorised(_id)\n        returns (\n            uint256,\n            string memory,\n            string memory,\n            string memory,\n            string memory,\n            uint256,\n            string memory,\n            string memory,\n            address\n        )\n    {\n        require(_id != 0 && patients[_id].id != 0, \"No such patient found\");\n        Patient memory pat = patients[_id];\n        return (\n            pat.id,\n            pat.name,\n            pat.gender,\n            pat.bloodGroup,\n            pat.DOB,\n            pat.phoneNumber,\n            pat.physicalAddress,\n            pat.profilePicture,\n            pat.walletAddress\n        );\n    }\n\n    /*\n        - function to get all the records of the given patient\n        - this function is callable by only either a registered hospital or an authorised address or the patient itself\n        - it checks if the patient with the given id exists or not\n        - it checks if the number of records of the given patient is greater than 0 or not\n        - we create an array for each of the attributes\n        - we return all the attributes except patientId and records own id\n        - loop through all the records in the recordId array of the patient and fill the array as specified\n        - return all the filled arrays\n    */\n    function getPatientRecords(uint256 _id)\n        public\n        view\n        onlyAuthorised(_id)\n        returns (\n            uint256[] memory,\n            string[] memory,\n            string[] memory,\n            string[] memory,\n            string[] memory\n        )\n    {\n        Patient memory patient = patients[_id];\n        require(_id != 0 && patient.id != 0, \"No such patient found\");\n        require(patient.records.length > 0, \"No record found\");\n\n        uint256 len = patient.records.length;\n        uint256[] memory rec = patient.records;\n\n        uint256[] memory hosId = new uint256[](len);\n        string[] memory cond = new string[](len);\n        string[] memory desc = new string[](len);\n        string[] memory aller = new string[](len);\n        string[] memory docs = new string[](len);\n\n        for (uint256 i = 0; i < rec.length; i++) {\n            Record memory curr = records[rec[i]];\n            hosId[i] = curr.hospitalId;\n            cond[i] = curr.condition;\n            desc[i] = curr.description;\n            aller[i] = curr.allergies;\n            docs[i] = curr.Document;\n        }\n\n        return (hosId, cond, desc, aller, docs);\n    }\n\n    modifier onlyAuthorised(uint256 _id) {\n        uint256 hosId = hospitalToId[msg.sender];\n        require(\n            (authorised[_id][msg.sender] == true) ||\n                (hosId != 0 && hospitals[hosId].id != 0) ||\n                (_id != 0 && patients[_id].walletAddress == msg.sender),\n            \"Only authorised addressed\"\n        );\n        _;\n    }\n\n    modifier onlyPatient() {\n        uint256 _id = patientToId[msg.sender];\n        require(_id != 0 && patients[_id].id != 0, \"Only patient is allowed\");\n        _;\n    }\n\n    modifier onlyHospital() {\n        uint256 _id = hospitalToId[msg.sender];\n        require(\n            _id != 0 && hospitals[_id].id != 0,\n            \"Only hospitals are allowed\"\n        );\n        _;\n    }\n}\n",
  "sourcePath": "C:\\Users\\priya\\OneDrive\\Desktop\\Projects\\Decentralized Medical Record\\Contract + Client\\contracts\\DMed.sol",
  "compiler": {
    "name": "solc",
    "version": "0.5.16+commit.9c3226ce.Emscripten.clang"
  },
  "schemaVersion": "3.4.3",
  "updatedAt": "2021-11-25T17:21:31.248Z",
  "networkType": "ethereum",
  "devdoc": {
    "methods": {}
  },
  "userdoc": {
    "methods": {}
  }
}