{
  "contractName": "DMed",
  "abi": [
    {
      "anonymous": false,
      "inputs": [
        {
          "indexed": true,
          "internalType": "address",
          "name": "Admin_Address",
          "type": "address"
        }
      ],
      "name": "AdminAdded",
      "type": "event"
    },
    {
      "anonymous": false,
      "inputs": [
        {
          "indexed": true,
          "internalType": "address",
          "name": "Admin_Address",
          "type": "address"
        }
      ],
      "name": "AdminRemoved",
      "type": "event"
    },
    {
      "anonymous": false,
      "inputs": [
        {
          "indexed": true,
          "internalType": "address",
          "name": "_from",
          "type": "address"
        },
        {
          "indexed": true,
          "internalType": "address",
          "name": "_to",
          "type": "address"
        }
      ],
      "name": "OwnerChanged",
      "type": "event"
    },
    {
      "constant": false,
      "inputs": [
        {
          "internalType": "address",
          "name": "_admin",
          "type": "address"
        }
      ],
      "name": "addAdmin",
      "outputs": [
        {
          "internalType": "bool",
          "name": "",
          "type": "bool"
        }
      ],
      "payable": false,
      "stateMutability": "nonpayable",
      "type": "function"
    },
    {
      "constant": false,
      "inputs": [
        {
          "internalType": "address",
          "name": "_newOwner",
          "type": "address"
        }
      ],
      "name": "changeOwner",
      "outputs": [
        {
          "internalType": "bool",
          "name": "",
          "type": "bool"
        }
      ],
      "payable": false,
      "stateMutability": "nonpayable",
      "type": "function"
    },
    {
      "constant": true,
      "inputs": [],
      "name": "hospitalId",
      "outputs": [
        {
          "internalType": "uint256",
          "name": "",
          "type": "uint256"
        }
      ],
      "payable": false,
      "stateMutability": "view",
      "type": "function"
    },
    {
      "constant": true,
      "inputs": [],
      "name": "organizationId",
      "outputs": [
        {
          "internalType": "uint256",
          "name": "",
          "type": "uint256"
        }
      ],
      "payable": false,
      "stateMutability": "view",
      "type": "function"
    },
    {
      "constant": true,
      "inputs": [],
      "name": "recordId",
      "outputs": [
        {
          "internalType": "uint256",
          "name": "",
          "type": "uint256"
        }
      ],
      "payable": false,
      "stateMutability": "view",
      "type": "function"
    },
    {
      "constant": false,
      "inputs": [
        {
          "internalType": "address",
          "name": "_admin",
          "type": "address"
        }
      ],
      "name": "removeAdmin",
      "outputs": [
        {
          "internalType": "bool",
          "name": "",
          "type": "bool"
        }
      ],
      "payable": false,
      "stateMutability": "nonpayable",
      "type": "function"
    },
    {
      "constant": false,
      "inputs": [
        {
          "internalType": "bytes32",
          "name": "name",
          "type": "bytes32"
        },
        {
          "internalType": "string",
          "name": "physicalAddress",
          "type": "string"
        },
        {
          "internalType": "address",
          "name": "walletAddress",
          "type": "address"
        },
        {
          "internalType": "bytes32",
          "name": "license",
          "type": "bytes32"
        }
      ],
      "name": "addHospital",
      "outputs": [],
      "payable": false,
      "stateMutability": "nonpayable",
      "type": "function"
    },
    {
      "constant": true,
      "inputs": [
        {
          "internalType": "uint256",
          "name": "_id",
          "type": "uint256"
        }
      ],
      "name": "getHospitalById",
      "outputs": [
        {
          "components": [
            {
              "internalType": "uint256",
              "name": "id",
              "type": "uint256"
            },
            {
              "internalType": "bytes32",
              "name": "name",
              "type": "bytes32"
            },
            {
              "internalType": "string",
              "name": "physicalAddress",
              "type": "string"
            },
            {
              "internalType": "address",
              "name": "walletAddress",
              "type": "address"
            },
            {
              "internalType": "bytes32",
              "name": "License",
              "type": "bytes32"
            }
          ],
          "internalType": "struct DMed.Hospital",
          "name": "",
          "type": "tuple"
        }
      ],
      "payable": false,
      "stateMutability": "view",
      "type": "function"
    },
    {
      "constant": true,
      "inputs": [
        {
          "internalType": "address",
          "name": "_address",
          "type": "address"
        }
      ],
      "name": "getHosptialByAddress",
      "outputs": [
        {
          "components": [
            {
              "internalType": "uint256",
              "name": "id",
              "type": "uint256"
            },
            {
              "internalType": "bytes32",
              "name": "name",
              "type": "bytes32"
            },
            {
              "internalType": "string",
              "name": "physicalAddress",
              "type": "string"
            },
            {
              "internalType": "address",
              "name": "walletAddress",
              "type": "address"
            },
            {
              "internalType": "bytes32",
              "name": "License",
              "type": "bytes32"
            }
          ],
          "internalType": "struct DMed.Hospital",
          "name": "",
          "type": "tuple"
        }
      ],
      "payable": false,
      "stateMutability": "view",
      "type": "function"
    },
    {
      "constant": false,
      "inputs": [
        {
          "internalType": "uint256",
          "name": "_hospitalId",
          "type": "uint256"
        },
        {
          "internalType": "uint256",
          "name": "_patientId",
          "type": "uint256"
        },
        {
          "internalType": "string",
          "name": "_condition",
          "type": "string"
        },
        {
          "internalType": "string",
          "name": "_description",
          "type": "string"
        },
        {
          "internalType": "string",
          "name": "_allergies",
          "type": "string"
        },
        {
          "internalType": "bytes32",
          "name": "_document",
          "type": "bytes32"
        }
      ],
      "name": "addNewRecord",
      "outputs": [],
      "payable": false,
      "stateMutability": "nonpayable",
      "type": "function"
    },
    {
      "constant": false,
      "inputs": [
        {
          "internalType": "uint256",
          "name": "_id",
          "type": "uint256"
        },
        {
          "internalType": "bytes32",
          "name": "_name",
          "type": "bytes32"
        },
        {
          "internalType": "bytes32",
          "name": "_gender",
          "type": "bytes32"
        },
        {
          "internalType": "bytes32",
          "name": "_bloodGroup",
          "type": "bytes32"
        },
        {
          "internalType": "bytes32",
          "name": "_dob",
          "type": "bytes32"
        },
        {
          "internalType": "uint256",
          "name": "_phoneNumber",
          "type": "uint256"
        },
        {
          "internalType": "string",
          "name": "_physicalAddress",
          "type": "string"
        },
        {
          "internalType": "bytes32",
          "name": "_profilePicture",
          "type": "bytes32"
        },
        {
          "internalType": "address",
          "name": "_walletAddress",
          "type": "address"
        }
      ],
      "name": "addNewPatient",
      "outputs": [],
      "payable": false,
      "stateMutability": "nonpayable",
      "type": "function"
    },
    {
      "constant": false,
      "inputs": [
        {
          "internalType": "bytes32",
          "name": "_name",
          "type": "bytes32"
        },
        {
          "internalType": "address",
          "name": "_walletAddress",
          "type": "address"
        },
        {
          "internalType": "bytes32",
          "name": "_license",
          "type": "bytes32"
        }
      ],
      "name": "addOrganization",
      "outputs": [],
      "payable": false,
      "stateMutability": "nonpayable",
      "type": "function"
    },
    {
      "constant": false,
      "inputs": [
        {
          "internalType": "address",
          "name": "addr",
          "type": "address"
        }
      ],
      "name": "addAuthByAddress",
      "outputs": [],
      "payable": false,
      "stateMutability": "nonpayable",
      "type": "function"
    },
    {
      "constant": false,
      "inputs": [
        {
          "internalType": "uint256",
          "name": "_id",
          "type": "uint256"
        }
      ],
      "name": "addAuthById",
      "outputs": [],
      "payable": false,
      "stateMutability": "nonpayable",
      "type": "function"
    },
    {
      "constant": false,
      "inputs": [
        {
          "internalType": "address",
          "name": "addr",
          "type": "address"
        }
      ],
      "name": "revokeAuthByAddress",
      "outputs": [],
      "payable": false,
      "stateMutability": "nonpayable",
      "type": "function"
    },
    {
      "constant": false,
      "inputs": [
        {
          "internalType": "uint256",
          "name": "_id",
          "type": "uint256"
        }
      ],
      "name": "revokeAuthById",
      "outputs": [],
      "payable": false,
      "stateMutability": "nonpayable",
      "type": "function"
    },
    {
      "constant": true,
      "inputs": [
        {
          "internalType": "uint256",
          "name": "_id",
          "type": "uint256"
        }
      ],
      "name": "getPatientDetails",
      "outputs": [
        {
          "internalType": "uint256",
          "name": "",
          "type": "uint256"
        },
        {
          "internalType": "bytes32",
          "name": "",
          "type": "bytes32"
        },
        {
          "internalType": "bytes32",
          "name": "",
          "type": "bytes32"
        },
        {
          "internalType": "bytes32",
          "name": "",
          "type": "bytes32"
        },
        {
          "internalType": "bytes32",
          "name": "",
          "type": "bytes32"
        },
        {
          "internalType": "uint256",
          "name": "",
          "type": "uint256"
        },
        {
          "internalType": "string",
          "name": "",
          "type": "string"
        },
        {
          "internalType": "bytes32",
          "name": "",
          "type": "bytes32"
        },
        {
          "internalType": "address",
          "name": "",
          "type": "address"
        }
      ],
      "payable": false,
      "stateMutability": "view",
      "type": "function"
    },
    {
      "constant": true,
      "inputs": [
        {
          "internalType": "uint256",
          "name": "_id",
          "type": "uint256"
        }
      ],
      "name": "getPatientRecords",
      "outputs": [
        {
          "internalType": "uint256[]",
          "name": "",
          "type": "uint256[]"
        },
        {
          "internalType": "string[]",
          "name": "",
          "type": "string[]"
        },
        {
          "internalType": "string[]",
          "name": "",
          "type": "string[]"
        },
        {
          "internalType": "string[]",
          "name": "",
          "type": "string[]"
        },
        {
          "internalType": "bytes32[]",
          "name": "",
          "type": "bytes32[]"
        }
      ],
      "payable": false,
      "stateMutability": "view",
      "type": "function"
    }
  ],
  "bytecode": "0x6080604052600160025560016003556001600455336000806101000a81548173ffffffffffffffffffffffffffffffffffffffff021916908373ffffffffffffffffffffffffffffffffffffffff16021790555060018060003373ffffffffffffffffffffffffffffffffffffffff1673ffffffffffffffffffffffffffffffffffffffff16815260200190815260200160002060006101000a81548160ff021916908315150217905550613eac806100b96000396000f3fe608060405234801561001057600080fd5b50600436106101165760003560e01c806399a173a9116100a2578063baf1da2d11610071578063baf1da2d146102f5578063c471dc3a14610311578063d116682d1461032f578063dce7e8431461035f578063f7dfe22b1461039357610116565b806399a173a91461026f5780639d2d428e1461028b578063a6f9dae1146102a9578063a6ffdc3d146102d957610116565b806344125aa6116100e957806344125aa6146101bb57806370480275146101eb5780637516455c1461021b57806375d884141461023757806383ce80e11461025357610116565b80631785f53c1461011b5780631f3f40561461014b578063300c601c146101675780633a64e7cb1461019f575b600080fd5b61013560048036036101309190810190612de4565b6103b1565b60405161014291906138f7565b60405180910390f35b61016560048036036101609190810190612e5c565b610609565b005b610181600480360361017c9190810190612ed7565b610855565b60405161019699989796959493929190613baf565b60405180910390f35b6101b960048036036101b49190810190612e0d565b610bf5565b005b6101d560048036036101d09190810190612ed7565b610e1d565b6040516101e29190613b72565b60405180910390f35b61020560048036036102009190810190612de4565b610fc6565b60405161021291906138f7565b60405180910390f35b61023560048036036102309190810190612ed7565b61118d565b005b610251600480360361024c9190810190612de4565b61147b565b005b61026d60048036036102689190810190612de4565b61167c565b005b61028960048036036102849190810190612f00565b6117d9565b005b610293611a77565b6040516102a09190613b94565b60405180910390f35b6102c360048036036102be9190810190612de4565b611a7d565b6040516102d091906138f7565b60405180910390f35b6102f360048036036102ee9190810190612fde565b611c62565b005b61030f600480360361030a9190810190612ed7565b611e9c565b005b6103196120e2565b6040516103269190613b94565b60405180910390f35b61034960048036036103449190810190612de4565b6120e8565b6040516103569190613b72565b60405180910390f35b61037960048036036103749190810190612ed7565b612359565b60405161038a959493929190613881565b60405180910390f35b61039b612b12565b6040516103a89190613b94565b60405180910390f35b60008060009054906101000a900473ffffffffffffffffffffffffffffffffffffffff1673ffffffffffffffffffffffffffffffffffffffff163373ffffffffffffffffffffffffffffffffffffffff1614610442576040517f08c379a000000000000000000000000000000000000000000000000000000000815260040161043990613952565b60405180910390fd5b60011515600160008473ffffffffffffffffffffffffffffffffffffffff1673ffffffffffffffffffffffffffffffffffffffff16815260200190815260200160002060009054906101000a900460ff161515146104d5576040517f08c379a00000000000000000000000000000000000000000000000000000000081526004016104cc906139d2565b60405180910390fd5b6000809054906101000a900473ffffffffffffffffffffffffffffffffffffffff1673ffffffffffffffffffffffffffffffffffffffff168273ffffffffffffffffffffffffffffffffffffffff161415610565576040517f08c379a000000000000000000000000000000000000000000000000000000000815260040161055c90613a32565b60405180910390fd5b6000600160008473ffffffffffffffffffffffffffffffffffffffff1673ffffffffffffffffffffffffffffffffffffffff16815260200190815260200160002060006101000a81548160ff0219169083151502179055508173ffffffffffffffffffffffffffffffffffffffff167fa3b62bc36326052d97ea62d63c3d60308ed4c3ea8ac079dd8499f1e9c4f80c0f60405160405180910390a260019050919050565b60011515600160003373ffffffffffffffffffffffffffffffffffffffff1673ffffffffffffffffffffffffffffffffffffffff16815260200190815260200160002060009054906101000a900460ff1615151461069c576040517f08c379a000000000000000000000000000000000000000000000000000000000815260040161069390613ad2565b60405180910390fd5b6000600660008473ffffffffffffffffffffffffffffffffffffffff1673ffffffffffffffffffffffffffffffffffffffff168152602001908152602001600020541461071e576040517f08c379a000000000000000000000000000000000000000000000000000000000815260040161071590613932565b60405180910390fd5b6040518060a0016040528060025481526020018581526020018481526020018373ffffffffffffffffffffffffffffffffffffffff16815260200182815250600560006002548152602001908152602001600020600082015181600001556020820151816001015560408201518160020190805190602001906107a2929190612b18565b5060608201518160030160006101000a81548173ffffffffffffffffffffffffffffffffffffffff021916908373ffffffffffffffffffffffffffffffffffffffff16021790555060808201518160040155905050600254600660008473ffffffffffffffffffffffffffffffffffffffff1673ffffffffffffffffffffffffffffffffffffffff1681526020019081526020016000208190555060026000815480929190600101919050555050505050565b6000806000806000806060600080896000600660003373ffffffffffffffffffffffffffffffffffffffff1673ffffffffffffffffffffffffffffffffffffffff16815260200190815260200160002054905060011515600c600084815260200190815260200160002060003373ffffffffffffffffffffffffffffffffffffffff1673ffffffffffffffffffffffffffffffffffffffff16815260200190815260200160002060009054906101000a900460ff161515148061093c57506000811415801561093b57506000600560008381526020019081526020016000206000015414155b5b61097b576040517f08c379a000000000000000000000000000000000000000000000000000000000815260040161097290613912565b60405180910390fd5b60008c141580156109a357506000600860008e81526020019081526020016000206000015414155b6109e2576040517f08c379a00000000000000000000000000000000000000000000000000000000081526004016109d990613a72565b60405180910390fd5b6109ea612b98565b600860008e81526020019081526020016000206040518061014001604052908160008201548152602001600182015481526020016002820154815260200160038201548152602001600482015481526020016005820154815260200160068201805480602002602001604051908101604052809291908181526020018280548015610a9457602002820191906000526020600020905b815481526020019060010190808311610a80575b50505050508152602001600782018054600181600116156101000203166002900480601f016020809104026020016040519081016040528092919081815260200182805460018160011615610100020316600290048015610b365780601f10610b0b57610100808354040283529160200191610b36565b820191906000526020600020905b815481529060010190602001808311610b1957829003601f168201915b50505050508152602001600882015481526020016009820160009054906101000a900473ffffffffffffffffffffffffffffffffffffffff1673ffffffffffffffffffffffffffffffffffffffff1673ffffffffffffffffffffffffffffffffffffffff16815250509050806000015181602001518260400151836060015184608001518560a001518660e001518761010001518861012001518292509b509b509b509b509b509b509b509b509b505050509193959799909294969850565b60011515600160003373ffffffffffffffffffffffffffffffffffffffff1673ffffffffffffffffffffffffffffffffffffffff16815260200190815260200160002060009054906101000a900460ff16151514610c88576040517f08c379a0000000000000000000000000000000000000000000000000000000008152600401610c7f90613ad2565b60405180910390fd5b6000600b60008473ffffffffffffffffffffffffffffffffffffffff1673ffffffffffffffffffffffffffffffffffffffff1681526020019081526020016000205414610d0a576040517f08c379a0000000000000000000000000000000000000000000000000000000008152600401610d01906139f2565b60405180910390fd5b604051806080016040528060045481526020018481526020018373ffffffffffffffffffffffffffffffffffffffff16815260200182815250600a60006004548152602001908152602001600020600082015181600001556020820151816001015560408201518160020160006101000a81548173ffffffffffffffffffffffffffffffffffffffff021916908373ffffffffffffffffffffffffffffffffffffffff16021790555060608201518160030155905050600454600b60008473ffffffffffffffffffffffffffffffffffffffff1673ffffffffffffffffffffffffffffffffffffffff16815260200190815260200160002081905550600460008154809291906001019190505550505050565b610e25612c10565b600060056000848152602001908152602001600020600001541415610e7f576040517f08c379a0000000000000000000000000000000000000000000000000000000008152600401610e7690613a52565b60405180910390fd5b610e87612c10565b600560008481526020019081526020016000206040518060a00160405290816000820154815260200160018201548152602001600282018054600181600116156101000203166002900480601f016020809104026020016040519081016040528092919081815260200182805460018160011615610100020316600290048015610f525780601f10610f2757610100808354040283529160200191610f52565b820191906000526020600020905b815481529060010190602001808311610f3557829003601f168201915b505050505081526020016003820160009054906101000a900473ffffffffffffffffffffffffffffffffffffffff1673ffffffffffffffffffffffffffffffffffffffff1673ffffffffffffffffffffffffffffffffffffffff168152602001600482015481525050905080915050919050565b60008060009054906101000a900473ffffffffffffffffffffffffffffffffffffffff1673ffffffffffffffffffffffffffffffffffffffff163373ffffffffffffffffffffffffffffffffffffffff1614611057576040517f08c379a000000000000000000000000000000000000000000000000000000000815260040161104e90613952565b60405180910390fd5b60001515600160008473ffffffffffffffffffffffffffffffffffffffff1673ffffffffffffffffffffffffffffffffffffffff16815260200190815260200160002060009054906101000a900460ff161515146110ea576040517f08c379a00000000000000000000000000000000000000000000000000000000081526004016110e190613972565b60405180910390fd5b60018060008473ffffffffffffffffffffffffffffffffffffffff1673ffffffffffffffffffffffffffffffffffffffff16815260200190815260200160002060006101000a81548160ff0219169083151502179055508173ffffffffffffffffffffffffffffffffffffffff167f44d6d25963f097ad14f29f06854a01f575648a1ef82f30e562ccd3889717e33960405160405180910390a260019050919050565b6000600960003373ffffffffffffffffffffffffffffffffffffffff1673ffffffffffffffffffffffffffffffffffffffff168152602001908152602001600020549050600081141580156111f957506000600860008381526020019081526020016000206000015414155b611238576040517f08c379a000000000000000000000000000000000000000000000000000000000815260040161122f90613af2565b60405180910390fd5b611240612c5b565b600a600084815260200190815260200160002060405180608001604052908160008201548152602001600182015481526020016002820160009054906101000a900473ffffffffffffffffffffffffffffffffffffffff1673ffffffffffffffffffffffffffffffffffffffff1673ffffffffffffffffffffffffffffffffffffffff168152602001600382015481525050905060008160000151141561131c576040517f08c379a000000000000000000000000000000000000000000000000000000000815260040161131390613ab2565b60405180910390fd5b6000600960003373ffffffffffffffffffffffffffffffffffffffff1673ffffffffffffffffffffffffffffffffffffffff16815260200190815260200160002054905060011515600c60008381526020019081526020016000206000846040015173ffffffffffffffffffffffffffffffffffffffff1673ffffffffffffffffffffffffffffffffffffffff16815260200190815260200160002060009054906101000a900460ff16151514611408576040517f08c379a00000000000000000000000000000000000000000000000000000000081526004016113ff90613a12565b60405180910390fd5b6000600c60008381526020019081526020016000206000846040015173ffffffffffffffffffffffffffffffffffffffff1673ffffffffffffffffffffffffffffffffffffffff16815260200190815260200160002060006101000a81548160ff02191690831515021790555050505050565b6000600960003373ffffffffffffffffffffffffffffffffffffffff1673ffffffffffffffffffffffffffffffffffffffff168152602001908152602001600020549050600081141580156114e757506000600860008381526020019081526020016000206000015414155b611526576040517f08c379a000000000000000000000000000000000000000000000000000000000815260040161151d90613af2565b60405180910390fd5b6000600960003373ffffffffffffffffffffffffffffffffffffffff1673ffffffffffffffffffffffffffffffffffffffff16815260200190815260200160002054905060011515600c600083815260200190815260200160002060008573ffffffffffffffffffffffffffffffffffffffff1673ffffffffffffffffffffffffffffffffffffffff16815260200190815260200160002060009054906101000a900460ff1615151461160e576040517f08c379a000000000000000000000000000000000000000000000000000000000815260040161160590613a12565b60405180910390fd5b6000600c600083815260200190815260200160002060008573ffffffffffffffffffffffffffffffffffffffff1673ffffffffffffffffffffffffffffffffffffffff16815260200190815260200160002060006101000a81548160ff021916908315150217905550505050565b6000600960003373ffffffffffffffffffffffffffffffffffffffff1673ffffffffffffffffffffffffffffffffffffffff168152602001908152602001600020549050600081141580156116e857506000600860008381526020019081526020016000206000015414155b611727576040517f08c379a000000000000000000000000000000000000000000000000000000000815260040161171e90613af2565b60405180910390fd5b6000600960003373ffffffffffffffffffffffffffffffffffffffff1673ffffffffffffffffffffffffffffffffffffffff1681526020019081526020016000205490506001600c600083815260200190815260200160002060008573ffffffffffffffffffffffffffffffffffffffff1673ffffffffffffffffffffffffffffffffffffffff16815260200190815260200160002060006101000a81548160ff021916908315150217905550505050565b6000600660003373ffffffffffffffffffffffffffffffffffffffff1673ffffffffffffffffffffffffffffffffffffffff1681526020019081526020016000205490506000811415801561184557506000600560008381526020019081526020016000206000015414155b611884576040517f08c379a000000000000000000000000000000000000000000000000000000000815260040161187b90613992565b60405180910390fd5b6000600860008c815260200190815260200160002060000154146118dd576040517f08c379a00000000000000000000000000000000000000000000000000000000081526004016118d490613b12565b60405180910390fd5b60606118e7612b98565b6040518061014001604052808d81526020018c81526020018b81526020018a81526020018981526020018881526020018381526020018781526020018681526020018573ffffffffffffffffffffffffffffffffffffffff1681525090508b600960008673ffffffffffffffffffffffffffffffffffffffff1673ffffffffffffffffffffffffffffffffffffffff1681526020019081526020016000208190555080600860008e8152602001908152602001600020600082015181600001556020820151816001015560408201518160020155606082015181600301556080820151816004015560a0820151816005015560c08201518160060190805190602001906119f5929190612c9f565b5060e0820151816007019080519060200190611a12929190612b18565b5061010082015181600801556101208201518160090160006101000a81548173ffffffffffffffffffffffffffffffffffffffff021916908373ffffffffffffffffffffffffffffffffffffffff160217905550905050505050505050505050505050565b60025481565b60008060009054906101000a900473ffffffffffffffffffffffffffffffffffffffff1673ffffffffffffffffffffffffffffffffffffffff163373ffffffffffffffffffffffffffffffffffffffff1614611b0e576040517f08c379a0000000000000000000000000000000000000000000000000000000008152600401611b0590613952565b60405180910390fd5b6000809054906101000a900473ffffffffffffffffffffffffffffffffffffffff1673ffffffffffffffffffffffffffffffffffffffff168273ffffffffffffffffffffffffffffffffffffffff161415611b9e576040517f08c379a0000000000000000000000000000000000000000000000000000000008152600401611b9590613b52565b60405180910390fd5b816000806101000a81548173ffffffffffffffffffffffffffffffffffffffff021916908373ffffffffffffffffffffffffffffffffffffffff1602179055506000809054906101000a900473ffffffffffffffffffffffffffffffffffffffff1673ffffffffffffffffffffffffffffffffffffffff163373ffffffffffffffffffffffffffffffffffffffff167fb532073b38c83145e3e5135377a08bf9aab55bc0fd7c1179cd4fb995d2a5159c60405160405180910390a360019050919050565b6000600660003373ffffffffffffffffffffffffffffffffffffffff1673ffffffffffffffffffffffffffffffffffffffff16815260200190815260200160002054905060008114158015611cce57506000600560008381526020019081526020016000206000015414155b611d0d576040517f08c379a0000000000000000000000000000000000000000000000000000000008152600401611d0490613992565b60405180910390fd5b600060086000888152602001908152602001600020600001541415611d67576040517f08c379a0000000000000000000000000000000000000000000000000000000008152600401611d5e90613a92565b60405180910390fd5b611d6f612cec565b6040518060e001604052806003548152602001898152602001888152602001878152602001868152602001858152602001848152509050806007600060035481526020019081526020016000206000820151816000015560208201518160010155604082015181600201556060820151816003019080519060200190611df6929190612b18565b506080820151816004019080519060200190611e13929190612b18565b5060a0820151816005019080519060200190611e30929190612b18565b5060c082015181600601559050506008600088815260200190815260200160002060060160035490806001815401808255809150509060018203906000526020600020016000909192909190915055506003600081548092919060010191905055505050505050505050565b6000600960003373ffffffffffffffffffffffffffffffffffffffff1673ffffffffffffffffffffffffffffffffffffffff16815260200190815260200160002054905060008114158015611f0857506000600860008381526020019081526020016000206000015414155b611f47576040517f08c379a0000000000000000000000000000000000000000000000000000000008152600401611f3e90613af2565b60405180910390fd5b611f4f612c5b565b600a600084815260200190815260200160002060405180608001604052908160008201548152602001600182015481526020016002820160009054906101000a900473ffffffffffffffffffffffffffffffffffffffff1673ffffffffffffffffffffffffffffffffffffffff1673ffffffffffffffffffffffffffffffffffffffff168152602001600382015481525050905060008160000151141561202b576040517f08c379a000000000000000000000000000000000000000000000000000000000815260040161202290613ab2565b60405180910390fd5b6000600960003373ffffffffffffffffffffffffffffffffffffffff1673ffffffffffffffffffffffffffffffffffffffff1681526020019081526020016000205490506001600c60008381526020019081526020016000206000846040015173ffffffffffffffffffffffffffffffffffffffff1673ffffffffffffffffffffffffffffffffffffffff16815260200190815260200160002060006101000a81548160ff02191690831515021790555050505050565b60045481565b6120f0612c10565b6000600660008473ffffffffffffffffffffffffffffffffffffffff1673ffffffffffffffffffffffffffffffffffffffff168152602001908152602001600020541415612173576040517f08c379a000000000000000000000000000000000000000000000000000000000815260040161216a90613b32565b60405180910390fd5b6000600660008473ffffffffffffffffffffffffffffffffffffffff1673ffffffffffffffffffffffffffffffffffffffff168152602001908152602001600020549050600060056000838152602001908152602001600020600001541415612211576040517f08c379a000000000000000000000000000000000000000000000000000000000815260040161220890613b32565b60405180910390fd5b612219612c10565b600560008381526020019081526020016000206040518060a00160405290816000820154815260200160018201548152602001600282018054600181600116156101000203166002900480601f0160208091040260200160405190810160405280929190818152602001828054600181600116156101000203166002900480156122e45780601f106122b9576101008083540402835291602001916122e4565b820191906000526020600020905b8154815290600101906020018083116122c757829003601f168201915b505050505081526020016003820160009054906101000a900473ffffffffffffffffffffffffffffffffffffffff1673ffffffffffffffffffffffffffffffffffffffff1673ffffffffffffffffffffffffffffffffffffffff16815260200160048201548152505090508092505050919050565b6060806060806060856000600660003373ffffffffffffffffffffffffffffffffffffffff1673ffffffffffffffffffffffffffffffffffffffff16815260200190815260200160002054905060011515600c600084815260200190815260200160002060003373ffffffffffffffffffffffffffffffffffffffff1673ffffffffffffffffffffffffffffffffffffffff16815260200190815260200160002060009054906101000a900460ff161515148061243a57506000811415801561243957506000600560008381526020019081526020016000206000015414155b5b612479576040517f08c379a000000000000000000000000000000000000000000000000000000000815260040161247090613912565b60405180910390fd5b612481612b98565b600860008a8152602001908152602001600020604051806101400160405290816000820154815260200160018201548152602001600282015481526020016003820154815260200160048201548152602001600582015481526020016006820180548060200260200160405190810160405280929190818152602001828054801561252b57602002820191906000526020600020905b815481526020019060010190808311612517575b50505050508152602001600782018054600181600116156101000203166002900480601f0160208091040260200160405190810160405280929190818152602001828054600181600116156101000203166002900480156125cd5780601f106125a2576101008083540402835291602001916125cd565b820191906000526020600020905b8154815290600101906020018083116125b057829003601f168201915b50505050508152602001600882015481526020016009820160009054906101000a900473ffffffffffffffffffffffffffffffffffffffff1673ffffffffffffffffffffffffffffffffffffffff1673ffffffffffffffffffffffffffffffffffffffff168152505090506000891415801561264e57506000816000015114155b61268d576040517f08c379a000000000000000000000000000000000000000000000000000000000815260040161268490613a72565b60405180910390fd5b60008160c0015151116126d5576040517f08c379a00000000000000000000000000000000000000000000000000000000081526004016126cc906139b2565b60405180910390fd5b60008160c0015151905060608260c0015190506060826040519080825280602002602001820160405280156127195781602001602082028038833980820191505090505b50905060608360405190808252806020026020018201604052801561275257816020015b606081526020019060019003908161273d5790505b50905060608460405190808252806020026020018201604052801561278b57816020015b60608152602001906001900390816127765790505b5090506060856040519080825280602002602001820160405280156127c457816020015b60608152602001906001900390816127af5790505b5090506060866040519080825280602002602001820160405280156127f85781602001602082028038833980820191505090505b50905060008090505b8651811015612aef57612812612cec565b6007600089848151811061282257fe5b602002602001015181526020019081526020016000206040518060e0016040529081600082015481526020016001820154815260200160028201548152602001600382018054600181600116156101000203166002900480601f0160208091040260200160405190810160405280929190818152602001828054600181600116156101000203166002900480156128fa5780601f106128cf576101008083540402835291602001916128fa565b820191906000526020600020905b8154815290600101906020018083116128dd57829003601f168201915b50505050508152602001600482018054600181600116156101000203166002900480601f01602080910402602001604051908101604052809291908181526020018280546001816001161561010002031660029004801561299c5780601f106129715761010080835404028352916020019161299c565b820191906000526020600020905b81548152906001019060200180831161297f57829003601f168201915b50505050508152602001600582018054600181600116156101000203166002900480601f016020809104026020016040519081016040528092919081815260200182805460018160011615610100020316600290048015612a3e5780601f10612a1357610100808354040283529160200191612a3e565b820191906000526020600020905b815481529060010190602001808311612a2157829003601f168201915b5050505050815260200160068201548152505090508060200151878381518110612a6457fe5b6020026020010181815250508060600151868381518110612a8157fe5b60200260200101819052508060800151858381518110612a9d57fe5b60200260200101819052508060a00151848381518110612ab957fe5b60200260200101819052508060c00151838381518110612ad557fe5b602002602001018181525050508080600101915050612801565b5084848484849e509e509e509e509e505050505050505050505091939590929450565b60035481565b828054600181600116156101000203166002900490600052602060002090601f016020900481019282601f10612b5957805160ff1916838001178555612b87565b82800160010185558215612b87579182015b82811115612b86578251825591602001919060010190612b6b565b5b509050612b949190612d2c565b5090565b604051806101400160405280600081526020016000801916815260200160008019168152602001600080191681526020016000801916815260200160008152602001606081526020016060815260200160008019168152602001600073ffffffffffffffffffffffffffffffffffffffff1681525090565b6040518060a00160405280600081526020016000801916815260200160608152602001600073ffffffffffffffffffffffffffffffffffffffff168152602001600080191681525090565b60405180608001604052806000815260200160008019168152602001600073ffffffffffffffffffffffffffffffffffffffff168152602001600080191681525090565b828054828255906000526020600020908101928215612cdb579160200282015b82811115612cda578251825591602001919060010190612cbf565b5b509050612ce89190612d2c565b5090565b6040518060e00160405280600081526020016000815260200160008152602001606081526020016060815260200160608152602001600080191681525090565b612d4e91905b80821115612d4a576000816000905550600101612d32565b5090565b90565b600081359050612d6081613e24565b92915050565b600081359050612d7581613e3b565b92915050565b600082601f830112612d8c57600080fd5b8135612d9f612d9a82613c70565b613c43565b91508082526020830160208301858383011115612dbb57600080fd5b612dc6838284613dd1565b50505092915050565b600081359050612dde81613e52565b92915050565b600060208284031215612df657600080fd5b6000612e0484828501612d51565b91505092915050565b600080600060608486031215612e2257600080fd5b6000612e3086828701612d66565b9350506020612e4186828701612d51565b9250506040612e5286828701612d66565b9150509250925092565b60008060008060808587031215612e7257600080fd5b6000612e8087828801612d66565b945050602085013567ffffffffffffffff811115612e9d57600080fd5b612ea987828801612d7b565b9350506040612eba87828801612d51565b9250506060612ecb87828801612d66565b91505092959194509250565b600060208284031215612ee957600080fd5b6000612ef784828501612dcf565b91505092915050565b60008060008060008060008060006101208a8c031215612f1f57600080fd5b6000612f2d8c828d01612dcf565b9950506020612f3e8c828d01612d66565b9850506040612f4f8c828d01612d66565b9750506060612f608c828d01612d66565b9650506080612f718c828d01612d66565b95505060a0612f828c828d01612dcf565b94505060c08a013567ffffffffffffffff811115612f9f57600080fd5b612fab8c828d01612d7b565b93505060e0612fbc8c828d01612d66565b925050610100612fce8c828d01612d51565b9150509295985092959850929598565b60008060008060008060c08789031215612ff757600080fd5b600061300589828a01612dcf565b965050602061301689828a01612dcf565b955050604087013567ffffffffffffffff81111561303357600080fd5b61303f89828a01612d7b565b945050606087013567ffffffffffffffff81111561305c57600080fd5b61306889828a01612d7b565b935050608087013567ffffffffffffffff81111561308557600080fd5b61309189828a01612d7b565b92505060a06130a289828a01612d66565b9150509295509295509295565b60006130bb8383613251565b60208301905092915050565b60006130d383836132a8565b905092915050565b60006130e78383613863565b60208301905092915050565b6130fc81613d7f565b82525050565b61310b81613d7f565b82525050565b600061311c82613ccc565b6131268185613d2a565b935061313183613c9c565b8060005b8381101561316257815161314988826130af565b975061315483613d03565b925050600181019050613135565b5085935050505092915050565b600061317a82613cd7565b6131848185613d3b565b93508360208202850161319685613cac565b8060005b858110156131d257848403895281516131b385826130c7565b94506131be83613d10565b925060208a0199505060018101905061319a565b50829750879550505050505092915050565b60006131ef82613ce2565b6131f98185613d4c565b935061320483613cbc565b8060005b8381101561323557815161321c88826130db565b975061322783613d1d565b925050600181019050613208565b5085935050505092915050565b61324b81613d91565b82525050565b61325a81613d9d565b82525050565b61326981613d9d565b82525050565b600061327a82613cf8565b6132848185613d6e565b9350613294818560208601613de0565b61329d81613e13565b840191505092915050565b60006132b382613ced565b6132bd8185613d5d565b93506132cd818560208601613de0565b6132d681613e13565b840191505092915050565b60006132ee601983613d6e565b91507f4f6e6c7920617574686f726973656420616464726573736564000000000000006000830152602082019050919050565b600061332e602183613d6e565b91507f416c7265616479207265676973746572656420617320616e20686f737069746160008301527f6c000000000000000000000000000000000000000000000000000000000000006020830152604082019050919050565b6000613394600a83613d6e565b91507f4f6e6c79206f776e6572000000000000000000000000000000000000000000006000830152602082019050919050565b60006133d4601883613d6e565b91507f596f752061726520616c726561647920616e2061646d696e00000000000000006000830152602082019050919050565b6000613414601a83613d6e565b91507f4f6e6c7920686f73706974616c732061726520616c6c6f7765640000000000006000830152602082019050919050565b6000613454600f83613d6e565b91507f4e6f207265636f726420666f756e6400000000000000000000000000000000006000830152602082019050919050565b6000613494601983613d6e565b91507f596f7520617265206e6f742061646d696e20616c7265616479000000000000006000830152602082019050919050565b60006134d4601b83613d6e565b91507f4f7267616e697a6174696f6e20616c72656164792065786973747300000000006000830152602082019050919050565b6000613514601683613d6e565b91507f416c7265616479206e6f7420617574686f7269736564000000000000000000006000830152602082019050919050565b6000613554602383613d6e565b91507f4f776e65722063616e6e6f742062652072656d6f76656420617320616e20616460008301527f6d696e00000000000000000000000000000000000000000000000000000000006020830152604082019050919050565b60006135ba601783613d6e565b91507f4e6f207375636820686f73707469616c206578697374730000000000000000006000830152602082019050919050565b60006135fa601583613d6e565b91507f4e6f20737563682070617469656e7420666f756e6400000000000000000000006000830152602082019050919050565b600061363a601a83613d6e565b91507f5468652070617469656e7420646f6573206e6f742065786973740000000000006000830152602082019050919050565b600061367a601a83613d6e565b91507f4e6f2073756368206f7267616e697a6174696f6e20666f756e640000000000006000830152602082019050919050565b60006136ba600a83613d6e565b91507f4f6e6c792041646d696e000000000000000000000000000000000000000000006000830152602082019050919050565b60006136fa601783613d6e565b91507f4f6e6c792070617469656e7420697320616c6c6f7765640000000000000000006000830152602082019050919050565b600061373a601683613d6e565b91507f50617469656e7420616c726561647920657869737473000000000000000000006000830152602082019050919050565b600061377a601683613d6e565b91507f4e6f207375636820686f73706974616c206578697374000000000000000000006000830152602082019050919050565b60006137ba601983613d6e565b91507f596f752061726520746865206f776e657220616c7265616479000000000000006000830152602082019050919050565b600060a0830160008301516138056000860182613863565b5060208301516138186020860182613251565b506040830151848203604086015261383082826132a8565b915050606083015161384560608601826130f3565b5060808301516138586080860182613251565b508091505092915050565b61386c81613dc7565b82525050565b61387b81613dc7565b82525050565b600060a082019050818103600083015261389b81886131e4565b905081810360208301526138af818761316f565b905081810360408301526138c3818661316f565b905081810360608301526138d7818561316f565b905081810360808301526138eb8184613111565b90509695505050505050565b600060208201905061390c6000830184613242565b92915050565b6000602082019050818103600083015261392b816132e1565b9050919050565b6000602082019050818103600083015261394b81613321565b9050919050565b6000602082019050818103600083015261396b81613387565b9050919050565b6000602082019050818103600083015261398b816133c7565b9050919050565b600060208201905081810360008301526139ab81613407565b9050919050565b600060208201905081810360008301526139cb81613447565b9050919050565b600060208201905081810360008301526139eb81613487565b9050919050565b60006020820190508181036000830152613a0b816134c7565b9050919050565b60006020820190508181036000830152613a2b81613507565b9050919050565b60006020820190508181036000830152613a4b81613547565b9050919050565b60006020820190508181036000830152613a6b816135ad565b9050919050565b60006020820190508181036000830152613a8b816135ed565b9050919050565b60006020820190508181036000830152613aab8161362d565b9050919050565b60006020820190508181036000830152613acb8161366d565b9050919050565b60006020820190508181036000830152613aeb816136ad565b9050919050565b60006020820190508181036000830152613b0b816136ed565b9050919050565b60006020820190508181036000830152613b2b8161372d565b9050919050565b60006020820190508181036000830152613b4b8161376d565b9050919050565b60006020820190508181036000830152613b6b816137ad565b9050919050565b60006020820190508181036000830152613b8c81846137ed565b905092915050565b6000602082019050613ba96000830184613872565b92915050565b600061012082019050613bc5600083018c613872565b613bd2602083018b613260565b613bdf604083018a613260565b613bec6060830189613260565b613bf96080830188613260565b613c0660a0830187613872565b81810360c0830152613c18818661326f565b9050613c2760e0830185613260565b613c35610100830184613102565b9a9950505050505050505050565b6000604051905081810181811067ffffffffffffffff82111715613c6657600080fd5b8060405250919050565b600067ffffffffffffffff821115613c8757600080fd5b601f19601f8301169050602081019050919050565b6000819050602082019050919050565b6000819050602082019050919050565b6000819050602082019050919050565b600081519050919050565b600081519050919050565b600081519050919050565b600081519050919050565b600081519050919050565b6000602082019050919050565b6000602082019050919050565b6000602082019050919050565b600082825260208201905092915050565b600082825260208201905092915050565b600082825260208201905092915050565b600082825260208201905092915050565b600082825260208201905092915050565b6000613d8a82613da7565b9050919050565b60008115159050919050565b6000819050919050565b600073ffffffffffffffffffffffffffffffffffffffff82169050919050565b6000819050919050565b82818337600083830152505050565b60005b83811015613dfe578082015181840152602081019050613de3565b83811115613e0d576000848401525b50505050565b6000601f19601f8301169050919050565b613e2d81613d7f565b8114613e3857600080fd5b50565b613e4481613d9d565b8114613e4f57600080fd5b50565b613e5b81613dc7565b8114613e6657600080fd5b5056fea365627a7a72315820ffc34d81b7dfac09fb53f40a63ad0cae18488350fe13068f4e9c9811b592ba266c6578706572696d656e74616cf564736f6c63430005100040",
  "source": "// SPDX-License-Identifier: MIT\npragma solidity >=0.4.22 <0.9.0;\npragma experimental ABIEncoderV2;\n\nimport {Ownable} from \"./Ownable.sol\";\n\ncontract DMed is Ownable {\n    struct Hospital {\n        uint256 id;\n        bytes32 name;\n        string physicalAddress;\n        address walletAddress;\n        bytes32 License;\n    }\n\n    struct Record {\n        uint256 id;\n        uint256 hospitalId;\n        uint256 patientId;\n        string condition;\n        string description;\n        string allergies;\n        bytes32 Document;\n    }\n\n    struct Patient {\n        uint256 id;\n        bytes32 name;\n        bytes32 gender;\n        bytes32 bloodGroup;\n        bytes32 DOB;\n        uint256 phoneNumber;\n        uint256[] records;\n        string physicalAddress;\n        bytes32 profilePicture;\n        address walletAddress;\n    }\n\n    struct Organization {\n        uint256 id;\n        bytes32 name;\n        address walletAddress;\n        bytes32 License;\n    }\n\n    uint256 public hospitalId = 1;\n    uint256 public recordId = 1;\n    uint256 public organizationId = 1;\n\n    // to map hospitalId to Hospital Struct\n    mapping(uint256 => Hospital) private hospitals;\n\n    // mapping to check if an address is already a registered hospital or not\n    mapping(address => uint256) private hospitalToId;\n\n    // to map medical record id to Record struct\n    mapping(uint256 => Record) private records;\n\n    // to map paitentId to Patient Struct\n    mapping(uint256 => Patient) private patients;\n\n    // mapping from patient address to patient id\n    mapping(address => uint256) private patientToId;\n\n    // to map government authorities Authorities Struct\n    mapping(uint256 => Organization) private organizations;\n\n    // mapping from organization address to id\n    mapping(address => uint256) private organizationToId;\n\n    // nested mapping of (patientId) => ((address of authority)) => (isAuthorised ?))\n    mapping(uint256 => mapping(address => bool)) private authorised;\n\n    /* \n        - function to add new hospitals. \n        - Callable by only admins. \n        - receive name of hospital, address of hosptial, wallet of hospital, and IPFS Hash of document\n        - emits an event for adding new hospital\n    */\n    function addHospital(\n        bytes32 name,\n        string memory physicalAddress,\n        address walletAddress,\n        bytes32 license\n    ) public onlyAdmin {\n        require(\n            hospitalToId[walletAddress] == 0,\n            \"Already registered as an hospital\"\n        );\n        hospitals[hospitalId] = Hospital(\n            hospitalId,\n            name,\n            physicalAddress,\n            walletAddress,\n            license\n        );\n        hospitalToId[walletAddress] = hospitalId;\n        hospitalId++;\n    }\n\n    /*\n        - function to get hopital with the given id\n        - check if any hosptial exists with the given Id\n        - If the hosptial exists then we return it \n    */\n    function getHospitalById(uint256 _id)\n        public\n        view\n        returns (Hospital memory)\n    {\n        require(hospitals[_id].id != 0, \"No such hosptial exists\");\n        Hospital memory hosp = hospitals[_id];\n        return hosp;\n    }\n\n    /*\n        - function to get hopital having the specified address\n        - firstly checks if the given address exists in the mapping from hospitalAddress to Id\n        - now we check if any hosptial exists with the returned Id\n        - If the hosptial exists then we return it \n    */\n    function getHosptialByAddress(address _address)\n        public\n        view\n        returns (Hospital memory)\n    {\n        require(hospitalToId[_address] != 0, \"No such hospital exist\");\n        uint256 _id = hospitalToId[_address];\n        require(hospitals[_id].id != 0, \"No such hospital exist\");\n        Hospital memory hosp = hospitals[_id];\n        return hosp;\n    }\n\n    /*\n        - function to add new records of an existing patient.\n        - if the patient already exists then we make a new Record variable\n        - map the created record to its recordId\n        - add the recordId to the list of records of the patient\n        - increment the recordId\n    */\n    function addNewRecord(\n        uint256 _hospitalId,\n        uint256 _patientId,\n        string memory _condition,\n        string memory _description,\n        string memory _allergies,\n        bytes32 _document\n    ) public onlyHospital {\n        require(patients[_patientId].id != 0, \"The patient does not exist\");\n        Record memory rec = Record(\n            recordId,\n            _hospitalId,\n            _patientId,\n            _condition,\n            _description,\n            _allergies,\n            _document\n        );\n        records[recordId] = rec;\n        patients[_patientId].records.push(recordId);\n        recordId++;\n    }\n\n    /*\n        - function to add new patients\n        - we check if the given patient id aleady exists\n        - if does not exist then we make a new Patient varible\n        - add the constructed varible to patients mapping\n        - add the patientId to the mapping of patient address to patient Id\n    */\n    function addNewPatient(\n        uint256 _id,\n        bytes32 _name,\n        bytes32 _gender,\n        bytes32 _bloodGroup,\n        bytes32 _dob,\n        uint256 _phoneNumber,\n        string memory _physicalAddress,\n        bytes32 _profilePicture,\n        address _walletAddress\n    ) public onlyHospital {\n        require(patients[_id].id == 0, \"Patient already exists\");\n\n        uint256[] memory _records;\n        Patient memory pat = Patient(\n            _id,\n            _name,\n            _gender,\n            _bloodGroup,\n            _dob,\n            _phoneNumber,\n            _records,\n            _physicalAddress,\n            _profilePicture,\n            _walletAddress\n        );\n\n        patientToId[_walletAddress] = _id;\n        patients[_id] = pat;\n    }\n\n    /* \n        - function to add new organizations. \n        - Callable by only admins. \n        - receive name of organiation, _walletAddress of organization, and IPFS Hash of document\n    */\n    function addOrganization(\n        bytes32 _name,\n        address _walletAddress,\n        bytes32 _license\n    ) public onlyAdmin {\n        require(\n            organizationToId[_walletAddress] == 0,\n            \"Organization already exists\"\n        );\n        organizations[organizationId] = Organization(\n            organizationId,\n            _name,\n            _walletAddress,\n            _license\n        );\n        organizationToId[_walletAddress] = organizationId;\n\n        organizationId++;\n    }\n\n    /*\n        - function to give access authority to addresses\n        - message sender must be the patient\n        - if all condition pass add id of patient and address to authorised mapping\n    */\n    function addAuthByAddress(address addr) public onlyPatient {\n        uint256 _id = patientToId[msg.sender];\n        authorised[_id][addr] = true;\n    }\n\n    /*\n        - function to give access authority to an organization\n        - message sender must be the patient\n        - firstly check if organization with the given id exist or not\n        - if all conditions pass add id of patient and address of the organization to the mapping\n    */\n    function addAuthById(uint256 _id) public onlyPatient {\n        Organization memory org = organizations[_id];\n        require(org.id != 0, \"No such organization found\");\n        uint256 patientId = patientToId[msg.sender];\n        authorised[patientId][org.walletAddress] = true;\n    }\n\n    /*\n        - function to remove access rights from some address\n        - message sender must be the patient\n        - check if the given address has the access authorities\n        - if all conditions check, remove the mapping of id and address\n    */\n    function revokeAuthByAddress(address addr) public onlyPatient {\n        uint256 _id = patientToId[msg.sender];\n        require(authorised[_id][addr] == true, \"Already not authorised\");\n\n        authorised[_id][addr] = false;\n    }\n\n    /*\n        - function to remove access authority from an organization\n        - message sender must be the patient\n        - check if the given organization exists or not\n        - check if the given organization has the access authorities\n        - if all conditions check, remove the mapping of id and address\n    */\n    function revokeAuthById(uint256 _id) public onlyPatient {\n        Organization memory org = organizations[_id];\n        require(org.id != 0, \"No such organization found\");\n        uint256 patientId = patientToId[msg.sender];\n\n        require(\n            authorised[patientId][org.walletAddress] == true,\n            \"Already not authorised\"\n        );\n        authorised[patientId][org.walletAddress] = false;\n    }\n\n    /*\n        - function to get the details of the patient \n        - this function is callable by either a hospital or an authorised address\n        - we check if the given id is a valid patient or not\n        - if all checks pass, we return all the data of the patient except list of its records\n    */\n    function getPatientDetails(uint256 _id)\n        public\n        view\n        onlyAuthorised(_id)\n        returns (\n            uint256,\n            bytes32,\n            bytes32,\n            bytes32,\n            bytes32,\n            uint256,\n            string memory,\n            bytes32,\n            address\n        )\n    {\n        require(_id != 0 && patients[_id].id != 0, \"No such patient found\");\n        Patient memory pat = patients[_id];\n        return (\n            pat.id,\n            pat.name,\n            pat.gender,\n            pat.bloodGroup,\n            pat.DOB,\n            pat.phoneNumber,\n            pat.physicalAddress,\n            pat.profilePicture,\n            pat.walletAddress\n        );\n    }\n\n    /*\n        - function to get all the records of the given patient\n        - this function is callable by only either a registered hospital or an authorised address\n        - it checks if the patient with the given id exists or not\n        - it checks if the number of records of the given patient is greater than 0 or not\n        - we create an array for each of the attributes\n        - we return all the attributes except patientId and records own id\n        - loop through all the records in the recordId array of the patient and fill the array as specified\n        - return all the filled arrays\n    */\n    function getPatientRecords(uint256 _id)\n        public\n        view\n        onlyAuthorised(_id)\n        returns (\n            uint256[] memory,\n            string[] memory,\n            string[] memory,\n            string[] memory,\n            bytes32[] memory\n        )\n    {\n        Patient memory patient = patients[_id];\n        require(_id != 0 && patient.id != 0, \"No such patient found\");\n        require(patient.records.length > 0, \"No record found\");\n\n        uint256 len = patient.records.length;\n        uint256[] memory rec = patient.records;\n\n        uint256[] memory hosId = new uint256[](len);\n        string[] memory cond = new string[](len);\n        string[] memory desc = new string[](len);\n        string[] memory aller = new string[](len);\n        bytes32[] memory docs = new bytes32[](len);\n\n        for (uint256 i = 0; i < rec.length; i++) {\n            Record memory curr = records[rec[i]];\n            hosId[i] = curr.hospitalId;\n            cond[i] = curr.condition;\n            desc[i] = curr.description;\n            aller[i] = curr.allergies;\n            docs[i] = curr.Document;\n        }\n\n        return (hosId, cond, desc, aller, docs);\n    }\n\n    modifier onlyAuthorised(uint256 _id) {\n        uint256 hosId = hospitalToId[msg.sender];\n        require(\n            (authorised[_id][msg.sender] == true) ||\n                (hosId != 0 && hospitals[hosId].id != 0),\n            \"Only authorised addressed\"\n        );\n        _;\n    }\n\n    modifier onlyPatient() {\n        uint256 _id = patientToId[msg.sender];\n        require(_id != 0 && patients[_id].id != 0, \"Only patient is allowed\");\n        _;\n    }\n\n    modifier onlyHospital() {\n        uint256 _id = hospitalToId[msg.sender];\n        require(\n            _id != 0 && hospitals[_id].id != 0,\n            \"Only hospitals are allowed\"\n        );\n        _;\n    }\n}\n",
  "sourcePath": "C:\\Users\\priya\\OneDrive\\Desktop\\Projects\\Decentralized Medical Record\\contracts\\DMed.sol",
  "compiler": {
    "name": "solc",
    "version": "0.5.16+commit.9c3226ce.Emscripten.clang"
  },
  "schemaVersion": "3.4.3",
  "updatedAt": "2021-11-18T18:03:34.624Z",
  "devdoc": {
    "methods": {}
  },
  "userdoc": {
    "methods": {}
  }
}