{
  "contractName": "DMed",
  "abi": [
    {
      "anonymous": false,
      "inputs": [
        {
          "indexed": true,
          "internalType": "address",
          "name": "Admin_Address",
          "type": "address"
        }
      ],
      "name": "AdminAdded",
      "type": "event"
    },
    {
      "anonymous": false,
      "inputs": [
        {
          "indexed": true,
          "internalType": "address",
          "name": "Admin_Address",
          "type": "address"
        }
      ],
      "name": "AdminRemoved",
      "type": "event"
    },
    {
      "anonymous": false,
      "inputs": [
        {
          "indexed": true,
          "internalType": "address",
          "name": "_from",
          "type": "address"
        },
        {
          "indexed": true,
          "internalType": "address",
          "name": "_to",
          "type": "address"
        }
      ],
      "name": "OwnerChanged",
      "type": "event"
    },
    {
      "constant": false,
      "inputs": [
        {
          "internalType": "address",
          "name": "_admin",
          "type": "address"
        }
      ],
      "name": "addAdmin",
      "outputs": [
        {
          "internalType": "bool",
          "name": "",
          "type": "bool"
        }
      ],
      "payable": false,
      "stateMutability": "nonpayable",
      "type": "function"
    },
    {
      "constant": false,
      "inputs": [
        {
          "internalType": "address",
          "name": "_newOwner",
          "type": "address"
        }
      ],
      "name": "changeOwner",
      "outputs": [
        {
          "internalType": "bool",
          "name": "",
          "type": "bool"
        }
      ],
      "payable": false,
      "stateMutability": "nonpayable",
      "type": "function"
    },
    {
      "constant": true,
      "inputs": [],
      "name": "hospitalId",
      "outputs": [
        {
          "internalType": "uint256",
          "name": "",
          "type": "uint256"
        }
      ],
      "payable": false,
      "stateMutability": "view",
      "type": "function"
    },
    {
      "constant": true,
      "inputs": [],
      "name": "organizationId",
      "outputs": [
        {
          "internalType": "uint256",
          "name": "",
          "type": "uint256"
        }
      ],
      "payable": false,
      "stateMutability": "view",
      "type": "function"
    },
    {
      "constant": true,
      "inputs": [],
      "name": "owner",
      "outputs": [
        {
          "internalType": "address",
          "name": "",
          "type": "address"
        }
      ],
      "payable": false,
      "stateMutability": "view",
      "type": "function"
    },
    {
      "constant": true,
      "inputs": [],
      "name": "recordId",
      "outputs": [
        {
          "internalType": "uint256",
          "name": "",
          "type": "uint256"
        }
      ],
      "payable": false,
      "stateMutability": "view",
      "type": "function"
    },
    {
      "constant": false,
      "inputs": [
        {
          "internalType": "address",
          "name": "_admin",
          "type": "address"
        }
      ],
      "name": "removeAdmin",
      "outputs": [
        {
          "internalType": "bool",
          "name": "",
          "type": "bool"
        }
      ],
      "payable": false,
      "stateMutability": "nonpayable",
      "type": "function"
    },
    {
      "constant": false,
      "inputs": [
        {
          "internalType": "bytes32",
          "name": "name",
          "type": "bytes32"
        },
        {
          "internalType": "string",
          "name": "physicalAddress",
          "type": "string"
        },
        {
          "internalType": "address",
          "name": "walletAddress",
          "type": "address"
        },
        {
          "internalType": "bytes32",
          "name": "license",
          "type": "bytes32"
        }
      ],
      "name": "addHospital",
      "outputs": [],
      "payable": false,
      "stateMutability": "nonpayable",
      "type": "function"
    },
    {
      "constant": true,
      "inputs": [
        {
          "internalType": "uint256",
          "name": "_id",
          "type": "uint256"
        }
      ],
      "name": "getHospitalById",
      "outputs": [
        {
          "components": [
            {
              "internalType": "uint256",
              "name": "id",
              "type": "uint256"
            },
            {
              "internalType": "bytes32",
              "name": "name",
              "type": "bytes32"
            },
            {
              "internalType": "string",
              "name": "physicalAddress",
              "type": "string"
            },
            {
              "internalType": "address",
              "name": "walletAddress",
              "type": "address"
            },
            {
              "internalType": "bytes32",
              "name": "License",
              "type": "bytes32"
            }
          ],
          "internalType": "struct DMed.Hospital",
          "name": "",
          "type": "tuple"
        }
      ],
      "payable": false,
      "stateMutability": "view",
      "type": "function"
    },
    {
      "constant": true,
      "inputs": [
        {
          "internalType": "address",
          "name": "_address",
          "type": "address"
        }
      ],
      "name": "getHosptialByAddress",
      "outputs": [
        {
          "components": [
            {
              "internalType": "uint256",
              "name": "id",
              "type": "uint256"
            },
            {
              "internalType": "bytes32",
              "name": "name",
              "type": "bytes32"
            },
            {
              "internalType": "string",
              "name": "physicalAddress",
              "type": "string"
            },
            {
              "internalType": "address",
              "name": "walletAddress",
              "type": "address"
            },
            {
              "internalType": "bytes32",
              "name": "License",
              "type": "bytes32"
            }
          ],
          "internalType": "struct DMed.Hospital",
          "name": "",
          "type": "tuple"
        }
      ],
      "payable": false,
      "stateMutability": "view",
      "type": "function"
    },
    {
      "constant": false,
      "inputs": [
        {
          "internalType": "uint256",
          "name": "_hospitalId",
          "type": "uint256"
        },
        {
          "internalType": "uint256",
          "name": "_patientId",
          "type": "uint256"
        },
        {
          "internalType": "string",
          "name": "_condition",
          "type": "string"
        },
        {
          "internalType": "string",
          "name": "_description",
          "type": "string"
        },
        {
          "internalType": "string",
          "name": "_allergies",
          "type": "string"
        },
        {
          "internalType": "bytes32",
          "name": "_document",
          "type": "bytes32"
        }
      ],
      "name": "addNewRecord",
      "outputs": [],
      "payable": false,
      "stateMutability": "nonpayable",
      "type": "function"
    },
    {
      "constant": false,
      "inputs": [
        {
          "internalType": "uint256",
          "name": "_id",
          "type": "uint256"
        },
        {
          "internalType": "bytes32",
          "name": "_name",
          "type": "bytes32"
        },
        {
          "internalType": "bytes32",
          "name": "_gender",
          "type": "bytes32"
        },
        {
          "internalType": "bytes32",
          "name": "_bloodGroup",
          "type": "bytes32"
        },
        {
          "internalType": "bytes32",
          "name": "_dob",
          "type": "bytes32"
        },
        {
          "internalType": "uint256",
          "name": "_phoneNumber",
          "type": "uint256"
        },
        {
          "internalType": "string",
          "name": "_physicalAddress",
          "type": "string"
        },
        {
          "internalType": "bytes32",
          "name": "_profilePicture",
          "type": "bytes32"
        },
        {
          "internalType": "address",
          "name": "_walletAddress",
          "type": "address"
        }
      ],
      "name": "addNewPatient",
      "outputs": [],
      "payable": false,
      "stateMutability": "nonpayable",
      "type": "function"
    },
    {
      "constant": false,
      "inputs": [
        {
          "internalType": "bytes32",
          "name": "_name",
          "type": "bytes32"
        },
        {
          "internalType": "address",
          "name": "_walletAddress",
          "type": "address"
        },
        {
          "internalType": "bytes32",
          "name": "_license",
          "type": "bytes32"
        }
      ],
      "name": "addOrganization",
      "outputs": [],
      "payable": false,
      "stateMutability": "nonpayable",
      "type": "function"
    },
    {
      "constant": false,
      "inputs": [
        {
          "internalType": "address",
          "name": "addr",
          "type": "address"
        }
      ],
      "name": "addAuthByAddress",
      "outputs": [],
      "payable": false,
      "stateMutability": "nonpayable",
      "type": "function"
    },
    {
      "constant": false,
      "inputs": [
        {
          "internalType": "uint256",
          "name": "_id",
          "type": "uint256"
        }
      ],
      "name": "addAuthById",
      "outputs": [],
      "payable": false,
      "stateMutability": "nonpayable",
      "type": "function"
    },
    {
      "constant": false,
      "inputs": [
        {
          "internalType": "address",
          "name": "addr",
          "type": "address"
        }
      ],
      "name": "revokeAuthByAddress",
      "outputs": [],
      "payable": false,
      "stateMutability": "nonpayable",
      "type": "function"
    },
    {
      "constant": false,
      "inputs": [
        {
          "internalType": "uint256",
          "name": "_id",
          "type": "uint256"
        }
      ],
      "name": "revokeAuthById",
      "outputs": [],
      "payable": false,
      "stateMutability": "nonpayable",
      "type": "function"
    },
    {
      "constant": true,
      "inputs": [
        {
          "internalType": "uint256",
          "name": "_id",
          "type": "uint256"
        }
      ],
      "name": "getPatientDetails",
      "outputs": [
        {
          "internalType": "uint256",
          "name": "",
          "type": "uint256"
        },
        {
          "internalType": "bytes32",
          "name": "",
          "type": "bytes32"
        },
        {
          "internalType": "bytes32",
          "name": "",
          "type": "bytes32"
        },
        {
          "internalType": "bytes32",
          "name": "",
          "type": "bytes32"
        },
        {
          "internalType": "bytes32",
          "name": "",
          "type": "bytes32"
        },
        {
          "internalType": "uint256",
          "name": "",
          "type": "uint256"
        },
        {
          "internalType": "string",
          "name": "",
          "type": "string"
        },
        {
          "internalType": "bytes32",
          "name": "",
          "type": "bytes32"
        },
        {
          "internalType": "address",
          "name": "",
          "type": "address"
        }
      ],
      "payable": false,
      "stateMutability": "view",
      "type": "function"
    },
    {
      "constant": true,
      "inputs": [
        {
          "internalType": "uint256",
          "name": "_id",
          "type": "uint256"
        }
      ],
      "name": "getPatientRecords",
      "outputs": [
        {
          "internalType": "uint256[]",
          "name": "",
          "type": "uint256[]"
        },
        {
          "internalType": "string[]",
          "name": "",
          "type": "string[]"
        },
        {
          "internalType": "string[]",
          "name": "",
          "type": "string[]"
        },
        {
          "internalType": "string[]",
          "name": "",
          "type": "string[]"
        },
        {
          "internalType": "bytes32[]",
          "name": "",
          "type": "bytes32[]"
        }
      ],
      "payable": false,
      "stateMutability": "view",
      "type": "function"
    }
  ],
  "bytecode": "0x6080604052600160025560016003556001600455336000806101000a81548173ffffffffffffffffffffffffffffffffffffffff021916908373ffffffffffffffffffffffffffffffffffffffff16021790555060018060003373ffffffffffffffffffffffffffffffffffffffff1673ffffffffffffffffffffffffffffffffffffffff16815260200190815260200160002060006101000a81548160ff021916908315150217905550613f15806100b96000396000f3fe608060405234801561001057600080fd5b50600436106101215760003560e01c80638da5cb5b116100ad578063baf1da2d11610071578063baf1da2d1461031e578063c471dc3a1461033a578063d116682d14610358578063dce7e84314610388578063f7dfe22b146103bc57610121565b80638da5cb5b1461027a57806399a173a9146102985780639d2d428e146102b4578063a6f9dae1146102d2578063a6ffdc3d1461030257610121565b806344125aa6116100f457806344125aa6146101c657806370480275146101f65780637516455c1461022657806375d884141461024257806383ce80e11461025e57610121565b80631785f53c146101265780631f3f405614610156578063300c601c146101725780633a64e7cb146101aa575b600080fd5b610140600480360361013b9190810190612e32565b6103da565b60405161014d9190613960565b60405180910390f35b610170600480360361016b9190810190612eaa565b610632565b005b61018c60048036036101879190810190612f25565b61087e565b6040516101a199989796959493929190613c18565b60405180910390f35b6101c460048036036101bf9190810190612e5b565b610c1e565b005b6101e060048036036101db9190810190612f25565b610e46565b6040516101ed9190613bdb565b60405180910390f35b610210600480360361020b9190810190612e32565b610fef565b60405161021d9190613960565b60405180910390f35b610240600480360361023b9190810190612f25565b6111b6565b005b61025c60048036036102579190810190612e32565b6114a4565b005b61027860048036036102739190810190612e32565b6116a5565b005b610282611802565b60405161028f91906138cf565b60405180910390f35b6102b260048036036102ad9190810190612f4e565b611827565b005b6102bc611ac5565b6040516102c99190613bfd565b60405180910390f35b6102ec60048036036102e79190810190612e32565b611acb565b6040516102f99190613960565b60405180910390f35b61031c6004803603610317919081019061302c565b611cb0565b005b61033860048036036103339190810190612f25565b611eea565b005b610342612130565b60405161034f9190613bfd565b60405180910390f35b610372600480360361036d9190810190612e32565b612136565b60405161037f9190613bdb565b60405180910390f35b6103a2600480360361039d9190810190612f25565b6123a7565b6040516103b39594939291906138ea565b60405180910390f35b6103c4612b60565b6040516103d19190613bfd565b60405180910390f35b60008060009054906101000a900473ffffffffffffffffffffffffffffffffffffffff1673ffffffffffffffffffffffffffffffffffffffff163373ffffffffffffffffffffffffffffffffffffffff161461046b576040517f08c379a0000000000000000000000000000000000000000000000000000000008152600401610462906139bb565b60405180910390fd5b60011515600160008473ffffffffffffffffffffffffffffffffffffffff1673ffffffffffffffffffffffffffffffffffffffff16815260200190815260200160002060009054906101000a900460ff161515146104fe576040517f08c379a00000000000000000000000000000000000000000000000000000000081526004016104f590613a3b565b60405180910390fd5b6000809054906101000a900473ffffffffffffffffffffffffffffffffffffffff1673ffffffffffffffffffffffffffffffffffffffff168273ffffffffffffffffffffffffffffffffffffffff16141561058e576040517f08c379a000000000000000000000000000000000000000000000000000000000815260040161058590613a9b565b60405180910390fd5b6000600160008473ffffffffffffffffffffffffffffffffffffffff1673ffffffffffffffffffffffffffffffffffffffff16815260200190815260200160002060006101000a81548160ff0219169083151502179055508173ffffffffffffffffffffffffffffffffffffffff167fa3b62bc36326052d97ea62d63c3d60308ed4c3ea8ac079dd8499f1e9c4f80c0f60405160405180910390a260019050919050565b60011515600160003373ffffffffffffffffffffffffffffffffffffffff1673ffffffffffffffffffffffffffffffffffffffff16815260200190815260200160002060009054906101000a900460ff161515146106c5576040517f08c379a00000000000000000000000000000000000000000000000000000000081526004016106bc90613b3b565b60405180910390fd5b6000600660008473ffffffffffffffffffffffffffffffffffffffff1673ffffffffffffffffffffffffffffffffffffffff1681526020019081526020016000205414610747576040517f08c379a000000000000000000000000000000000000000000000000000000000815260040161073e9061399b565b60405180910390fd5b6040518060a0016040528060025481526020018581526020018481526020018373ffffffffffffffffffffffffffffffffffffffff16815260200182815250600560006002548152602001908152602001600020600082015181600001556020820151816001015560408201518160020190805190602001906107cb929190612b66565b5060608201518160030160006101000a81548173ffffffffffffffffffffffffffffffffffffffff021916908373ffffffffffffffffffffffffffffffffffffffff16021790555060808201518160040155905050600254600660008473ffffffffffffffffffffffffffffffffffffffff1673ffffffffffffffffffffffffffffffffffffffff1681526020019081526020016000208190555060026000815480929190600101919050555050505050565b6000806000806000806060600080896000600660003373ffffffffffffffffffffffffffffffffffffffff1673ffffffffffffffffffffffffffffffffffffffff16815260200190815260200160002054905060011515600c600084815260200190815260200160002060003373ffffffffffffffffffffffffffffffffffffffff1673ffffffffffffffffffffffffffffffffffffffff16815260200190815260200160002060009054906101000a900460ff161515148061096557506000811415801561096457506000600560008381526020019081526020016000206000015414155b5b6109a4576040517f08c379a000000000000000000000000000000000000000000000000000000000815260040161099b9061397b565b60405180910390fd5b60008c141580156109cc57506000600860008e81526020019081526020016000206000015414155b610a0b576040517f08c379a0000000000000000000000000000000000000000000000000000000008152600401610a0290613adb565b60405180910390fd5b610a13612be6565b600860008e81526020019081526020016000206040518061014001604052908160008201548152602001600182015481526020016002820154815260200160038201548152602001600482015481526020016005820154815260200160068201805480602002602001604051908101604052809291908181526020018280548015610abd57602002820191906000526020600020905b815481526020019060010190808311610aa9575b50505050508152602001600782018054600181600116156101000203166002900480601f016020809104026020016040519081016040528092919081815260200182805460018160011615610100020316600290048015610b5f5780601f10610b3457610100808354040283529160200191610b5f565b820191906000526020600020905b815481529060010190602001808311610b4257829003601f168201915b50505050508152602001600882015481526020016009820160009054906101000a900473ffffffffffffffffffffffffffffffffffffffff1673ffffffffffffffffffffffffffffffffffffffff1673ffffffffffffffffffffffffffffffffffffffff16815250509050806000015181602001518260400151836060015184608001518560a001518660e001518761010001518861012001518292509b509b509b509b509b509b509b509b509b505050509193959799909294969850565b60011515600160003373ffffffffffffffffffffffffffffffffffffffff1673ffffffffffffffffffffffffffffffffffffffff16815260200190815260200160002060009054906101000a900460ff16151514610cb1576040517f08c379a0000000000000000000000000000000000000000000000000000000008152600401610ca890613b3b565b60405180910390fd5b6000600b60008473ffffffffffffffffffffffffffffffffffffffff1673ffffffffffffffffffffffffffffffffffffffff1681526020019081526020016000205414610d33576040517f08c379a0000000000000000000000000000000000000000000000000000000008152600401610d2a90613a5b565b60405180910390fd5b604051806080016040528060045481526020018481526020018373ffffffffffffffffffffffffffffffffffffffff16815260200182815250600a60006004548152602001908152602001600020600082015181600001556020820151816001015560408201518160020160006101000a81548173ffffffffffffffffffffffffffffffffffffffff021916908373ffffffffffffffffffffffffffffffffffffffff16021790555060608201518160030155905050600454600b60008473ffffffffffffffffffffffffffffffffffffffff1673ffffffffffffffffffffffffffffffffffffffff16815260200190815260200160002081905550600460008154809291906001019190505550505050565b610e4e612c5e565b600060056000848152602001908152602001600020600001541415610ea8576040517f08c379a0000000000000000000000000000000000000000000000000000000008152600401610e9f90613abb565b60405180910390fd5b610eb0612c5e565b600560008481526020019081526020016000206040518060a00160405290816000820154815260200160018201548152602001600282018054600181600116156101000203166002900480601f016020809104026020016040519081016040528092919081815260200182805460018160011615610100020316600290048015610f7b5780601f10610f5057610100808354040283529160200191610f7b565b820191906000526020600020905b815481529060010190602001808311610f5e57829003601f168201915b505050505081526020016003820160009054906101000a900473ffffffffffffffffffffffffffffffffffffffff1673ffffffffffffffffffffffffffffffffffffffff1673ffffffffffffffffffffffffffffffffffffffff168152602001600482015481525050905080915050919050565b60008060009054906101000a900473ffffffffffffffffffffffffffffffffffffffff1673ffffffffffffffffffffffffffffffffffffffff163373ffffffffffffffffffffffffffffffffffffffff1614611080576040517f08c379a0000000000000000000000000000000000000000000000000000000008152600401611077906139bb565b60405180910390fd5b60001515600160008473ffffffffffffffffffffffffffffffffffffffff1673ffffffffffffffffffffffffffffffffffffffff16815260200190815260200160002060009054906101000a900460ff16151514611113576040517f08c379a000000000000000000000000000000000000000000000000000000000815260040161110a906139db565b60405180910390fd5b60018060008473ffffffffffffffffffffffffffffffffffffffff1673ffffffffffffffffffffffffffffffffffffffff16815260200190815260200160002060006101000a81548160ff0219169083151502179055508173ffffffffffffffffffffffffffffffffffffffff167f44d6d25963f097ad14f29f06854a01f575648a1ef82f30e562ccd3889717e33960405160405180910390a260019050919050565b6000600960003373ffffffffffffffffffffffffffffffffffffffff1673ffffffffffffffffffffffffffffffffffffffff1681526020019081526020016000205490506000811415801561122257506000600860008381526020019081526020016000206000015414155b611261576040517f08c379a000000000000000000000000000000000000000000000000000000000815260040161125890613b5b565b60405180910390fd5b611269612ca9565b600a600084815260200190815260200160002060405180608001604052908160008201548152602001600182015481526020016002820160009054906101000a900473ffffffffffffffffffffffffffffffffffffffff1673ffffffffffffffffffffffffffffffffffffffff1673ffffffffffffffffffffffffffffffffffffffff1681526020016003820154815250509050600081600001511415611345576040517f08c379a000000000000000000000000000000000000000000000000000000000815260040161133c90613b1b565b60405180910390fd5b6000600960003373ffffffffffffffffffffffffffffffffffffffff1673ffffffffffffffffffffffffffffffffffffffff16815260200190815260200160002054905060011515600c60008381526020019081526020016000206000846040015173ffffffffffffffffffffffffffffffffffffffff1673ffffffffffffffffffffffffffffffffffffffff16815260200190815260200160002060009054906101000a900460ff16151514611431576040517f08c379a000000000000000000000000000000000000000000000000000000000815260040161142890613a7b565b60405180910390fd5b6000600c60008381526020019081526020016000206000846040015173ffffffffffffffffffffffffffffffffffffffff1673ffffffffffffffffffffffffffffffffffffffff16815260200190815260200160002060006101000a81548160ff02191690831515021790555050505050565b6000600960003373ffffffffffffffffffffffffffffffffffffffff1673ffffffffffffffffffffffffffffffffffffffff1681526020019081526020016000205490506000811415801561151057506000600860008381526020019081526020016000206000015414155b61154f576040517f08c379a000000000000000000000000000000000000000000000000000000000815260040161154690613b5b565b60405180910390fd5b6000600960003373ffffffffffffffffffffffffffffffffffffffff1673ffffffffffffffffffffffffffffffffffffffff16815260200190815260200160002054905060011515600c600083815260200190815260200160002060008573ffffffffffffffffffffffffffffffffffffffff1673ffffffffffffffffffffffffffffffffffffffff16815260200190815260200160002060009054906101000a900460ff16151514611637576040517f08c379a000000000000000000000000000000000000000000000000000000000815260040161162e90613a7b565b60405180910390fd5b6000600c600083815260200190815260200160002060008573ffffffffffffffffffffffffffffffffffffffff1673ffffffffffffffffffffffffffffffffffffffff16815260200190815260200160002060006101000a81548160ff021916908315150217905550505050565b6000600960003373ffffffffffffffffffffffffffffffffffffffff1673ffffffffffffffffffffffffffffffffffffffff1681526020019081526020016000205490506000811415801561171157506000600860008381526020019081526020016000206000015414155b611750576040517f08c379a000000000000000000000000000000000000000000000000000000000815260040161174790613b5b565b60405180910390fd5b6000600960003373ffffffffffffffffffffffffffffffffffffffff1673ffffffffffffffffffffffffffffffffffffffff1681526020019081526020016000205490506001600c600083815260200190815260200160002060008573ffffffffffffffffffffffffffffffffffffffff1673ffffffffffffffffffffffffffffffffffffffff16815260200190815260200160002060006101000a81548160ff021916908315150217905550505050565b6000809054906101000a900473ffffffffffffffffffffffffffffffffffffffff1681565b6000600660003373ffffffffffffffffffffffffffffffffffffffff1673ffffffffffffffffffffffffffffffffffffffff1681526020019081526020016000205490506000811415801561189357506000600560008381526020019081526020016000206000015414155b6118d2576040517f08c379a00000000000000000000000000000000000000000000000000000000081526004016118c9906139fb565b60405180910390fd5b6000600860008c8152602001908152602001600020600001541461192b576040517f08c379a000000000000000000000000000000000000000000000000000000000815260040161192290613b7b565b60405180910390fd5b6060611935612be6565b6040518061014001604052808d81526020018c81526020018b81526020018a81526020018981526020018881526020018381526020018781526020018681526020018573ffffffffffffffffffffffffffffffffffffffff1681525090508b600960008673ffffffffffffffffffffffffffffffffffffffff1673ffffffffffffffffffffffffffffffffffffffff1681526020019081526020016000208190555080600860008e8152602001908152602001600020600082015181600001556020820151816001015560408201518160020155606082015181600301556080820151816004015560a0820151816005015560c0820151816006019080519060200190611a43929190612ced565b5060e0820151816007019080519060200190611a60929190612b66565b5061010082015181600801556101208201518160090160006101000a81548173ffffffffffffffffffffffffffffffffffffffff021916908373ffffffffffffffffffffffffffffffffffffffff160217905550905050505050505050505050505050565b60025481565b60008060009054906101000a900473ffffffffffffffffffffffffffffffffffffffff1673ffffffffffffffffffffffffffffffffffffffff163373ffffffffffffffffffffffffffffffffffffffff1614611b5c576040517f08c379a0000000000000000000000000000000000000000000000000000000008152600401611b53906139bb565b60405180910390fd5b6000809054906101000a900473ffffffffffffffffffffffffffffffffffffffff1673ffffffffffffffffffffffffffffffffffffffff168273ffffffffffffffffffffffffffffffffffffffff161415611bec576040517f08c379a0000000000000000000000000000000000000000000000000000000008152600401611be390613bbb565b60405180910390fd5b816000806101000a81548173ffffffffffffffffffffffffffffffffffffffff021916908373ffffffffffffffffffffffffffffffffffffffff1602179055506000809054906101000a900473ffffffffffffffffffffffffffffffffffffffff1673ffffffffffffffffffffffffffffffffffffffff163373ffffffffffffffffffffffffffffffffffffffff167fb532073b38c83145e3e5135377a08bf9aab55bc0fd7c1179cd4fb995d2a5159c60405160405180910390a360019050919050565b6000600660003373ffffffffffffffffffffffffffffffffffffffff1673ffffffffffffffffffffffffffffffffffffffff16815260200190815260200160002054905060008114158015611d1c57506000600560008381526020019081526020016000206000015414155b611d5b576040517f08c379a0000000000000000000000000000000000000000000000000000000008152600401611d52906139fb565b60405180910390fd5b600060086000888152602001908152602001600020600001541415611db5576040517f08c379a0000000000000000000000000000000000000000000000000000000008152600401611dac90613afb565b60405180910390fd5b611dbd612d3a565b6040518060e001604052806003548152602001898152602001888152602001878152602001868152602001858152602001848152509050806007600060035481526020019081526020016000206000820151816000015560208201518160010155604082015181600201556060820151816003019080519060200190611e44929190612b66565b506080820151816004019080519060200190611e61929190612b66565b5060a0820151816005019080519060200190611e7e929190612b66565b5060c082015181600601559050506008600088815260200190815260200160002060060160035490806001815401808255809150509060018203906000526020600020016000909192909190915055506003600081548092919060010191905055505050505050505050565b6000600960003373ffffffffffffffffffffffffffffffffffffffff1673ffffffffffffffffffffffffffffffffffffffff16815260200190815260200160002054905060008114158015611f5657506000600860008381526020019081526020016000206000015414155b611f95576040517f08c379a0000000000000000000000000000000000000000000000000000000008152600401611f8c90613b5b565b60405180910390fd5b611f9d612ca9565b600a600084815260200190815260200160002060405180608001604052908160008201548152602001600182015481526020016002820160009054906101000a900473ffffffffffffffffffffffffffffffffffffffff1673ffffffffffffffffffffffffffffffffffffffff1673ffffffffffffffffffffffffffffffffffffffff1681526020016003820154815250509050600081600001511415612079576040517f08c379a000000000000000000000000000000000000000000000000000000000815260040161207090613b1b565b60405180910390fd5b6000600960003373ffffffffffffffffffffffffffffffffffffffff1673ffffffffffffffffffffffffffffffffffffffff1681526020019081526020016000205490506001600c60008381526020019081526020016000206000846040015173ffffffffffffffffffffffffffffffffffffffff1673ffffffffffffffffffffffffffffffffffffffff16815260200190815260200160002060006101000a81548160ff02191690831515021790555050505050565b60045481565b61213e612c5e565b6000600660008473ffffffffffffffffffffffffffffffffffffffff1673ffffffffffffffffffffffffffffffffffffffff1681526020019081526020016000205414156121c1576040517f08c379a00000000000000000000000000000000000000000000000000000000081526004016121b890613b9b565b60405180910390fd5b6000600660008473ffffffffffffffffffffffffffffffffffffffff1673ffffffffffffffffffffffffffffffffffffffff16815260200190815260200160002054905060006005600083815260200190815260200160002060000154141561225f576040517f08c379a000000000000000000000000000000000000000000000000000000000815260040161225690613b9b565b60405180910390fd5b612267612c5e565b600560008381526020019081526020016000206040518060a00160405290816000820154815260200160018201548152602001600282018054600181600116156101000203166002900480601f0160208091040260200160405190810160405280929190818152602001828054600181600116156101000203166002900480156123325780601f1061230757610100808354040283529160200191612332565b820191906000526020600020905b81548152906001019060200180831161231557829003601f168201915b505050505081526020016003820160009054906101000a900473ffffffffffffffffffffffffffffffffffffffff1673ffffffffffffffffffffffffffffffffffffffff1673ffffffffffffffffffffffffffffffffffffffff16815260200160048201548152505090508092505050919050565b6060806060806060856000600660003373ffffffffffffffffffffffffffffffffffffffff1673ffffffffffffffffffffffffffffffffffffffff16815260200190815260200160002054905060011515600c600084815260200190815260200160002060003373ffffffffffffffffffffffffffffffffffffffff1673ffffffffffffffffffffffffffffffffffffffff16815260200190815260200160002060009054906101000a900460ff161515148061248857506000811415801561248757506000600560008381526020019081526020016000206000015414155b5b6124c7576040517f08c379a00000000000000000000000000000000000000000000000000000000081526004016124be9061397b565b60405180910390fd5b6124cf612be6565b600860008a8152602001908152602001600020604051806101400160405290816000820154815260200160018201548152602001600282015481526020016003820154815260200160048201548152602001600582015481526020016006820180548060200260200160405190810160405280929190818152602001828054801561257957602002820191906000526020600020905b815481526020019060010190808311612565575b50505050508152602001600782018054600181600116156101000203166002900480601f01602080910402602001604051908101604052809291908181526020018280546001816001161561010002031660029004801561261b5780601f106125f05761010080835404028352916020019161261b565b820191906000526020600020905b8154815290600101906020018083116125fe57829003601f168201915b50505050508152602001600882015481526020016009820160009054906101000a900473ffffffffffffffffffffffffffffffffffffffff1673ffffffffffffffffffffffffffffffffffffffff1673ffffffffffffffffffffffffffffffffffffffff168152505090506000891415801561269c57506000816000015114155b6126db576040517f08c379a00000000000000000000000000000000000000000000000000000000081526004016126d290613adb565b60405180910390fd5b60008160c001515111612723576040517f08c379a000000000000000000000000000000000000000000000000000000000815260040161271a90613a1b565b60405180910390fd5b60008160c0015151905060608260c0015190506060826040519080825280602002602001820160405280156127675781602001602082028038833980820191505090505b5090506060836040519080825280602002602001820160405280156127a057816020015b606081526020019060019003908161278b5790505b5090506060846040519080825280602002602001820160405280156127d957816020015b60608152602001906001900390816127c45790505b50905060608560405190808252806020026020018201604052801561281257816020015b60608152602001906001900390816127fd5790505b5090506060866040519080825280602002602001820160405280156128465781602001602082028038833980820191505090505b50905060008090505b8651811015612b3d57612860612d3a565b6007600089848151811061287057fe5b602002602001015181526020019081526020016000206040518060e0016040529081600082015481526020016001820154815260200160028201548152602001600382018054600181600116156101000203166002900480601f0160208091040260200160405190810160405280929190818152602001828054600181600116156101000203166002900480156129485780601f1061291d57610100808354040283529160200191612948565b820191906000526020600020905b81548152906001019060200180831161292b57829003601f168201915b50505050508152602001600482018054600181600116156101000203166002900480601f0160208091040260200160405190810160405280929190818152602001828054600181600116156101000203166002900480156129ea5780601f106129bf576101008083540402835291602001916129ea565b820191906000526020600020905b8154815290600101906020018083116129cd57829003601f168201915b50505050508152602001600582018054600181600116156101000203166002900480601f016020809104026020016040519081016040528092919081815260200182805460018160011615610100020316600290048015612a8c5780601f10612a6157610100808354040283529160200191612a8c565b820191906000526020600020905b815481529060010190602001808311612a6f57829003601f168201915b5050505050815260200160068201548152505090508060200151878381518110612ab257fe5b6020026020010181815250508060600151868381518110612acf57fe5b60200260200101819052508060800151858381518110612aeb57fe5b60200260200101819052508060a00151848381518110612b0757fe5b60200260200101819052508060c00151838381518110612b2357fe5b60200260200101818152505050808060010191505061284f565b5084848484849e509e509e509e509e505050505050505050505091939590929450565b60035481565b828054600181600116156101000203166002900490600052602060002090601f016020900481019282601f10612ba757805160ff1916838001178555612bd5565b82800160010185558215612bd5579182015b82811115612bd4578251825591602001919060010190612bb9565b5b509050612be29190612d7a565b5090565b604051806101400160405280600081526020016000801916815260200160008019168152602001600080191681526020016000801916815260200160008152602001606081526020016060815260200160008019168152602001600073ffffffffffffffffffffffffffffffffffffffff1681525090565b6040518060a00160405280600081526020016000801916815260200160608152602001600073ffffffffffffffffffffffffffffffffffffffff168152602001600080191681525090565b60405180608001604052806000815260200160008019168152602001600073ffffffffffffffffffffffffffffffffffffffff168152602001600080191681525090565b828054828255906000526020600020908101928215612d29579160200282015b82811115612d28578251825591602001919060010190612d0d565b5b509050612d369190612d7a565b5090565b6040518060e00160405280600081526020016000815260200160008152602001606081526020016060815260200160608152602001600080191681525090565b612d9c91905b80821115612d98576000816000905550600101612d80565b5090565b90565b600081359050612dae81613e8d565b92915050565b600081359050612dc381613ea4565b92915050565b600082601f830112612dda57600080fd5b8135612ded612de882613cd9565b613cac565b91508082526020830160208301858383011115612e0957600080fd5b612e14838284613e3a565b50505092915050565b600081359050612e2c81613ebb565b92915050565b600060208284031215612e4457600080fd5b6000612e5284828501612d9f565b91505092915050565b600080600060608486031215612e7057600080fd5b6000612e7e86828701612db4565b9350506020612e8f86828701612d9f565b9250506040612ea086828701612db4565b9150509250925092565b60008060008060808587031215612ec057600080fd5b6000612ece87828801612db4565b945050602085013567ffffffffffffffff811115612eeb57600080fd5b612ef787828801612dc9565b9350506040612f0887828801612d9f565b9250506060612f1987828801612db4565b91505092959194509250565b600060208284031215612f3757600080fd5b6000612f4584828501612e1d565b91505092915050565b60008060008060008060008060006101208a8c031215612f6d57600080fd5b6000612f7b8c828d01612e1d565b9950506020612f8c8c828d01612db4565b9850506040612f9d8c828d01612db4565b9750506060612fae8c828d01612db4565b9650506080612fbf8c828d01612db4565b95505060a0612fd08c828d01612e1d565b94505060c08a013567ffffffffffffffff811115612fed57600080fd5b612ff98c828d01612dc9565b93505060e061300a8c828d01612db4565b92505061010061301c8c828d01612d9f565b9150509295985092959850929598565b60008060008060008060c0878903121561304557600080fd5b600061305389828a01612e1d565b965050602061306489828a01612e1d565b955050604087013567ffffffffffffffff81111561308157600080fd5b61308d89828a01612dc9565b945050606087013567ffffffffffffffff8111156130aa57600080fd5b6130b689828a01612dc9565b935050608087013567ffffffffffffffff8111156130d357600080fd5b6130df89828a01612dc9565b92505060a06130f089828a01612db4565b9150509295509295509295565b6000613109838361329f565b60208301905092915050565b600061312183836132f6565b905092915050565b600061313583836138b1565b60208301905092915050565b61314a81613de8565b82525050565b61315981613de8565b82525050565b600061316a82613d35565b6131748185613d93565b935061317f83613d05565b8060005b838110156131b057815161319788826130fd565b97506131a283613d6c565b925050600181019050613183565b5085935050505092915050565b60006131c882613d40565b6131d28185613da4565b9350836020820285016131e485613d15565b8060005b8581101561322057848403895281516132018582613115565b945061320c83613d79565b925060208a019950506001810190506131e8565b50829750879550505050505092915050565b600061323d82613d4b565b6132478185613db5565b935061325283613d25565b8060005b8381101561328357815161326a8882613129565b975061327583613d86565b925050600181019050613256565b5085935050505092915050565b61329981613dfa565b82525050565b6132a881613e06565b82525050565b6132b781613e06565b82525050565b60006132c882613d61565b6132d28185613dd7565b93506132e2818560208601613e49565b6132eb81613e7c565b840191505092915050565b600061330182613d56565b61330b8185613dc6565b935061331b818560208601613e49565b61332481613e7c565b840191505092915050565b600061333c601983613dd7565b91507f4f6e6c7920617574686f726973656420616464726573736564000000000000006000830152602082019050919050565b600061337c602183613dd7565b91507f416c7265616479207265676973746572656420617320616e20686f737069746160008301527f6c000000000000000000000000000000000000000000000000000000000000006020830152604082019050919050565b60006133e2600a83613dd7565b91507f4f6e6c79206f776e6572000000000000000000000000000000000000000000006000830152602082019050919050565b6000613422601883613dd7565b91507f596f752061726520616c726561647920616e2061646d696e00000000000000006000830152602082019050919050565b6000613462601a83613dd7565b91507f4f6e6c7920686f73706974616c732061726520616c6c6f7765640000000000006000830152602082019050919050565b60006134a2600f83613dd7565b91507f4e6f207265636f726420666f756e6400000000000000000000000000000000006000830152602082019050919050565b60006134e2601983613dd7565b91507f596f7520617265206e6f742061646d696e20616c7265616479000000000000006000830152602082019050919050565b6000613522601b83613dd7565b91507f4f7267616e697a6174696f6e20616c72656164792065786973747300000000006000830152602082019050919050565b6000613562601683613dd7565b91507f416c7265616479206e6f7420617574686f7269736564000000000000000000006000830152602082019050919050565b60006135a2602383613dd7565b91507f4f776e65722063616e6e6f742062652072656d6f76656420617320616e20616460008301527f6d696e00000000000000000000000000000000000000000000000000000000006020830152604082019050919050565b6000613608601783613dd7565b91507f4e6f207375636820686f73707469616c206578697374730000000000000000006000830152602082019050919050565b6000613648601583613dd7565b91507f4e6f20737563682070617469656e7420666f756e6400000000000000000000006000830152602082019050919050565b6000613688601a83613dd7565b91507f5468652070617469656e7420646f6573206e6f742065786973740000000000006000830152602082019050919050565b60006136c8601a83613dd7565b91507f4e6f2073756368206f7267616e697a6174696f6e20666f756e640000000000006000830152602082019050919050565b6000613708600a83613dd7565b91507f4f6e6c792041646d696e000000000000000000000000000000000000000000006000830152602082019050919050565b6000613748601783613dd7565b91507f4f6e6c792070617469656e7420697320616c6c6f7765640000000000000000006000830152602082019050919050565b6000613788601683613dd7565b91507f50617469656e7420616c726561647920657869737473000000000000000000006000830152602082019050919050565b60006137c8601683613dd7565b91507f4e6f207375636820686f73706974616c206578697374000000000000000000006000830152602082019050919050565b6000613808601983613dd7565b91507f596f752061726520746865206f776e657220616c7265616479000000000000006000830152602082019050919050565b600060a08301600083015161385360008601826138b1565b506020830151613866602086018261329f565b506040830151848203604086015261387e82826132f6565b91505060608301516138936060860182613141565b5060808301516138a6608086018261329f565b508091505092915050565b6138ba81613e30565b82525050565b6138c981613e30565b82525050565b60006020820190506138e46000830184613150565b92915050565b600060a08201905081810360008301526139048188613232565b9050818103602083015261391881876131bd565b9050818103604083015261392c81866131bd565b9050818103606083015261394081856131bd565b90508181036080830152613954818461315f565b90509695505050505050565b60006020820190506139756000830184613290565b92915050565b600060208201905081810360008301526139948161332f565b9050919050565b600060208201905081810360008301526139b48161336f565b9050919050565b600060208201905081810360008301526139d4816133d5565b9050919050565b600060208201905081810360008301526139f481613415565b9050919050565b60006020820190508181036000830152613a1481613455565b9050919050565b60006020820190508181036000830152613a3481613495565b9050919050565b60006020820190508181036000830152613a54816134d5565b9050919050565b60006020820190508181036000830152613a7481613515565b9050919050565b60006020820190508181036000830152613a9481613555565b9050919050565b60006020820190508181036000830152613ab481613595565b9050919050565b60006020820190508181036000830152613ad4816135fb565b9050919050565b60006020820190508181036000830152613af48161363b565b9050919050565b60006020820190508181036000830152613b148161367b565b9050919050565b60006020820190508181036000830152613b34816136bb565b9050919050565b60006020820190508181036000830152613b54816136fb565b9050919050565b60006020820190508181036000830152613b748161373b565b9050919050565b60006020820190508181036000830152613b948161377b565b9050919050565b60006020820190508181036000830152613bb4816137bb565b9050919050565b60006020820190508181036000830152613bd4816137fb565b9050919050565b60006020820190508181036000830152613bf5818461383b565b905092915050565b6000602082019050613c1260008301846138c0565b92915050565b600061012082019050613c2e600083018c6138c0565b613c3b602083018b6132ae565b613c48604083018a6132ae565b613c5560608301896132ae565b613c6260808301886132ae565b613c6f60a08301876138c0565b81810360c0830152613c8181866132bd565b9050613c9060e08301856132ae565b613c9e610100830184613150565b9a9950505050505050505050565b6000604051905081810181811067ffffffffffffffff82111715613ccf57600080fd5b8060405250919050565b600067ffffffffffffffff821115613cf057600080fd5b601f19601f8301169050602081019050919050565b6000819050602082019050919050565b6000819050602082019050919050565b6000819050602082019050919050565b600081519050919050565b600081519050919050565b600081519050919050565b600081519050919050565b600081519050919050565b6000602082019050919050565b6000602082019050919050565b6000602082019050919050565b600082825260208201905092915050565b600082825260208201905092915050565b600082825260208201905092915050565b600082825260208201905092915050565b600082825260208201905092915050565b6000613df382613e10565b9050919050565b60008115159050919050565b6000819050919050565b600073ffffffffffffffffffffffffffffffffffffffff82169050919050565b6000819050919050565b82818337600083830152505050565b60005b83811015613e67578082015181840152602081019050613e4c565b83811115613e76576000848401525b50505050565b6000601f19601f8301169050919050565b613e9681613de8565b8114613ea157600080fd5b50565b613ead81613e06565b8114613eb857600080fd5b50565b613ec481613e30565b8114613ecf57600080fd5b5056fea365627a7a723158200d8bb928ecd15c95210d76a784b7fb1c53be899c7c9c77168762a6ed93b490336c6578706572696d656e74616cf564736f6c63430005100040",
  "source": "// SPDX-License-Identifier: MIT\npragma solidity >=0.4.22 <0.9.0;\npragma experimental ABIEncoderV2;\n\nimport {Ownable} from \"./Ownable.sol\";\n\ncontract DMed is Ownable {\n    struct Hospital {\n        uint256 id;\n        bytes32 name;\n        string physicalAddress;\n        address walletAddress;\n        bytes32 License;\n    }\n\n    struct Record {\n        uint256 id;\n        uint256 hospitalId;\n        uint256 patientId;\n        string condition;\n        string description;\n        string allergies;\n        bytes32 Document;\n    }\n\n    struct Patient {\n        uint256 id;\n        bytes32 name;\n        bytes32 gender;\n        bytes32 bloodGroup;\n        bytes32 DOB;\n        uint256 phoneNumber;\n        uint256[] records;\n        string physicalAddress;\n        bytes32 profilePicture;\n        address walletAddress;\n    }\n\n    struct Organization {\n        uint256 id;\n        bytes32 name;\n        address walletAddress;\n        bytes32 License;\n    }\n\n    uint256 public hospitalId = 1;\n    uint256 public recordId = 1;\n    uint256 public organizationId = 1;\n\n    // to map hospitalId to Hospital Struct\n    mapping(uint256 => Hospital) private hospitals;\n\n    // mapping to check if an address is already a registered hospital or not\n    mapping(address => uint256) private hospitalToId;\n\n    // to map medical record id to Record struct\n    mapping(uint256 => Record) private records;\n\n    // to map paitentId to Patient Struct\n    mapping(uint256 => Patient) private patients;\n\n    // mapping from patient address to patient id\n    mapping(address => uint256) private patientToId;\n\n    // to map government authorities Authorities Struct\n    mapping(uint256 => Organization) private organizations;\n\n    // mapping from organization address to id\n    mapping(address => uint256) private organizationToId;\n\n    // nested mapping of (patientId) => ((address of authority)) => (isAuthorised ?))\n    mapping(uint256 => mapping(address => bool)) private authorised;\n\n    /* \n        - function to add new hospitals. \n        - Callable by only admins. \n        - receive name of hospital, address of hosptial, wallet of hospital, and IPFS Hash of document\n        - emits an event for adding new hospital\n    */\n    function addHospital(\n        bytes32 name,\n        string memory physicalAddress,\n        address walletAddress,\n        bytes32 license\n    ) public onlyAdmin {\n        require(\n            hospitalToId[walletAddress] == 0,\n            \"Already registered as an hospital\"\n        );\n        hospitals[hospitalId] = Hospital(\n            hospitalId,\n            name,\n            physicalAddress,\n            walletAddress,\n            license\n        );\n        hospitalToId[walletAddress] = hospitalId;\n        hospitalId++;\n    }\n\n    /*\n        - function to get hopital with the given id\n        - check if any hosptial exists with the given Id\n        - If the hosptial exists then we return it \n    */\n    function getHospitalById(uint256 _id)\n        public\n        view\n        returns (Hospital memory)\n    {\n        require(hospitals[_id].id != 0, \"No such hosptial exists\");\n        Hospital memory hosp = hospitals[_id];\n        return hosp;\n    }\n\n    /*\n        - function to get hopital having the specified address\n        - firstly checks if the given address exists in the mapping from hospitalAddress to Id\n        - now we check if any hosptial exists with the returned Id\n        - If the hosptial exists then we return it \n    */\n    function getHosptialByAddress(address _address)\n        public\n        view\n        returns (Hospital memory)\n    {\n        require(hospitalToId[_address] != 0, \"No such hospital exist\");\n        uint256 _id = hospitalToId[_address];\n        require(hospitals[_id].id != 0, \"No such hospital exist\");\n        Hospital memory hosp = hospitals[_id];\n        return hosp;\n    }\n\n    /*\n        - function to add new records of an existing patient.\n        - if the patient already exists then we make a new Record variable\n        - map the created record to its recordId\n        - add the recordId to the list of records of the patient\n        - increment the recordId\n    */\n    function addNewRecord(\n        uint256 _hospitalId,\n        uint256 _patientId,\n        string memory _condition,\n        string memory _description,\n        string memory _allergies,\n        bytes32 _document\n    ) public onlyHospital {\n        require(patients[_patientId].id != 0, \"The patient does not exist\");\n        Record memory rec = Record(\n            recordId,\n            _hospitalId,\n            _patientId,\n            _condition,\n            _description,\n            _allergies,\n            _document\n        );\n        records[recordId] = rec;\n        patients[_patientId].records.push(recordId);\n        recordId++;\n    }\n\n    /*\n        - function to add new patients\n        - we check if the given patient id aleady exists\n        - if does not exist then we make a new Patient varible\n        - add the constructed varible to patients mapping\n        - add the patientId to the mapping of patient address to patient Id\n    */\n    function addNewPatient(\n        uint256 _id,\n        bytes32 _name,\n        bytes32 _gender,\n        bytes32 _bloodGroup,\n        bytes32 _dob,\n        uint256 _phoneNumber,\n        string memory _physicalAddress,\n        bytes32 _profilePicture,\n        address _walletAddress\n    ) public onlyHospital {\n        require(patients[_id].id == 0, \"Patient already exists\");\n\n        uint256[] memory _records;\n        Patient memory pat = Patient(\n            _id,\n            _name,\n            _gender,\n            _bloodGroup,\n            _dob,\n            _phoneNumber,\n            _records,\n            _physicalAddress,\n            _profilePicture,\n            _walletAddress\n        );\n\n        patientToId[_walletAddress] = _id;\n        patients[_id] = pat;\n    }\n\n    /* \n        - function to add new organizations. \n        - Callable by only admins. \n        - receive name of organiation, _walletAddress of organization, and IPFS Hash of document\n    */\n    function addOrganization(\n        bytes32 _name,\n        address _walletAddress,\n        bytes32 _license\n    ) public onlyAdmin {\n        require(\n            organizationToId[_walletAddress] == 0,\n            \"Organization already exists\"\n        );\n        organizations[organizationId] = Organization(\n            organizationId,\n            _name,\n            _walletAddress,\n            _license\n        );\n        organizationToId[_walletAddress] = organizationId;\n\n        organizationId++;\n    }\n\n    /*\n        - function to give access authority to addresses\n        - message sender must be the patient\n        - if all condition pass add id of patient and address to authorised mapping\n    */\n    function addAuthByAddress(address addr) public onlyPatient {\n        uint256 _id = patientToId[msg.sender];\n        authorised[_id][addr] = true;\n    }\n\n    /*\n        - function to give access authority to an organization\n        - message sender must be the patient\n        - firstly check if organization with the given id exist or not\n        - if all conditions pass add id of patient and address of the organization to the mapping\n    */\n    function addAuthById(uint256 _id) public onlyPatient {\n        Organization memory org = organizations[_id];\n        require(org.id != 0, \"No such organization found\");\n        uint256 patientId = patientToId[msg.sender];\n        authorised[patientId][org.walletAddress] = true;\n    }\n\n    /*\n        - function to remove access rights from some address\n        - message sender must be the patient\n        - check if the given address has the access authorities\n        - if all conditions check, remove the mapping of id and address\n    */\n    function revokeAuthByAddress(address addr) public onlyPatient {\n        uint256 _id = patientToId[msg.sender];\n        require(authorised[_id][addr] == true, \"Already not authorised\");\n\n        authorised[_id][addr] = false;\n    }\n\n    /*\n        - function to remove access authority from an organization\n        - message sender must be the patient\n        - check if the given organization exists or not\n        - check if the given organization has the access authorities\n        - if all conditions check, remove the mapping of id and address\n    */\n    function revokeAuthById(uint256 _id) public onlyPatient {\n        Organization memory org = organizations[_id];\n        require(org.id != 0, \"No such organization found\");\n        uint256 patientId = patientToId[msg.sender];\n\n        require(\n            authorised[patientId][org.walletAddress] == true,\n            \"Already not authorised\"\n        );\n        authorised[patientId][org.walletAddress] = false;\n    }\n\n    /*\n        - function to get the details of the patient \n        - this function is callable by either a hospital or an authorised address\n        - we check if the given id is a valid patient or not\n        - if all checks pass, we return all the data of the patient except list of its records\n    */\n    function getPatientDetails(uint256 _id)\n        public\n        view\n        onlyAuthorised(_id)\n        returns (\n            uint256,\n            bytes32,\n            bytes32,\n            bytes32,\n            bytes32,\n            uint256,\n            string memory,\n            bytes32,\n            address\n        )\n    {\n        require(_id != 0 && patients[_id].id != 0, \"No such patient found\");\n        Patient memory pat = patients[_id];\n        return (\n            pat.id,\n            pat.name,\n            pat.gender,\n            pat.bloodGroup,\n            pat.DOB,\n            pat.phoneNumber,\n            pat.physicalAddress,\n            pat.profilePicture,\n            pat.walletAddress\n        );\n    }\n\n    /*\n        - function to get all the records of the given patient\n        - this function is callable by only either a registered hospital or an authorised address\n        - it checks if the patient with the given id exists or not\n        - it checks if the number of records of the given patient is greater than 0 or not\n        - we create an array for each of the attributes\n        - we return all the attributes except patientId and records own id\n        - loop through all the records in the recordId array of the patient and fill the array as specified\n        - return all the filled arrays\n    */\n    function getPatientRecords(uint256 _id)\n        public\n        view\n        onlyAuthorised(_id)\n        returns (\n            uint256[] memory,\n            string[] memory,\n            string[] memory,\n            string[] memory,\n            bytes32[] memory\n        )\n    {\n        Patient memory patient = patients[_id];\n        require(_id != 0 && patient.id != 0, \"No such patient found\");\n        require(patient.records.length > 0, \"No record found\");\n\n        uint256 len = patient.records.length;\n        uint256[] memory rec = patient.records;\n\n        uint256[] memory hosId = new uint256[](len);\n        string[] memory cond = new string[](len);\n        string[] memory desc = new string[](len);\n        string[] memory aller = new string[](len);\n        bytes32[] memory docs = new bytes32[](len);\n\n        for (uint256 i = 0; i < rec.length; i++) {\n            Record memory curr = records[rec[i]];\n            hosId[i] = curr.hospitalId;\n            cond[i] = curr.condition;\n            desc[i] = curr.description;\n            aller[i] = curr.allergies;\n            docs[i] = curr.Document;\n        }\n\n        return (hosId, cond, desc, aller, docs);\n    }\n\n    modifier onlyAuthorised(uint256 _id) {\n        uint256 hosId = hospitalToId[msg.sender];\n        require(\n            (authorised[_id][msg.sender] == true) ||\n                (hosId != 0 && hospitals[hosId].id != 0),\n            \"Only authorised addressed\"\n        );\n        _;\n    }\n\n    modifier onlyPatient() {\n        uint256 _id = patientToId[msg.sender];\n        require(_id != 0 && patients[_id].id != 0, \"Only patient is allowed\");\n        _;\n    }\n\n    modifier onlyHospital() {\n        uint256 _id = hospitalToId[msg.sender];\n        require(\n            _id != 0 && hospitals[_id].id != 0,\n            \"Only hospitals are allowed\"\n        );\n        _;\n    }\n}\n",
  "sourcePath": "C:\\Users\\priya\\OneDrive\\Desktop\\Projects\\Decentralized Medical Record\\contracts\\DMed.sol",
  "compiler": {
    "name": "solc",
    "version": "0.5.16+commit.9c3226ce.Emscripten.clang"
  },
  "schemaVersion": "3.4.3",
  "updatedAt": "2021-11-20T09:32:21.266Z",
  "networkType": "ethereum",
  "devdoc": {
    "methods": {}
  },
  "userdoc": {
    "methods": {}
  }
}