{
  "contractName": "DMed",
  "abi": [
    {
      "anonymous": false,
      "inputs": [
        {
          "indexed": true,
          "internalType": "address",
          "name": "Admin_Address",
          "type": "address"
        }
      ],
      "name": "AdminAdded",
      "type": "event"
    },
    {
      "anonymous": false,
      "inputs": [
        {
          "indexed": true,
          "internalType": "address",
          "name": "Admin_Address",
          "type": "address"
        }
      ],
      "name": "AdminRemoved",
      "type": "event"
    },
    {
      "anonymous": false,
      "inputs": [
        {
          "indexed": true,
          "internalType": "address",
          "name": "_from",
          "type": "address"
        },
        {
          "indexed": true,
          "internalType": "address",
          "name": "_to",
          "type": "address"
        }
      ],
      "name": "OwnerChanged",
      "type": "event"
    },
    {
      "constant": false,
      "inputs": [
        {
          "internalType": "address",
          "name": "_admin",
          "type": "address"
        }
      ],
      "name": "addAdmin",
      "outputs": [
        {
          "internalType": "bool",
          "name": "",
          "type": "bool"
        }
      ],
      "payable": false,
      "stateMutability": "nonpayable",
      "type": "function"
    },
    {
      "constant": true,
      "inputs": [
        {
          "internalType": "uint256",
          "name": "",
          "type": "uint256"
        },
        {
          "internalType": "address",
          "name": "",
          "type": "address"
        }
      ],
      "name": "authorised",
      "outputs": [
        {
          "internalType": "bool",
          "name": "",
          "type": "bool"
        }
      ],
      "payable": false,
      "stateMutability": "view",
      "type": "function"
    },
    {
      "constant": false,
      "inputs": [
        {
          "internalType": "address",
          "name": "_newOwner",
          "type": "address"
        }
      ],
      "name": "changeOwner",
      "outputs": [
        {
          "internalType": "bool",
          "name": "",
          "type": "bool"
        }
      ],
      "payable": false,
      "stateMutability": "nonpayable",
      "type": "function"
    },
    {
      "constant": true,
      "inputs": [],
      "name": "hospitalId",
      "outputs": [
        {
          "internalType": "uint256",
          "name": "",
          "type": "uint256"
        }
      ],
      "payable": false,
      "stateMutability": "view",
      "type": "function"
    },
    {
      "constant": true,
      "inputs": [
        {
          "internalType": "address",
          "name": "",
          "type": "address"
        }
      ],
      "name": "hospitalToId",
      "outputs": [
        {
          "internalType": "uint256",
          "name": "",
          "type": "uint256"
        }
      ],
      "payable": false,
      "stateMutability": "view",
      "type": "function"
    },
    {
      "constant": true,
      "inputs": [
        {
          "internalType": "uint256",
          "name": "",
          "type": "uint256"
        }
      ],
      "name": "hospitals",
      "outputs": [
        {
          "internalType": "uint256",
          "name": "id",
          "type": "uint256"
        },
        {
          "internalType": "bytes32",
          "name": "name",
          "type": "bytes32"
        },
        {
          "internalType": "bytes32",
          "name": "physicalAddress",
          "type": "bytes32"
        },
        {
          "internalType": "address",
          "name": "walletAddress",
          "type": "address"
        },
        {
          "internalType": "bytes32",
          "name": "License",
          "type": "bytes32"
        }
      ],
      "payable": false,
      "stateMutability": "view",
      "type": "function"
    },
    {
      "constant": true,
      "inputs": [],
      "name": "organizationId",
      "outputs": [
        {
          "internalType": "uint256",
          "name": "",
          "type": "uint256"
        }
      ],
      "payable": false,
      "stateMutability": "view",
      "type": "function"
    },
    {
      "constant": true,
      "inputs": [
        {
          "internalType": "uint256",
          "name": "",
          "type": "uint256"
        }
      ],
      "name": "organizations",
      "outputs": [
        {
          "internalType": "uint256",
          "name": "id",
          "type": "uint256"
        },
        {
          "internalType": "bytes32",
          "name": "name",
          "type": "bytes32"
        },
        {
          "internalType": "address",
          "name": "walletAddress",
          "type": "address"
        },
        {
          "internalType": "bytes32",
          "name": "License",
          "type": "bytes32"
        }
      ],
      "payable": false,
      "stateMutability": "view",
      "type": "function"
    },
    {
      "constant": true,
      "inputs": [
        {
          "internalType": "address",
          "name": "",
          "type": "address"
        }
      ],
      "name": "patientToId",
      "outputs": [
        {
          "internalType": "uint256",
          "name": "",
          "type": "uint256"
        }
      ],
      "payable": false,
      "stateMutability": "view",
      "type": "function"
    },
    {
      "constant": true,
      "inputs": [
        {
          "internalType": "uint256",
          "name": "",
          "type": "uint256"
        }
      ],
      "name": "patients",
      "outputs": [
        {
          "internalType": "uint256",
          "name": "id",
          "type": "uint256"
        },
        {
          "internalType": "bytes32",
          "name": "name",
          "type": "bytes32"
        },
        {
          "internalType": "bytes32",
          "name": "gender",
          "type": "bytes32"
        },
        {
          "internalType": "bytes32",
          "name": "bloodGroup",
          "type": "bytes32"
        },
        {
          "internalType": "bytes32",
          "name": "DOB",
          "type": "bytes32"
        },
        {
          "internalType": "uint256",
          "name": "phoneNumber",
          "type": "uint256"
        },
        {
          "internalType": "bytes32",
          "name": "physicalAddress",
          "type": "bytes32"
        },
        {
          "internalType": "bytes32",
          "name": "profilePicture",
          "type": "bytes32"
        },
        {
          "internalType": "address",
          "name": "walletAddress",
          "type": "address"
        }
      ],
      "payable": false,
      "stateMutability": "view",
      "type": "function"
    },
    {
      "constant": true,
      "inputs": [],
      "name": "recordId",
      "outputs": [
        {
          "internalType": "uint256",
          "name": "",
          "type": "uint256"
        }
      ],
      "payable": false,
      "stateMutability": "view",
      "type": "function"
    },
    {
      "constant": true,
      "inputs": [
        {
          "internalType": "uint256",
          "name": "",
          "type": "uint256"
        }
      ],
      "name": "records",
      "outputs": [
        {
          "internalType": "uint256",
          "name": "id",
          "type": "uint256"
        },
        {
          "internalType": "uint256",
          "name": "hospitalId",
          "type": "uint256"
        },
        {
          "internalType": "uint256",
          "name": "patientId",
          "type": "uint256"
        },
        {
          "internalType": "bytes32",
          "name": "condition",
          "type": "bytes32"
        },
        {
          "internalType": "bytes32",
          "name": "description",
          "type": "bytes32"
        },
        {
          "internalType": "bytes32",
          "name": "allergies",
          "type": "bytes32"
        },
        {
          "internalType": "bytes32",
          "name": "Document",
          "type": "bytes32"
        }
      ],
      "payable": false,
      "stateMutability": "view",
      "type": "function"
    },
    {
      "constant": false,
      "inputs": [
        {
          "internalType": "address",
          "name": "_admin",
          "type": "address"
        }
      ],
      "name": "removeAdmin",
      "outputs": [
        {
          "internalType": "bool",
          "name": "",
          "type": "bool"
        }
      ],
      "payable": false,
      "stateMutability": "nonpayable",
      "type": "function"
    },
    {
      "constant": false,
      "inputs": [
        {
          "internalType": "bytes32",
          "name": "name",
          "type": "bytes32"
        },
        {
          "internalType": "bytes32",
          "name": "physicalAddress",
          "type": "bytes32"
        },
        {
          "internalType": "address",
          "name": "walletAddress",
          "type": "address"
        },
        {
          "internalType": "bytes32",
          "name": "license",
          "type": "bytes32"
        }
      ],
      "name": "addHospital",
      "outputs": [],
      "payable": false,
      "stateMutability": "nonpayable",
      "type": "function"
    },
    {
      "constant": true,
      "inputs": [
        {
          "internalType": "address",
          "name": "_address",
          "type": "address"
        }
      ],
      "name": "getHosptialByAddress",
      "outputs": [
        {
          "components": [
            {
              "internalType": "uint256",
              "name": "id",
              "type": "uint256"
            },
            {
              "internalType": "bytes32",
              "name": "name",
              "type": "bytes32"
            },
            {
              "internalType": "bytes32",
              "name": "physicalAddress",
              "type": "bytes32"
            },
            {
              "internalType": "address",
              "name": "walletAddress",
              "type": "address"
            },
            {
              "internalType": "bytes32",
              "name": "License",
              "type": "bytes32"
            }
          ],
          "internalType": "struct DMed.Hospital",
          "name": "",
          "type": "tuple"
        }
      ],
      "payable": false,
      "stateMutability": "view",
      "type": "function"
    },
    {
      "constant": false,
      "inputs": [
        {
          "internalType": "uint256",
          "name": "_hospitalId",
          "type": "uint256"
        },
        {
          "internalType": "uint256",
          "name": "_patientId",
          "type": "uint256"
        },
        {
          "internalType": "bytes32",
          "name": "_condition",
          "type": "bytes32"
        },
        {
          "internalType": "bytes32",
          "name": "_description",
          "type": "bytes32"
        },
        {
          "internalType": "bytes32",
          "name": "_allergies",
          "type": "bytes32"
        },
        {
          "internalType": "bytes32",
          "name": "_document",
          "type": "bytes32"
        }
      ],
      "name": "addNewRecord",
      "outputs": [],
      "payable": false,
      "stateMutability": "nonpayable",
      "type": "function"
    },
    {
      "constant": false,
      "inputs": [
        {
          "internalType": "uint256",
          "name": "_id",
          "type": "uint256"
        },
        {
          "internalType": "bytes32",
          "name": "_name",
          "type": "bytes32"
        },
        {
          "internalType": "bytes32",
          "name": "_gender",
          "type": "bytes32"
        },
        {
          "internalType": "bytes32",
          "name": "_bloodGroup",
          "type": "bytes32"
        },
        {
          "internalType": "bytes32",
          "name": "_dob",
          "type": "bytes32"
        },
        {
          "internalType": "uint256",
          "name": "_phoneNumber",
          "type": "uint256"
        },
        {
          "internalType": "bytes32",
          "name": "_physicalAddress",
          "type": "bytes32"
        },
        {
          "internalType": "bytes32",
          "name": "_profilePicture",
          "type": "bytes32"
        },
        {
          "internalType": "address",
          "name": "_walletAddress",
          "type": "address"
        }
      ],
      "name": "addNewPatient",
      "outputs": [],
      "payable": false,
      "stateMutability": "nonpayable",
      "type": "function"
    },
    {
      "constant": false,
      "inputs": [
        {
          "internalType": "bytes32",
          "name": "_name",
          "type": "bytes32"
        },
        {
          "internalType": "address",
          "name": "_walletAddress",
          "type": "address"
        },
        {
          "internalType": "bytes32",
          "name": "_license",
          "type": "bytes32"
        }
      ],
      "name": "addOrganization",
      "outputs": [],
      "payable": false,
      "stateMutability": "nonpayable",
      "type": "function"
    },
    {
      "constant": false,
      "inputs": [
        {
          "internalType": "address",
          "name": "addr",
          "type": "address"
        }
      ],
      "name": "addAuthByAddress",
      "outputs": [],
      "payable": false,
      "stateMutability": "nonpayable",
      "type": "function"
    },
    {
      "constant": false,
      "inputs": [
        {
          "internalType": "uint256",
          "name": "_id",
          "type": "uint256"
        }
      ],
      "name": "addAuthById",
      "outputs": [],
      "payable": false,
      "stateMutability": "nonpayable",
      "type": "function"
    },
    {
      "constant": false,
      "inputs": [
        {
          "internalType": "address",
          "name": "addr",
          "type": "address"
        }
      ],
      "name": "revokeAuthByAddress",
      "outputs": [],
      "payable": false,
      "stateMutability": "nonpayable",
      "type": "function"
    },
    {
      "constant": false,
      "inputs": [
        {
          "internalType": "uint256",
          "name": "_id",
          "type": "uint256"
        }
      ],
      "name": "revokeAuthById",
      "outputs": [],
      "payable": false,
      "stateMutability": "nonpayable",
      "type": "function"
    }
  ],
  "bytecode": "0x6080604052600160025560016003556001600455336000806101000a81548173ffffffffffffffffffffffffffffffffffffffff021916908373ffffffffffffffffffffffffffffffffffffffff16021790555060018060003373ffffffffffffffffffffffffffffffffffffffff1673ffffffffffffffffffffffffffffffffffffffff16815260200190815260200160002060006101000a81548160ff021916908315150217905550612dec806100b96000396000f3fe608060405234801561001057600080fd5b50600436106101425760003560e01c80639feb4788116100b8578063d116682d1161007c578063d116682d146103bd578063e2e80115146103ed578063e792dd8a14610409578063e9e09ad31461043c578063f54f9e1d1461046c578063f7dfe22b1461048857610142565b80639feb478814610307578063a6f9dae114610323578063b1763e0414610353578063baf1da2d14610383578063c471dc3a1461039f57610142565b80637516455c1161010a5780637516455c1461022957806375d884141461024557806381dc6fd21461026157806383ce80e11461029557806393119a83146102b15780639d2d428e146102e957610142565b80631785f53c1461014757806334461067146101775780633a64e7cb146101ad57806370480275146101c957806370d0d969146101f9575b600080fd5b610161600480360361015c91908101906121d0565b6104a6565b60405161016e919061293c565b60405180910390f35b610191600480360361018c91908101906122ab565b6106fe565b6040516101a49796959493929190612c92565b60405180910390f35b6101c760048036036101c291908101906121f9565b610740565b005b6101e360048036036101de91908101906121d0565b610968565b6040516101f0919061293c565b60405180910390f35b610213600480360361020e91908101906122d4565b610b2f565b604051610220919061293c565b60405180910390f35b610243600480360361023e91908101906122ab565b610b5e565b005b61025f600480360361025a91908101906121d0565b610e4c565b005b61027b600480360361027691908101906122ab565b61104d565b60405161028c959493929190612bb2565b60405180910390f35b6102af60048036036102aa91908101906121d0565b6110a3565b005b6102cb60048036036102c691908101906122ab565b611200565b6040516102e099989796959493929190612c05565b60405180910390f35b6102f161126e565b6040516102fe9190612b52565b60405180910390f35b610321600480360361031c9190810190612248565b611274565b005b61033d600480360361033891908101906121d0565b6114ad565b60405161034a919061293c565b60405180910390f35b61036d600480360361036891908101906121d0565b611692565b60405161037a9190612b52565b60405180910390f35b61039d600480360361039891908101906122ab565b6116aa565b005b6103a76118f0565b6040516103b49190612b52565b60405180910390f35b6103d760048036036103d291908101906121d0565b6118f6565b6040516103e49190612b37565b60405180910390f35b61040760048036036104029190810190612310565b611acf565b005b610423600480360361041e91908101906122ab565b611d5a565b6040516104339493929190612b6d565b60405180910390f35b610456600480360361045191908101906121d0565b611daa565b6040516104639190612b52565b60405180910390f35b610486600480360361048191908101906123d6565b611dc2565b005b610490611fc3565b60405161049d9190612b52565b60405180910390f35b60008060009054906101000a900473ffffffffffffffffffffffffffffffffffffffff1673ffffffffffffffffffffffffffffffffffffffff163373ffffffffffffffffffffffffffffffffffffffff1614610537576040517f08c379a000000000000000000000000000000000000000000000000000000000815260040161052e90612997565b60405180910390fd5b60011515600160008473ffffffffffffffffffffffffffffffffffffffff1673ffffffffffffffffffffffffffffffffffffffff16815260200190815260200160002060009054906101000a900460ff161515146105ca576040517f08c379a00000000000000000000000000000000000000000000000000000000081526004016105c1906129f7565b60405180910390fd5b6000809054906101000a900473ffffffffffffffffffffffffffffffffffffffff1673ffffffffffffffffffffffffffffffffffffffff168273ffffffffffffffffffffffffffffffffffffffff16141561065a576040517f08c379a000000000000000000000000000000000000000000000000000000000815260040161065190612a57565b60405180910390fd5b6000600160008473ffffffffffffffffffffffffffffffffffffffff1673ffffffffffffffffffffffffffffffffffffffff16815260200190815260200160002060006101000a81548160ff0219169083151502179055508173ffffffffffffffffffffffffffffffffffffffff167fa3b62bc36326052d97ea62d63c3d60308ed4c3ea8ac079dd8499f1e9c4f80c0f60405160405180910390a260019050919050565b60076020528060005260406000206000915090508060000154908060010154908060020154908060030154908060040154908060050154908060060154905087565b60011515600160003373ffffffffffffffffffffffffffffffffffffffff1673ffffffffffffffffffffffffffffffffffffffff16815260200190815260200160002060009054906101000a900460ff161515146107d3576040517f08c379a00000000000000000000000000000000000000000000000000000000081526004016107ca90612ab7565b60405180910390fd5b6000600b60008473ffffffffffffffffffffffffffffffffffffffff1673ffffffffffffffffffffffffffffffffffffffff1681526020019081526020016000205414610855576040517f08c379a000000000000000000000000000000000000000000000000000000000815260040161084c90612a17565b60405180910390fd5b604051806080016040528060045481526020018481526020018373ffffffffffffffffffffffffffffffffffffffff16815260200182815250600a60006004548152602001908152602001600020600082015181600001556020820151816001015560408201518160020160006101000a81548173ffffffffffffffffffffffffffffffffffffffff021916908373ffffffffffffffffffffffffffffffffffffffff16021790555060608201518160030155905050600454600b60008473ffffffffffffffffffffffffffffffffffffffff1673ffffffffffffffffffffffffffffffffffffffff16815260200190815260200160002081905550600460008154809291906001019190505550505050565b60008060009054906101000a900473ffffffffffffffffffffffffffffffffffffffff1673ffffffffffffffffffffffffffffffffffffffff163373ffffffffffffffffffffffffffffffffffffffff16146109f9576040517f08c379a00000000000000000000000000000000000000000000000000000000081526004016109f090612997565b60405180910390fd5b60001515600160008473ffffffffffffffffffffffffffffffffffffffff1673ffffffffffffffffffffffffffffffffffffffff16815260200190815260200160002060009054906101000a900460ff16151514610a8c576040517f08c379a0000000000000000000000000000000000000000000000000000000008152600401610a83906129b7565b60405180910390fd5b60018060008473ffffffffffffffffffffffffffffffffffffffff1673ffffffffffffffffffffffffffffffffffffffff16815260200190815260200160002060006101000a81548160ff0219169083151502179055508173ffffffffffffffffffffffffffffffffffffffff167f44d6d25963f097ad14f29f06854a01f575648a1ef82f30e562ccd3889717e33960405160405180910390a260019050919050565b600c6020528160005260406000206020528060005260406000206000915091509054906101000a900460ff1681565b6000600960003373ffffffffffffffffffffffffffffffffffffffff1673ffffffffffffffffffffffffffffffffffffffff16815260200190815260200160002054905060008114158015610bca57506000600860008381526020019081526020016000206000015414155b610c09576040517f08c379a0000000000000000000000000000000000000000000000000000000008152600401610c0090612957565b60405180910390fd5b610c11611fc9565b600a600084815260200190815260200160002060405180608001604052908160008201548152602001600182015481526020016002820160009054906101000a900473ffffffffffffffffffffffffffffffffffffffff1673ffffffffffffffffffffffffffffffffffffffff1673ffffffffffffffffffffffffffffffffffffffff1681526020016003820154815250509050600081600001511415610ced576040517f08c379a0000000000000000000000000000000000000000000000000000000008152600401610ce490612a97565b60405180910390fd5b6000600960003373ffffffffffffffffffffffffffffffffffffffff1673ffffffffffffffffffffffffffffffffffffffff16815260200190815260200160002054905060011515600c60008381526020019081526020016000206000846040015173ffffffffffffffffffffffffffffffffffffffff1673ffffffffffffffffffffffffffffffffffffffff16815260200190815260200160002060009054906101000a900460ff16151514610dd9576040517f08c379a0000000000000000000000000000000000000000000000000000000008152600401610dd090612a37565b60405180910390fd5b6000600c60008381526020019081526020016000206000846040015173ffffffffffffffffffffffffffffffffffffffff1673ffffffffffffffffffffffffffffffffffffffff16815260200190815260200160002060006101000a81548160ff02191690831515021790555050505050565b6000600960003373ffffffffffffffffffffffffffffffffffffffff1673ffffffffffffffffffffffffffffffffffffffff16815260200190815260200160002054905060008114158015610eb857506000600860008381526020019081526020016000206000015414155b610ef7576040517f08c379a0000000000000000000000000000000000000000000000000000000008152600401610eee90612957565b60405180910390fd5b6000600960003373ffffffffffffffffffffffffffffffffffffffff1673ffffffffffffffffffffffffffffffffffffffff16815260200190815260200160002054905060011515600c600083815260200190815260200160002060008573ffffffffffffffffffffffffffffffffffffffff1673ffffffffffffffffffffffffffffffffffffffff16815260200190815260200160002060009054906101000a900460ff16151514610fdf576040517f08c379a0000000000000000000000000000000000000000000000000000000008152600401610fd690612a37565b60405180910390fd5b6000600c600083815260200190815260200160002060008573ffffffffffffffffffffffffffffffffffffffff1673ffffffffffffffffffffffffffffffffffffffff16815260200190815260200160002060006101000a81548160ff021916908315150217905550505050565b60056020528060005260406000206000915090508060000154908060010154908060020154908060030160009054906101000a900473ffffffffffffffffffffffffffffffffffffffff16908060040154905085565b6000600960003373ffffffffffffffffffffffffffffffffffffffff1673ffffffffffffffffffffffffffffffffffffffff1681526020019081526020016000205490506000811415801561110f57506000600860008381526020019081526020016000206000015414155b61114e576040517f08c379a000000000000000000000000000000000000000000000000000000000815260040161114590612957565b60405180910390fd5b6000600960003373ffffffffffffffffffffffffffffffffffffffff1673ffffffffffffffffffffffffffffffffffffffff1681526020019081526020016000205490506001600c600083815260200190815260200160002060008573ffffffffffffffffffffffffffffffffffffffff1673ffffffffffffffffffffffffffffffffffffffff16815260200190815260200160002060006101000a81548160ff021916908315150217905550505050565b60086020528060005260406000206000915090508060000154908060010154908060020154908060030154908060040154908060050154908060070154908060080154908060090160009054906101000a900473ffffffffffffffffffffffffffffffffffffffff16905089565b60025481565b60011515600160003373ffffffffffffffffffffffffffffffffffffffff1673ffffffffffffffffffffffffffffffffffffffff16815260200190815260200160002060009054906101000a900460ff16151514611307576040517f08c379a00000000000000000000000000000000000000000000000000000000081526004016112fe90612ab7565b60405180910390fd5b6000600660008473ffffffffffffffffffffffffffffffffffffffff1673ffffffffffffffffffffffffffffffffffffffff1681526020019081526020016000205414611389576040517f08c379a000000000000000000000000000000000000000000000000000000000815260040161138090612977565b60405180910390fd5b6040518060a0016040528060025481526020018581526020018481526020018373ffffffffffffffffffffffffffffffffffffffff1681526020018281525060056000600254815260200190815260200160002060008201518160000155602082015181600101556040820151816002015560608201518160030160006101000a81548173ffffffffffffffffffffffffffffffffffffffff021916908373ffffffffffffffffffffffffffffffffffffffff16021790555060808201518160040155905050600254600660008473ffffffffffffffffffffffffffffffffffffffff1673ffffffffffffffffffffffffffffffffffffffff1681526020019081526020016000208190555060026000815480929190600101919050555050505050565b60008060009054906101000a900473ffffffffffffffffffffffffffffffffffffffff1673ffffffffffffffffffffffffffffffffffffffff163373ffffffffffffffffffffffffffffffffffffffff161461153e576040517f08c379a000000000000000000000000000000000000000000000000000000000815260040161153590612997565b60405180910390fd5b6000809054906101000a900473ffffffffffffffffffffffffffffffffffffffff1673ffffffffffffffffffffffffffffffffffffffff168273ffffffffffffffffffffffffffffffffffffffff1614156115ce576040517f08c379a00000000000000000000000000000000000000000000000000000000081526004016115c590612b17565b60405180910390fd5b816000806101000a81548173ffffffffffffffffffffffffffffffffffffffff021916908373ffffffffffffffffffffffffffffffffffffffff1602179055506000809054906101000a900473ffffffffffffffffffffffffffffffffffffffff1673ffffffffffffffffffffffffffffffffffffffff163373ffffffffffffffffffffffffffffffffffffffff167fb532073b38c83145e3e5135377a08bf9aab55bc0fd7c1179cd4fb995d2a5159c60405160405180910390a360019050919050565b60096020528060005260406000206000915090505481565b6000600960003373ffffffffffffffffffffffffffffffffffffffff1673ffffffffffffffffffffffffffffffffffffffff1681526020019081526020016000205490506000811415801561171657506000600860008381526020019081526020016000206000015414155b611755576040517f08c379a000000000000000000000000000000000000000000000000000000000815260040161174c90612957565b60405180910390fd5b61175d611fc9565b600a600084815260200190815260200160002060405180608001604052908160008201548152602001600182015481526020016002820160009054906101000a900473ffffffffffffffffffffffffffffffffffffffff1673ffffffffffffffffffffffffffffffffffffffff1673ffffffffffffffffffffffffffffffffffffffff1681526020016003820154815250509050600081600001511415611839576040517f08c379a000000000000000000000000000000000000000000000000000000000815260040161183090612a97565b60405180910390fd5b6000600960003373ffffffffffffffffffffffffffffffffffffffff1673ffffffffffffffffffffffffffffffffffffffff1681526020019081526020016000205490506001600c60008381526020019081526020016000206000846040015173ffffffffffffffffffffffffffffffffffffffff1673ffffffffffffffffffffffffffffffffffffffff16815260200190815260200160002060006101000a81548160ff02191690831515021790555050505050565b60045481565b6118fe61200d565b6000600660008473ffffffffffffffffffffffffffffffffffffffff1673ffffffffffffffffffffffffffffffffffffffff168152602001908152602001600020541415611981576040517f08c379a000000000000000000000000000000000000000000000000000000000815260040161197890612af7565b60405180910390fd5b6000600660008473ffffffffffffffffffffffffffffffffffffffff1673ffffffffffffffffffffffffffffffffffffffff168152602001908152602001600020549050600060056000838152602001908152602001600020600001541415611a1f576040517f08c379a0000000000000000000000000000000000000000000000000000000008152600401611a1690612af7565b60405180910390fd5b611a2761200d565b600560008381526020019081526020016000206040518060a00160405290816000820154815260200160018201548152602001600282015481526020016003820160009054906101000a900473ffffffffffffffffffffffffffffffffffffffff1673ffffffffffffffffffffffffffffffffffffffff1673ffffffffffffffffffffffffffffffffffffffff16815260200160048201548152505090508092505050919050565b6000600660003373ffffffffffffffffffffffffffffffffffffffff1673ffffffffffffffffffffffffffffffffffffffff16815260200190815260200160002054905060008114158015611b3b57506000600560008381526020019081526020016000206000015414155b611b7a576040517f08c379a0000000000000000000000000000000000000000000000000000000008152600401611b71906129d7565b60405180910390fd5b6000600860008c81526020019081526020016000206000015414611bd3576040517f08c379a0000000000000000000000000000000000000000000000000000000008152600401611bca90612ad7565b60405180910390fd5b6060611bdd61205b565b6040518061014001604052808d81526020018c81526020018b81526020018a81526020018981526020018881526020018381526020018781526020018681526020018573ffffffffffffffffffffffffffffffffffffffff1681525090508b600960008673ffffffffffffffffffffffffffffffffffffffff1673ffffffffffffffffffffffffffffffffffffffff1681526020019081526020016000208190555080600860008e8152602001908152602001600020600082015181600001556020820151816001015560408201518160020155606082015181600301556080820151816004015560a0820151816005015560c0820151816006019080519060200190611ceb9291906120d6565b5060e0820151816007015561010082015181600801556101208201518160090160006101000a81548173ffffffffffffffffffffffffffffffffffffffff021916908373ffffffffffffffffffffffffffffffffffffffff160217905550905050505050505050505050505050565b600a6020528060005260406000206000915090508060000154908060010154908060020160009054906101000a900473ffffffffffffffffffffffffffffffffffffffff16908060030154905084565b60066020528060005260406000206000915090505481565b6000600660003373ffffffffffffffffffffffffffffffffffffffff1673ffffffffffffffffffffffffffffffffffffffff16815260200190815260200160002054905060008114158015611e2e57506000600560008381526020019081526020016000206000015414155b611e6d576040517f08c379a0000000000000000000000000000000000000000000000000000000008152600401611e64906129d7565b60405180910390fd5b600060086000888152602001908152602001600020600001541415611ec7576040517f08c379a0000000000000000000000000000000000000000000000000000000008152600401611ebe90612a77565b60405180910390fd5b611ecf612123565b6040518060e00160405280600354815260200189815260200188815260200187815260200186815260200185815260200184815250905080600760006003548152602001908152602001600020600082015181600001556020820151816001015560408201518160020155606082015181600301556080820151816004015560a0820151816005015560c082015181600601559050506008600088815260200190815260200160002060060160035490806001815401808255809150509060018203906000526020600020016000909192909190915055506003600081548092919060010191905055505050505050505050565b60035481565b60405180608001604052806000815260200160008019168152602001600073ffffffffffffffffffffffffffffffffffffffff168152602001600080191681525090565b6040518060a00160405280600081526020016000801916815260200160008019168152602001600073ffffffffffffffffffffffffffffffffffffffff168152602001600080191681525090565b604051806101400160405280600081526020016000801916815260200160008019168152602001600080191681526020016000801916815260200160008152602001606081526020016000801916815260200160008019168152602001600073ffffffffffffffffffffffffffffffffffffffff1681525090565b828054828255906000526020600020908101928215612112579160200282015b828111156121115782518255916020019190600101906120f6565b5b50905061211f919061216c565b5090565b6040518060e00160405280600081526020016000815260200160008152602001600080191681526020016000801916815260200160008019168152602001600080191681525090565b61218e91905b8082111561218a576000816000905550600101612172565b5090565b90565b6000813590506121a081612d64565b92915050565b6000813590506121b581612d7b565b92915050565b6000813590506121ca81612d92565b92915050565b6000602082840312156121e257600080fd5b60006121f084828501612191565b91505092915050565b60008060006060848603121561220e57600080fd5b600061221c868287016121a6565b935050602061222d86828701612191565b925050604061223e868287016121a6565b9150509250925092565b6000806000806080858703121561225e57600080fd5b600061226c878288016121a6565b945050602061227d878288016121a6565b935050604061228e87828801612191565b925050606061229f878288016121a6565b91505092959194509250565b6000602082840312156122bd57600080fd5b60006122cb848285016121bb565b91505092915050565b600080604083850312156122e757600080fd5b60006122f5858286016121bb565b925050602061230685828601612191565b9150509250929050565b60008060008060008060008060006101208a8c03121561232f57600080fd5b600061233d8c828d016121bb565b995050602061234e8c828d016121a6565b985050604061235f8c828d016121a6565b97505060606123708c828d016121a6565b96505060806123818c828d016121a6565b95505060a06123928c828d016121bb565b94505060c06123a38c828d016121a6565b93505060e06123b48c828d016121a6565b9250506101006123c68c828d01612191565b9150509295985092959850929598565b60008060008060008060c087890312156123ef57600080fd5b60006123fd89828a016121bb565b965050602061240e89828a016121bb565b955050604061241f89828a016121a6565b945050606061243089828a016121a6565b935050608061244189828a016121a6565b92505060a061245289828a016121a6565b9150509295509295509295565b61246881612d12565b82525050565b61247781612d12565b82525050565b61248681612d24565b82525050565b61249581612d30565b82525050565b6124a481612d30565b82525050565b60006124b7601a83612d01565b91507f73656e646572206d757374206265207468652070617469656e740000000000006000830152602082019050919050565b60006124f7602183612d01565b91507f416c7265616479207265676973746572656420617320616e20686f737069746160008301527f6c000000000000000000000000000000000000000000000000000000000000006020830152604082019050919050565b600061255d600a83612d01565b91507f4f6e6c79206f776e6572000000000000000000000000000000000000000000006000830152602082019050919050565b600061259d601883612d01565b91507f596f752061726520616c726561647920616e2061646d696e00000000000000006000830152602082019050919050565b60006125dd601a83612d01565b91507f4f6e6c7920686f73706974616c732061726520616c6c6f7765640000000000006000830152602082019050919050565b600061261d601983612d01565b91507f596f7520617265206e6f742061646d696e20616c7265616479000000000000006000830152602082019050919050565b600061265d601b83612d01565b91507f4f7267616e697a6174696f6e20616c72656164792065786973747300000000006000830152602082019050919050565b600061269d601683612d01565b91507f416c7265616479206e6f7420617574686f7269736564000000000000000000006000830152602082019050919050565b60006126dd602383612d01565b91507f4f776e65722063616e6e6f742062652072656d6f76656420617320616e20616460008301527f6d696e00000000000000000000000000000000000000000000000000000000006020830152604082019050919050565b6000612743601a83612d01565b91507f5468652070617469656e7420646f6573206e6f742065786973740000000000006000830152602082019050919050565b6000612783601a83612d01565b91507f4e6f2073756368206f7267616e697a6174696f6e20666f756e640000000000006000830152602082019050919050565b60006127c3600a83612d01565b91507f4f6e6c792041646d696e000000000000000000000000000000000000000000006000830152602082019050919050565b6000612803601683612d01565b91507f50617469656e7420616c726561647920657869737473000000000000000000006000830152602082019050919050565b6000612843601683612d01565b91507f4e6f207375636820686f73706974616c206578697374000000000000000000006000830152602082019050919050565b6000612883601983612d01565b91507f596f752061726520746865206f776e657220616c7265616479000000000000006000830152602082019050919050565b60a0820160008201516128cc600085018261291e565b5060208201516128df602085018261248c565b5060408201516128f2604085018261248c565b506060820151612905606085018261245f565b506080820151612918608085018261248c565b50505050565b61292781612d5a565b82525050565b61293681612d5a565b82525050565b6000602082019050612951600083018461247d565b92915050565b60006020820190508181036000830152612970816124aa565b9050919050565b60006020820190508181036000830152612990816124ea565b9050919050565b600060208201905081810360008301526129b081612550565b9050919050565b600060208201905081810360008301526129d081612590565b9050919050565b600060208201905081810360008301526129f0816125d0565b9050919050565b60006020820190508181036000830152612a1081612610565b9050919050565b60006020820190508181036000830152612a3081612650565b9050919050565b60006020820190508181036000830152612a5081612690565b9050919050565b60006020820190508181036000830152612a70816126d0565b9050919050565b60006020820190508181036000830152612a9081612736565b9050919050565b60006020820190508181036000830152612ab081612776565b9050919050565b60006020820190508181036000830152612ad0816127b6565b9050919050565b60006020820190508181036000830152612af0816127f6565b9050919050565b60006020820190508181036000830152612b1081612836565b9050919050565b60006020820190508181036000830152612b3081612876565b9050919050565b600060a082019050612b4c60008301846128b6565b92915050565b6000602082019050612b67600083018461292d565b92915050565b6000608082019050612b82600083018761292d565b612b8f602083018661249b565b612b9c604083018561246e565b612ba9606083018461249b565b95945050505050565b600060a082019050612bc7600083018861292d565b612bd4602083018761249b565b612be1604083018661249b565b612bee606083018561246e565b612bfb608083018461249b565b9695505050505050565b600061012082019050612c1b600083018c61292d565b612c28602083018b61249b565b612c35604083018a61249b565b612c42606083018961249b565b612c4f608083018861249b565b612c5c60a083018761292d565b612c6960c083018661249b565b612c7660e083018561249b565b612c8461010083018461246e565b9a9950505050505050505050565b600060e082019050612ca7600083018a61292d565b612cb4602083018961292d565b612cc1604083018861292d565b612cce606083018761249b565b612cdb608083018661249b565b612ce860a083018561249b565b612cf560c083018461249b565b98975050505050505050565b600082825260208201905092915050565b6000612d1d82612d3a565b9050919050565b60008115159050919050565b6000819050919050565b600073ffffffffffffffffffffffffffffffffffffffff82169050919050565b6000819050919050565b612d6d81612d12565b8114612d7857600080fd5b50565b612d8481612d30565b8114612d8f57600080fd5b50565b612d9b81612d5a565b8114612da657600080fd5b5056fea365627a7a72315820dd7c501946f6c149744a549ae4c186f9ce61d9754e51646582f8d6242434929a6c6578706572696d656e74616cf564736f6c63430005100040",
  "source": "// SPDX-License-Identifier: MIT\npragma solidity >=0.4.22 <0.9.0;\npragma experimental ABIEncoderV2;\n\nimport {Ownable} from \"./Ownable.sol\";\n\ncontract DMed is Ownable {\n    struct Hospital {\n        uint256 id;\n        bytes32 name;\n        bytes32 physicalAddress;\n        address walletAddress;\n        bytes32 License;\n    }\n\n    struct Record {\n        uint256 id;\n        uint256 hospitalId;\n        uint256 patientId;\n        bytes32 condition;\n        bytes32 description;\n        bytes32 allergies;\n        bytes32 Document;\n    }\n\n    struct Patient {\n        uint256 id;\n        bytes32 name;\n        bytes32 gender;\n        bytes32 bloodGroup;\n        bytes32 DOB;\n        uint256 phoneNumber;\n        uint256[] records;\n        bytes32 physicalAddress;\n        bytes32 profilePicture;\n        address walletAddress;\n    }\n\n    struct Organization {\n        uint256 id;\n        bytes32 name;\n        address walletAddress;\n        bytes32 License;\n    }\n\n    /*              State Variables             */\n\n    uint256 public hospitalId = 1;\n    uint256 public recordId = 1;\n    uint256 public organizationId = 1;\n\n    // to map hospitalId to Hospital Struct\n    mapping(uint256 => Hospital) public hospitals;\n\n    // mapping to check if an address is already a registered hospital or not\n    mapping(address => uint256) public hospitalToId;\n\n    // to map medical record id to Record struct\n    mapping(uint256 => Record) public records;\n\n    // to map paitentId to Patient Struct\n    mapping(uint256 => Patient) public patients;\n\n    // mapping from patient address to patient id\n    mapping(address => uint256) public patientToId;\n\n    // to map government authorities Authorities Struct\n    mapping(uint256 => Organization) public organizations;\n\n    // mapping from organization address to id\n    mapping(address => uint256) organizationToId;\n\n    // nested mapping of (patientId) => ((address of authority)) => (isAuthorised ?))\n    mapping(uint256 => mapping(address => bool)) public authorised;\n\n    /*              Functions             */\n\n    /* \n    - function to add new hospitals. \n    - Callable by only admins. \n    - receive name of hospital, address of hosptial, wallet of hospital, and IPFS Hash of document\n    - emits an event for adding new hospital\n    */\n    function addHospital(\n        bytes32 name,\n        bytes32 physicalAddress,\n        address walletAddress,\n        bytes32 license\n    ) public onlyAdmin {\n        require(\n            hospitalToId[walletAddress] == 0,\n            \"Already registered as an hospital\"\n        );\n        hospitals[hospitalId] = Hospital(\n            hospitalId,\n            name,\n            physicalAddress,\n            walletAddress,\n            license\n        );\n        hospitalToId[walletAddress] = hospitalId;\n        hospitalId++;\n    }\n\n    /*\n    - function to get hopital having the specified address\n    - firstly checks if the given address exists in the mapping from hospitalAddress to Id\n    - now we check if any hosptial exists with the returned Id\n    - If the hosptial exists then we return it \n    */\n    function getHosptialByAddress(address _address)\n        public\n        view\n        returns (Hospital memory)\n    {\n        require(hospitalToId[_address] != 0, \"No such hospital exist\");\n        uint256 _id = hospitalToId[_address];\n        require(hospitals[_id].id != 0, \"No such hospital exist\");\n        Hospital memory hosp = hospitals[_id];\n        return hosp;\n    }\n\n    /*\n    - function to add new records of an existing patient.\n    - if the patient already exists then we make a new Record variable\n    - map the created record to its recordId\n    - add the recordId to the list of records of the patient\n    - increment the recordId\n    */\n    function addNewRecord(\n        uint256 _hospitalId,\n        uint256 _patientId,\n        bytes32 _condition,\n        bytes32 _description,\n        bytes32 _allergies,\n        bytes32 _document\n    ) public onlyHospital {\n        require(patients[_patientId].id != 0, \"The patient does not exist\");\n        Record memory rec = Record(\n            recordId,\n            _hospitalId,\n            _patientId,\n            _condition,\n            _description,\n            _allergies,\n            _document\n        );\n        records[recordId] = rec;\n        patients[_patientId].records.push(recordId);\n        recordId++;\n    }\n\n    /*\n    - function to add new patients\n    - we check if the given patient id aleady exists\n    - if does not exist then we make a new Patient varible\n    - add the constructed varible to patients mapping\n    - add the patientId to the mapping of patient address to patient Id\n    */\n    function addNewPatient(\n        uint256 _id,\n        bytes32 _name,\n        bytes32 _gender,\n        bytes32 _bloodGroup,\n        bytes32 _dob,\n        uint256 _phoneNumber,\n        bytes32 _physicalAddress,\n        bytes32 _profilePicture,\n        address _walletAddress\n    ) public onlyHospital {\n        require(patients[_id].id == 0, \"Patient already exists\");\n\n        uint256[] memory _records;\n        Patient memory pat = Patient(\n            _id,\n            _name,\n            _gender,\n            _bloodGroup,\n            _dob,\n            _phoneNumber,\n            _records,\n            _physicalAddress,\n            _profilePicture,\n            _walletAddress\n        );\n\n        patientToId[_walletAddress] = _id;\n        patients[_id] = pat;\n    }\n\n    /* \n    - function to add new organizations. \n    - Callable by only admins. \n    - receive name of organiation, _walletAddress of organization, and IPFS Hash of document\n    */\n    function addOrganization(\n        bytes32 _name,\n        address _walletAddress,\n        bytes32 _license\n    ) public onlyAdmin {\n        require(\n            organizationToId[_walletAddress] == 0,\n            \"Organization already exists\"\n        );\n        organizations[organizationId] = Organization(\n            organizationId,\n            _name,\n            _walletAddress,\n            _license\n        );\n        organizationToId[_walletAddress] = organizationId;\n\n        organizationId++;\n    }\n\n    /*\n    - function to give access authority to addresses\n    - message sender must be the patient\n    - if all condition pass add id of patient and address to authorised mapping\n    */\n    function addAuthByAddress(address addr) public onlyPatient {\n        uint256 _id = patientToId[msg.sender];\n        authorised[_id][addr] = true;\n    }\n\n    /*\n    - function to give access authority to an organization\n    - message sender must be the patient\n    - firstly check if organization with the given id exist or not\n    - if all conditions pass add id of patient and address of the organization to the mapping\n    */\n    function addAuthById(uint256 _id) public onlyPatient {\n        Organization memory org = organizations[_id];\n        require(org.id != 0, \"No such organization found\");\n        uint256 patientId = patientToId[msg.sender];\n        authorised[patientId][org.walletAddress] = true;\n    }\n\n    /*\n    - function to remove access rights from some address\n    - message sender must be the patient\n    - check if the given address has the access authorities\n    - if all conditions check, remove the mapping of id and address\n    */\n    function revokeAuthByAddress(address addr) public onlyPatient {\n        uint256 _id = patientToId[msg.sender];\n        require(authorised[_id][addr] == true, \"Already not authorised\");\n\n        authorised[_id][addr] = false;\n    }\n\n    /*\n    - function to remove access authority from an organization\n    - message sender must be the patient\n    - check if the given organization exists or not\n    - check if the given organization has the access authorities\n    - if all conditions check, remove the mapping of id and address\n    */\n    function revokeAuthById(uint256 _id) public onlyPatient {\n        Organization memory org = organizations[_id];\n        require(org.id != 0, \"No such organization found\");\n        uint256 patientId = patientToId[msg.sender];\n\n        require(\n            authorised[patientId][org.walletAddress] == true,\n            \"Already not authorised\"\n        );\n        authorised[patientId][org.walletAddress] = false;\n    }\n\n    /*              Modifiers             */\n\n    modifier onlyPatient() {\n        uint256 _id = patientToId[msg.sender];\n        require(\n            _id != 0 && patients[_id].id != 0,\n            \"sender must be the patient\"\n        );\n        _;\n    }\n\n    modifier onlyHospital() {\n        uint256 _id = hospitalToId[msg.sender];\n        require(\n            _id != 0 && hospitals[_id].id != 0,\n            \"Only hospitals are allowed\"\n        );\n        _;\n    }\n}\n",
  "sourcePath": "C:\\Users\\priya\\OneDrive\\Desktop\\Projects\\Decentralized Medical Record\\contracts\\DMed.sol",
  "compiler": {
    "name": "solc",
    "version": "0.5.16+commit.9c3226ce.Emscripten.clang"
  },
  "schemaVersion": "3.4.3",
  "updatedAt": "2021-11-18T14:11:32.865Z",
  "devdoc": {
    "methods": {}
  },
  "userdoc": {
    "methods": {}
  }
}